{
  "contracts/HackReview.sol": {
    "HackReview": {
      "abi": [
        {
          "anonymous": false,
          "inputs": [
            {
              "indexed": true,
              "internalType": "address",
              "name": "reviewer",
              "type": "address"
            },
            {
              "indexed": true,
              "internalType": "address",
              "name": "reviewee",
              "type": "address"
            },
            {
              "indexed": false,
              "internalType": "string",
              "name": "hackathonName",
              "type": "string"
            },
            {
              "indexed": false,
              "internalType": "uint8",
              "name": "starRating",
              "type": "uint8"
            },
            {
              "indexed": false,
              "internalType": "string[]",
              "name": "technologies",
              "type": "string[]"
            }
          ],
          "name": "ReviewSubmitted",
          "type": "event"
        },
        {
          "inputs": [
            {
              "internalType": "uint256",
              "name": "",
              "type": "uint256"
            }
          ],
          "name": "allReviews",
          "outputs": [
            {
              "internalType": "address",
              "name": "reviewer",
              "type": "address"
            },
            {
              "internalType": "address",
              "name": "reviewee",
              "type": "address"
            },
            {
              "internalType": "string",
              "name": "hackathonName",
              "type": "string"
            },
            {
              "internalType": "string",
              "name": "reviewText",
              "type": "string"
            },
            {
              "internalType": "uint8",
              "name": "starRating",
              "type": "uint8"
            }
          ],
          "stateMutability": "view",
          "type": "function"
        },
        {
          "inputs": [],
          "name": "getAllReviews",
          "outputs": [
            {
              "components": [
                {
                  "internalType": "address",
                  "name": "reviewer",
                  "type": "address"
                },
                {
                  "internalType": "address",
                  "name": "reviewee",
                  "type": "address"
                },
                {
                  "internalType": "string",
                  "name": "hackathonName",
                  "type": "string"
                },
                {
                  "internalType": "string",
                  "name": "reviewText",
                  "type": "string"
                },
                {
                  "internalType": "uint8",
                  "name": "starRating",
                  "type": "uint8"
                },
                {
                  "internalType": "string[]",
                  "name": "technologies",
                  "type": "string[]"
                }
              ],
              "internalType": "struct HackReview.Review[]",
              "name": "",
              "type": "tuple[]"
            }
          ],
          "stateMutability": "view",
          "type": "function"
        },
        {
          "inputs": [
            {
              "internalType": "address",
              "name": "_user",
              "type": "address"
            }
          ],
          "name": "getUserReviews",
          "outputs": [
            {
              "components": [
                {
                  "internalType": "address",
                  "name": "reviewer",
                  "type": "address"
                },
                {
                  "internalType": "address",
                  "name": "reviewee",
                  "type": "address"
                },
                {
                  "internalType": "string",
                  "name": "hackathonName",
                  "type": "string"
                },
                {
                  "internalType": "string",
                  "name": "reviewText",
                  "type": "string"
                },
                {
                  "internalType": "uint8",
                  "name": "starRating",
                  "type": "uint8"
                },
                {
                  "internalType": "string[]",
                  "name": "technologies",
                  "type": "string[]"
                }
              ],
              "internalType": "struct HackReview.Review[]",
              "name": "",
              "type": "tuple[]"
            }
          ],
          "stateMutability": "view",
          "type": "function"
        },
        {
          "inputs": [
            {
              "internalType": "string",
              "name": "_tech",
              "type": "string"
            }
          ],
          "name": "searchReviewsByTech",
          "outputs": [
            {
              "components": [
                {
                  "internalType": "address",
                  "name": "reviewer",
                  "type": "address"
                },
                {
                  "internalType": "address",
                  "name": "reviewee",
                  "type": "address"
                },
                {
                  "internalType": "string",
                  "name": "hackathonName",
                  "type": "string"
                },
                {
                  "internalType": "string",
                  "name": "reviewText",
                  "type": "string"
                },
                {
                  "internalType": "uint8",
                  "name": "starRating",
                  "type": "uint8"
                },
                {
                  "internalType": "string[]",
                  "name": "technologies",
                  "type": "string[]"
                }
              ],
              "internalType": "struct HackReview.Review[]",
              "name": "",
              "type": "tuple[]"
            }
          ],
          "stateMutability": "view",
          "type": "function"
        },
        {
          "inputs": [
            {
              "internalType": "address",
              "name": "_reviewee",
              "type": "address"
            },
            {
              "internalType": "string",
              "name": "_hackathonName",
              "type": "string"
            },
            {
              "internalType": "string",
              "name": "_reviewText",
              "type": "string"
            },
            {
              "internalType": "uint8",
              "name": "_starRating",
              "type": "uint8"
            },
            {
              "internalType": "string[]",
              "name": "_technologies",
              "type": "string[]"
            }
          ],
          "name": "submitReview",
          "outputs": [],
          "stateMutability": "nonpayable",
          "type": "function"
        },
        {
          "inputs": [
            {
              "internalType": "address",
              "name": "",
              "type": "address"
            },
            {
              "internalType": "uint256",
              "name": "",
              "type": "uint256"
            }
          ],
          "name": "userReviews",
          "outputs": [
            {
              "internalType": "address",
              "name": "reviewer",
              "type": "address"
            },
            {
              "internalType": "address",
              "name": "reviewee",
              "type": "address"
            },
            {
              "internalType": "string",
              "name": "hackathonName",
              "type": "string"
            },
            {
              "internalType": "string",
              "name": "reviewText",
              "type": "string"
            },
            {
              "internalType": "uint8",
              "name": "starRating",
              "type": "uint8"
            }
          ],
          "stateMutability": "view",
          "type": "function"
        }
      ],
      "evm": {
        "bytecode": {
          "linkReferences": {},
          "object": "6080604052348015600f57600080fd5b506124788061001f6000396000f3fe608060405234801561001057600080fd5b50600436106100625760003560e01c8063110d91b21461006757806318d0e8b2146100975780631f4ac129146100c757806345a7b01c146100fb578063b5366b5014610119578063ffa590ae14610135575b600080fd5b610081600480360381019061007c9190611726565b610169565b60405161008e9190611a66565b60405180910390f35b6100b160048036038101906100ac9190611ab4565b610694565b6040516100be9190611a66565b60405180910390f35b6100e160048036038101906100dc9190611b17565b6109f7565b6040516100f2959493929190611bbf565b60405180910390f35b610103610ba7565b6040516101109190611a66565b60405180910390f35b610133600480360381019061012e9190611d32565b610ecc565b005b61014f600480360381019061014a9190611e01565b6112ea565b604051610160959493929190611bbf565b60405180910390f35b6060600060018054905067ffffffffffffffff81111561018c5761018b6115fb565b5b6040519080825280602002602001820160405280156101c557816020015b6101b261148d565b8152602001906001900390816101aa5790505b5090506000805b6001805490508110156105de5760005b600182815481106101f0576101ef611e2e565b5b9060005260206000209060060201600501805490508110156105d0578560405160200161021d9190611e99565b604051602081830303815290604052805190602001206001838154811061024757610246611e2e565b5b9060005260206000209060060201600501828154811061026a57610269611e2e565b5b906000526020600020016040516020016102849190611fa8565b60405160208183030381529060405280519060200120036105c357600182815481106102b3576102b2611e2e565b5b90600052602060002090600602016040518060c00160405290816000820160009054906101000a900473ffffffffffffffffffffffffffffffffffffffff1673ffffffffffffffffffffffffffffffffffffffff1673ffffffffffffffffffffffffffffffffffffffff1681526020016001820160009054906101000a900473ffffffffffffffffffffffffffffffffffffffff1673ffffffffffffffffffffffffffffffffffffffff1673ffffffffffffffffffffffffffffffffffffffff16815260200160028201805461038890611edf565b80601f01602080910402602001604051908101604052809291908181526020018280546103b490611edf565b80156104015780601f106103d657610100808354040283529160200191610401565b820191906000526020600020905b8154815290600101906020018083116103e457829003601f168201915b5050505050815260200160038201805461041a90611edf565b80601f016020809104026020016040519081016040528092919081815260200182805461044690611edf565b80156104935780601f1061046857610100808354040283529160200191610493565b820191906000526020600020905b81548152906001019060200180831161047657829003601f168201915b505050505081526020016004820160009054906101000a900460ff1660ff1660ff16815260200160058201805480602002602001604051908101604052809291908181526020016000905b8282101561058a5783829060005260206000200180546104fd90611edf565b80601f016020809104026020016040519081016040528092919081815260200182805461052990611edf565b80156105765780601f1061054b57610100808354040283529160200191610576565b820191906000526020600020905b81548152906001019060200180831161055957829003601f168201915b5050505050815260200190600101906104de565b50505050815250508484815181106105a5576105a4611e2e565b5b602002602001018190525082806105bb90611fee565b9350506105d0565b80806001019150506101dc565b5080806001019150506101cc565b5060008167ffffffffffffffff8111156105fb576105fa6115fb565b5b60405190808252806020026020018201604052801561063457816020015b61062161148d565b8152602001906001900390816106195790505b50905060005b828110156106885783818151811061065557610654611e2e565b5b60200260200101518282815181106106705761066f611e2e565b5b6020026020010181905250808060010191505061063a565b50809350505050919050565b60606000808373ffffffffffffffffffffffffffffffffffffffff1673ffffffffffffffffffffffffffffffffffffffff168152602001908152602001600020805480602002602001604051908101604052809291908181526020016000905b828210156109ec57838290600052602060002090600602016040518060c00160405290816000820160009054906101000a900473ffffffffffffffffffffffffffffffffffffffff1673ffffffffffffffffffffffffffffffffffffffff1673ffffffffffffffffffffffffffffffffffffffff1681526020016001820160009054906101000a900473ffffffffffffffffffffffffffffffffffffffff1673ffffffffffffffffffffffffffffffffffffffff1673ffffffffffffffffffffffffffffffffffffffff1681526020016002820180546107d390611edf565b80601f01602080910402602001604051908101604052809291908181526020018280546107ff90611edf565b801561084c5780601f106108215761010080835404028352916020019161084c565b820191906000526020600020905b81548152906001019060200180831161082f57829003601f168201915b5050505050815260200160038201805461086590611edf565b80601f016020809104026020016040519081016040528092919081815260200182805461089190611edf565b80156108de5780601f106108b3576101008083540402835291602001916108de565b820191906000526020600020905b8154815290600101906020018083116108c157829003601f168201915b505050505081526020016004820160009054906101000a900460ff1660ff1660ff16815260200160058201805480602002602001604051908101604052809291908181526020016000905b828210156109d557838290600052602060002001805461094890611edf565b80601f016020809104026020016040519081016040528092919081815260200182805461097490611edf565b80156109c15780601f10610996576101008083540402835291602001916109c1565b820191906000526020600020905b8154815290600101906020018083116109a457829003601f168201915b505050505081526020019060010190610929565b5050505081525050815260200190600101906106f4565b505050509050919050565b60006020528160005260406000208181548110610a1357600080fd5b9060005260206000209060060201600091509150508060000160009054906101000a900473ffffffffffffffffffffffffffffffffffffffff16908060010160009054906101000a900473ffffffffffffffffffffffffffffffffffffffff1690806002018054610a8390611edf565b80601f0160208091040260200160405190810160405280929190818152602001828054610aaf90611edf565b8015610afc5780601f10610ad157610100808354040283529160200191610afc565b820191906000526020600020905b815481529060010190602001808311610adf57829003601f168201915b505050505090806003018054610b1190611edf565b80601f0160208091040260200160405190810160405280929190818152602001828054610b3d90611edf565b8015610b8a5780601f10610b5f57610100808354040283529160200191610b8a565b820191906000526020600020905b815481529060010190602001808311610b6d57829003601f168201915b5050505050908060040160009054906101000a900460ff16905085565b60606001805480602002602001604051908101604052809291908181526020016000905b82821015610ec357838290600052602060002090600602016040518060c00160405290816000820160009054906101000a900473ffffffffffffffffffffffffffffffffffffffff1673ffffffffffffffffffffffffffffffffffffffff1673ffffffffffffffffffffffffffffffffffffffff1681526020016001820160009054906101000a900473ffffffffffffffffffffffffffffffffffffffff1673ffffffffffffffffffffffffffffffffffffffff1673ffffffffffffffffffffffffffffffffffffffff168152602001600282018054610caa90611edf565b80601f0160208091040260200160405190810160405280929190818152602001828054610cd690611edf565b8015610d235780601f10610cf857610100808354040283529160200191610d23565b820191906000526020600020905b815481529060010190602001808311610d0657829003601f168201915b50505050508152602001600382018054610d3c90611edf565b80601f0160208091040260200160405190810160405280929190818152602001828054610d6890611edf565b8015610db55780601f10610d8a57610100808354040283529160200191610db5565b820191906000526020600020905b815481529060010190602001808311610d9857829003601f168201915b505050505081526020016004820160009054906101000a900460ff1660ff1660ff16815260200160058201805480602002602001604051908101604052809291908181526020016000905b82821015610eac578382906000526020600020018054610e1f90611edf565b80601f0160208091040260200160405190810160405280929190818152602001828054610e4b90611edf565b8015610e985780601f10610e6d57610100808354040283529160200191610e98565b820191906000526020600020905b815481529060010190602001808311610e7b57829003601f168201915b505050505081526020019060010190610e00565b505050508152505081526020019060010190610bcb565b50505050905090565b3373ffffffffffffffffffffffffffffffffffffffff168573ffffffffffffffffffffffffffffffffffffffff1603610f3a576040517f08c379a0000000000000000000000000000000000000000000000000000000008152600401610f3190612082565b60405180910390fd5b60018260ff1610158015610f52575060058260ff1611155b610f91576040517f08c379a0000000000000000000000000000000000000000000000000000000008152600401610f88906120ee565b60405180910390fd5b60006040518060c001604052803373ffffffffffffffffffffffffffffffffffffffff1681526020018773ffffffffffffffffffffffffffffffffffffffff1681526020018681526020018581526020018460ff1681526020018381525090506000808773ffffffffffffffffffffffffffffffffffffffff1673ffffffffffffffffffffffffffffffffffffffff16815260200190815260200160002081908060018154018082558091505060019003906000526020600020906006020160009091909190915060008201518160000160006101000a81548173ffffffffffffffffffffffffffffffffffffffff021916908373ffffffffffffffffffffffffffffffffffffffff16021790555060208201518160010160006101000a81548173ffffffffffffffffffffffffffffffffffffffff021916908373ffffffffffffffffffffffffffffffffffffffff16021790555060408201518160020190816110fc91906122a5565b50606082015181600301908161111291906122a5565b5060808201518160040160006101000a81548160ff021916908360ff16021790555060a08201518160050190805190602001906111509291906114f2565b505050600181908060018154018082558091505060019003906000526020600020906006020160009091909190915060008201518160000160006101000a81548173ffffffffffffffffffffffffffffffffffffffff021916908373ffffffffffffffffffffffffffffffffffffffff16021790555060208201518160010160006101000a81548173ffffffffffffffffffffffffffffffffffffffff021916908373ffffffffffffffffffffffffffffffffffffffff160217905550604082015181600201908161122291906122a5565b50606082015181600301908161123891906122a5565b5060808201518160040160006101000a81548160ff021916908360ff16021790555060a08201518160050190805190602001906112769291906114f2565b5050508573ffffffffffffffffffffffffffffffffffffffff163373ffffffffffffffffffffffffffffffffffffffff167f09dd7b2d835d267aa71f4d73e150bd02ff1ff2612bf6cfe2d31b2d6ccfdaaf7d8786866040516112da939291906123fd565b60405180910390a3505050505050565b600181815481106112fa57600080fd5b90600052602060002090600602016000915090508060000160009054906101000a900473ffffffffffffffffffffffffffffffffffffffff16908060010160009054906101000a900473ffffffffffffffffffffffffffffffffffffffff169080600201805461136990611edf565b80601f016020809104026020016040519081016040528092919081815260200182805461139590611edf565b80156113e25780601f106113b7576101008083540402835291602001916113e2565b820191906000526020600020905b8154815290600101906020018083116113c557829003601f168201915b5050505050908060030180546113f790611edf565b80601f016020809104026020016040519081016040528092919081815260200182805461142390611edf565b80156114705780601f1061144557610100808354040283529160200191611470565b820191906000526020600020905b81548152906001019060200180831161145357829003601f168201915b5050505050908060040160009054906101000a900460ff16905085565b6040518060c00160405280600073ffffffffffffffffffffffffffffffffffffffff168152602001600073ffffffffffffffffffffffffffffffffffffffff1681526020016060815260200160608152602001600060ff168152602001606081525090565b82805482825590600052602060002090810192821561153a579160200282015b8281111561153957825182908161152991906122a5565b5091602001919060010190611512565b5b509050611547919061154b565b5090565b5b8082111561156b5760008181611562919061156f565b5060010161154c565b5090565b50805461157b90611edf565b6000825580601f1061158d57506115ac565b601f0160209004906000526020600020908101906115ab91906115af565b5b50565b5b808211156115c85760008160009055506001016115b0565b5090565b6000604051905090565b600080fd5b600080fd5b600080fd5b600080fd5b6000601f19601f8301169050919050565b7f4e487b7100000000000000000000000000000000000000000000000000000000600052604160045260246000fd5b611633826115ea565b810181811067ffffffffffffffff82111715611652576116516115fb565b5b80604052505050565b60006116656115cc565b9050611671828261162a565b919050565b600067ffffffffffffffff821115611691576116906115fb565b5b61169a826115ea565b9050602081019050919050565b82818337600083830152505050565b60006116c96116c484611676565b61165b565b9050828152602081018484840111156116e5576116e46115e5565b5b6116f08482856116a7565b509392505050565b600082601f83011261170d5761170c6115e0565b5b813561171d8482602086016116b6565b91505092915050565b60006020828403121561173c5761173b6115d6565b5b600082013567ffffffffffffffff81111561175a576117596115db565b5b611766848285016116f8565b91505092915050565b600081519050919050565b600082825260208201905092915050565b6000819050602082019050919050565b600073ffffffffffffffffffffffffffffffffffffffff82169050919050565b60006117c68261179b565b9050919050565b6117d6816117bb565b82525050565b600081519050919050565b600082825260208201905092915050565b60005b838110156118165780820151818401526020810190506117fb565b60008484015250505050565b600061182d826117dc565b61183781856117e7565b93506118478185602086016117f8565b611850816115ea565b840191505092915050565b600060ff82169050919050565b6118718161185b565b82525050565b600081519050919050565b600082825260208201905092915050565b6000819050602082019050919050565b60006118af8383611822565b905092915050565b6000602082019050919050565b60006118cf82611877565b6118d98185611882565b9350836020820285016118eb85611893565b8060005b85811015611927578484038952815161190885826118a3565b9450611913836118b7565b925060208a019950506001810190506118ef565b50829750879550505050505092915050565b600060c08301600083015161195160008601826117cd565b50602083015161196460208601826117cd565b506040830151848203604086015261197c8282611822565b915050606083015184820360608601526119968282611822565b91505060808301516119ab6080860182611868565b5060a083015184820360a08601526119c382826118c4565b9150508091505092915050565b60006119dc8383611939565b905092915050565b6000602082019050919050565b60006119fc8261176f565b611a06818561177a565b935083602082028501611a188561178b565b8060005b85811015611a545784840389528151611a3585826119d0565b9450611a40836119e4565b925060208a01995050600181019050611a1c565b50829750879550505050505092915050565b60006020820190508181036000830152611a8081846119f1565b905092915050565b611a91816117bb565b8114611a9c57600080fd5b50565b600081359050611aae81611a88565b92915050565b600060208284031215611aca57611ac96115d6565b5b6000611ad884828501611a9f565b91505092915050565b6000819050919050565b611af481611ae1565b8114611aff57600080fd5b50565b600081359050611b1181611aeb565b92915050565b60008060408385031215611b2e57611b2d6115d6565b5b6000611b3c85828601611a9f565b9250506020611b4d85828601611b02565b9150509250929050565b611b60816117bb565b82525050565b600082825260208201905092915050565b6000611b82826117dc565b611b8c8185611b66565b9350611b9c8185602086016117f8565b611ba5816115ea565b840191505092915050565b611bb98161185b565b82525050565b600060a082019050611bd46000830188611b57565b611be16020830187611b57565b8181036040830152611bf38186611b77565b90508181036060830152611c078185611b77565b9050611c166080830184611bb0565b9695505050505050565b611c298161185b565b8114611c3457600080fd5b50565b600081359050611c4681611c20565b92915050565b600067ffffffffffffffff821115611c6757611c666115fb565b5b602082029050602081019050919050565b600080fd5b6000611c90611c8b84611c4c565b61165b565b90508083825260208201905060208402830185811115611cb357611cb2611c78565b5b835b81811015611cfa57803567ffffffffffffffff811115611cd857611cd76115e0565b5b808601611ce589826116f8565b85526020850194505050602081019050611cb5565b5050509392505050565b600082601f830112611d1957611d186115e0565b5b8135611d29848260208601611c7d565b91505092915050565b600080600080600060a08688031215611d4e57611d4d6115d6565b5b6000611d5c88828901611a9f565b955050602086013567ffffffffffffffff811115611d7d57611d7c6115db565b5b611d89888289016116f8565b945050604086013567ffffffffffffffff811115611daa57611da96115db565b5b611db6888289016116f8565b9350506060611dc788828901611c37565b925050608086013567ffffffffffffffff811115611de857611de76115db565b5b611df488828901611d04565b9150509295509295909350565b600060208284031215611e1757611e166115d6565b5b6000611e2584828501611b02565b91505092915050565b7f4e487b7100000000000000000000000000000000000000000000000000000000600052603260045260246000fd5b600081905092915050565b6000611e73826117dc565b611e7d8185611e5d565b9350611e8d8185602086016117f8565b80840191505092915050565b6000611ea58284611e68565b915081905092915050565b7f4e487b7100000000000000000000000000000000000000000000000000000000600052602260045260246000fd5b60006002820490506001821680611ef757607f821691505b602082108103611f0a57611f09611eb0565b5b50919050565b60008190508160005260206000209050919050565b60008154611f3281611edf565b611f3c8186611e5d565b94506001821660008114611f575760018114611f6c57611f9f565b60ff1983168652811515820286019350611f9f565b611f7585611f10565b60005b83811015611f9757815481890152600182019150602081019050611f78565b838801955050505b50505092915050565b6000611fb48284611f25565b915081905092915050565b7f4e487b7100000000000000000000000000000000000000000000000000000000600052601160045260246000fd5b6000611ff982611ae1565b91507fffffffffffffffffffffffffffffffffffffffffffffffffffffffffffffffff820361202b5761202a611fbf565b5b600182019050919050565b7f596f752063616e6e6f742072657669657720796f757273656c662e0000000000600082015250565b600061206c601b83611b66565b915061207782612036565b602082019050919050565b6000602082019050818103600083015261209b8161205f565b9050919050565b7f526174696e67206d757374206265206265747765656e203120616e6420352e00600082015250565b60006120d8601f83611b66565b91506120e3826120a2565b602082019050919050565b60006020820190508181036000830152612107816120cb565b9050919050565b60006020601f8301049050919050565b600082821b905092915050565b60006008830261215b7fffffffffffffffffffffffffffffffffffffffffffffffffffffffffffffffff8261211e565b612165868361211e565b95508019841693508086168417925050509392505050565b6000819050919050565b60006121a261219d61219884611ae1565b61217d565b611ae1565b9050919050565b6000819050919050565b6121bc83612187565b6121d06121c8826121a9565b84845461212b565b825550505050565b600090565b6121e56121d8565b6121f08184846121b3565b505050565b5b81811015612214576122096000826121dd565b6001810190506121f6565b5050565b601f8211156122595761222a81611f10565b6122338461210e565b81016020851015612242578190505b61225661224e8561210e565b8301826121f5565b50505b505050565b600082821c905092915050565b600061227c6000198460080261225e565b1980831691505092915050565b6000612295838361226b565b9150826002028217905092915050565b6122ae826117dc565b67ffffffffffffffff8111156122c7576122c66115fb565b5b6122d18254611edf565b6122dc828285612218565b600060209050601f83116001811461230f57600084156122fd578287015190505b6123078582612289565b86555061236f565b601f19841661231d86611f10565b60005b8281101561234557848901518255600182019150602085019450602081019050612320565b86831015612362578489015161235e601f89168261226b565b8355505b6001600288020188555050505b505050505050565b600082825260208201905092915050565b600061239382611877565b61239d8185612377565b9350836020820285016123af85611893565b8060005b858110156123eb57848403895281516123cc85826118a3565b94506123d7836118b7565b925060208a019950506001810190506123b3565b50829750879550505050505092915050565b600060608201905081810360008301526124178186611b77565b90506124266020830185611bb0565b81810360408301526124388184612388565b905094935050505056fea2646970667358221220f27e1b5278ac43c110ae3f005d3588d0e4522016945941425a3a9a1852bbf8ce64736f6c634300081b0033",
          "opcodes": "PUSH1 0x80 PUSH1 0x40 MSTORE CALLVALUE DUP1 ISZERO PUSH1 0xF JUMPI PUSH1 0x0 DUP1 REVERT JUMPDEST POP PUSH2 0x2478 DUP1 PUSH2 0x1F PUSH1 0x0 CODECOPY PUSH1 0x0 RETURN INVALID PUSH1 0x80 PUSH1 0x40 MSTORE CALLVALUE DUP1 ISZERO PUSH2 0x10 JUMPI PUSH1 0x0 DUP1 REVERT JUMPDEST POP PUSH1 0x4 CALLDATASIZE LT PUSH2 0x62 JUMPI PUSH1 0x0 CALLDATALOAD PUSH1 0xE0 SHR DUP1 PUSH4 0x110D91B2 EQ PUSH2 0x67 JUMPI DUP1 PUSH4 0x18D0E8B2 EQ PUSH2 0x97 JUMPI DUP1 PUSH4 0x1F4AC129 EQ PUSH2 0xC7 JUMPI DUP1 PUSH4 0x45A7B01C EQ PUSH2 0xFB JUMPI DUP1 PUSH4 0xB5366B50 EQ PUSH2 0x119 JUMPI DUP1 PUSH4 0xFFA590AE EQ PUSH2 0x135 JUMPI JUMPDEST PUSH1 0x0 DUP1 REVERT JUMPDEST PUSH2 0x81 PUSH1 0x4 DUP1 CALLDATASIZE SUB DUP2 ADD SWAP1 PUSH2 0x7C SWAP2 SWAP1 PUSH2 0x1726 JUMP JUMPDEST PUSH2 0x169 JUMP JUMPDEST PUSH1 0x40 MLOAD PUSH2 0x8E SWAP2 SWAP1 PUSH2 0x1A66 JUMP JUMPDEST PUSH1 0x40 MLOAD DUP1 SWAP2 SUB SWAP1 RETURN JUMPDEST PUSH2 0xB1 PUSH1 0x4 DUP1 CALLDATASIZE SUB DUP2 ADD SWAP1 PUSH2 0xAC SWAP2 SWAP1 PUSH2 0x1AB4 JUMP JUMPDEST PUSH2 0x694 JUMP JUMPDEST PUSH1 0x40 MLOAD PUSH2 0xBE SWAP2 SWAP1 PUSH2 0x1A66 JUMP JUMPDEST PUSH1 0x40 MLOAD DUP1 SWAP2 SUB SWAP1 RETURN JUMPDEST PUSH2 0xE1 PUSH1 0x4 DUP1 CALLDATASIZE SUB DUP2 ADD SWAP1 PUSH2 0xDC SWAP2 SWAP1 PUSH2 0x1B17 JUMP JUMPDEST PUSH2 0x9F7 JUMP JUMPDEST PUSH1 0x40 MLOAD PUSH2 0xF2 SWAP6 SWAP5 SWAP4 SWAP3 SWAP2 SWAP1 PUSH2 0x1BBF JUMP JUMPDEST PUSH1 0x40 MLOAD DUP1 SWAP2 SUB SWAP1 RETURN JUMPDEST PUSH2 0x103 PUSH2 0xBA7 JUMP JUMPDEST PUSH1 0x40 MLOAD PUSH2 0x110 SWAP2 SWAP1 PUSH2 0x1A66 JUMP JUMPDEST PUSH1 0x40 MLOAD DUP1 SWAP2 SUB SWAP1 RETURN JUMPDEST PUSH2 0x133 PUSH1 0x4 DUP1 CALLDATASIZE SUB DUP2 ADD SWAP1 PUSH2 0x12E SWAP2 SWAP1 PUSH2 0x1D32 JUMP JUMPDEST PUSH2 0xECC JUMP JUMPDEST STOP JUMPDEST PUSH2 0x14F PUSH1 0x4 DUP1 CALLDATASIZE SUB DUP2 ADD SWAP1 PUSH2 0x14A SWAP2 SWAP1 PUSH2 0x1E01 JUMP JUMPDEST PUSH2 0x12EA JUMP JUMPDEST PUSH1 0x40 MLOAD PUSH2 0x160 SWAP6 SWAP5 SWAP4 SWAP3 SWAP2 SWAP1 PUSH2 0x1BBF JUMP JUMPDEST PUSH1 0x40 MLOAD DUP1 SWAP2 SUB SWAP1 RETURN JUMPDEST PUSH1 0x60 PUSH1 0x0 PUSH1 0x1 DUP1 SLOAD SWAP1 POP PUSH8 0xFFFFFFFFFFFFFFFF DUP2 GT ISZERO PUSH2 0x18C JUMPI PUSH2 0x18B PUSH2 0x15FB JUMP JUMPDEST JUMPDEST PUSH1 0x40 MLOAD SWAP1 DUP1 DUP3 MSTORE DUP1 PUSH1 0x20 MUL PUSH1 0x20 ADD DUP3 ADD PUSH1 0x40 MSTORE DUP1 ISZERO PUSH2 0x1C5 JUMPI DUP2 PUSH1 0x20 ADD JUMPDEST PUSH2 0x1B2 PUSH2 0x148D JUMP JUMPDEST DUP2 MSTORE PUSH1 0x20 ADD SWAP1 PUSH1 0x1 SWAP1 SUB SWAP1 DUP2 PUSH2 0x1AA JUMPI SWAP1 POP JUMPDEST POP SWAP1 POP PUSH1 0x0 DUP1 JUMPDEST PUSH1 0x1 DUP1 SLOAD SWAP1 POP DUP2 LT ISZERO PUSH2 0x5DE JUMPI PUSH1 0x0 JUMPDEST PUSH1 0x1 DUP3 DUP2 SLOAD DUP2 LT PUSH2 0x1F0 JUMPI PUSH2 0x1EF PUSH2 0x1E2E JUMP JUMPDEST JUMPDEST SWAP1 PUSH1 0x0 MSTORE PUSH1 0x20 PUSH1 0x0 KECCAK256 SWAP1 PUSH1 0x6 MUL ADD PUSH1 0x5 ADD DUP1 SLOAD SWAP1 POP DUP2 LT ISZERO PUSH2 0x5D0 JUMPI DUP6 PUSH1 0x40 MLOAD PUSH1 0x20 ADD PUSH2 0x21D SWAP2 SWAP1 PUSH2 0x1E99 JUMP JUMPDEST PUSH1 0x40 MLOAD PUSH1 0x20 DUP2 DUP4 SUB SUB DUP2 MSTORE SWAP1 PUSH1 0x40 MSTORE DUP1 MLOAD SWAP1 PUSH1 0x20 ADD KECCAK256 PUSH1 0x1 DUP4 DUP2 SLOAD DUP2 LT PUSH2 0x247 JUMPI PUSH2 0x246 PUSH2 0x1E2E JUMP JUMPDEST JUMPDEST SWAP1 PUSH1 0x0 MSTORE PUSH1 0x20 PUSH1 0x0 KECCAK256 SWAP1 PUSH1 0x6 MUL ADD PUSH1 0x5 ADD DUP3 DUP2 SLOAD DUP2 LT PUSH2 0x26A JUMPI PUSH2 0x269 PUSH2 0x1E2E JUMP JUMPDEST JUMPDEST SWAP1 PUSH1 0x0 MSTORE PUSH1 0x20 PUSH1 0x0 KECCAK256 ADD PUSH1 0x40 MLOAD PUSH1 0x20 ADD PUSH2 0x284 SWAP2 SWAP1 PUSH2 0x1FA8 JUMP JUMPDEST PUSH1 0x40 MLOAD PUSH1 0x20 DUP2 DUP4 SUB SUB DUP2 MSTORE SWAP1 PUSH1 0x40 MSTORE DUP1 MLOAD SWAP1 PUSH1 0x20 ADD KECCAK256 SUB PUSH2 0x5C3 JUMPI PUSH1 0x1 DUP3 DUP2 SLOAD DUP2 LT PUSH2 0x2B3 JUMPI PUSH2 0x2B2 PUSH2 0x1E2E JUMP JUMPDEST JUMPDEST SWAP1 PUSH1 0x0 MSTORE PUSH1 0x20 PUSH1 0x0 KECCAK256 SWAP1 PUSH1 0x6 MUL ADD PUSH1 0x40 MLOAD DUP1 PUSH1 0xC0 ADD PUSH1 0x40 MSTORE SWAP1 DUP2 PUSH1 0x0 DUP3 ADD PUSH1 0x0 SWAP1 SLOAD SWAP1 PUSH2 0x100 EXP SWAP1 DIV PUSH20 0xFFFFFFFFFFFFFFFFFFFFFFFFFFFFFFFFFFFFFFFF AND PUSH20 0xFFFFFFFFFFFFFFFFFFFFFFFFFFFFFFFFFFFFFFFF AND PUSH20 0xFFFFFFFFFFFFFFFFFFFFFFFFFFFFFFFFFFFFFFFF AND DUP2 MSTORE PUSH1 0x20 ADD PUSH1 0x1 DUP3 ADD PUSH1 0x0 SWAP1 SLOAD SWAP1 PUSH2 0x100 EXP SWAP1 DIV PUSH20 0xFFFFFFFFFFFFFFFFFFFFFFFFFFFFFFFFFFFFFFFF AND PUSH20 0xFFFFFFFFFFFFFFFFFFFFFFFFFFFFFFFFFFFFFFFF AND PUSH20 0xFFFFFFFFFFFFFFFFFFFFFFFFFFFFFFFFFFFFFFFF AND DUP2 MSTORE PUSH1 0x20 ADD PUSH1 0x2 DUP3 ADD DUP1 SLOAD PUSH2 0x388 SWAP1 PUSH2 0x1EDF JUMP JUMPDEST DUP1 PUSH1 0x1F ADD PUSH1 0x20 DUP1 SWAP2 DIV MUL PUSH1 0x20 ADD PUSH1 0x40 MLOAD SWAP1 DUP2 ADD PUSH1 0x40 MSTORE DUP1 SWAP3 SWAP2 SWAP1 DUP2 DUP2 MSTORE PUSH1 0x20 ADD DUP3 DUP1 SLOAD PUSH2 0x3B4 SWAP1 PUSH2 0x1EDF JUMP JUMPDEST DUP1 ISZERO PUSH2 0x401 JUMPI DUP1 PUSH1 0x1F LT PUSH2 0x3D6 JUMPI PUSH2 0x100 DUP1 DUP4 SLOAD DIV MUL DUP4 MSTORE SWAP2 PUSH1 0x20 ADD SWAP2 PUSH2 0x401 JUMP JUMPDEST DUP3 ADD SWAP2 SWAP1 PUSH1 0x0 MSTORE PUSH1 0x20 PUSH1 0x0 KECCAK256 SWAP1 JUMPDEST DUP2 SLOAD DUP2 MSTORE SWAP1 PUSH1 0x1 ADD SWAP1 PUSH1 0x20 ADD DUP1 DUP4 GT PUSH2 0x3E4 JUMPI DUP3 SWAP1 SUB PUSH1 0x1F AND DUP3 ADD SWAP2 JUMPDEST POP POP POP POP POP DUP2 MSTORE PUSH1 0x20 ADD PUSH1 0x3 DUP3 ADD DUP1 SLOAD PUSH2 0x41A SWAP1 PUSH2 0x1EDF JUMP JUMPDEST DUP1 PUSH1 0x1F ADD PUSH1 0x20 DUP1 SWAP2 DIV MUL PUSH1 0x20 ADD PUSH1 0x40 MLOAD SWAP1 DUP2 ADD PUSH1 0x40 MSTORE DUP1 SWAP3 SWAP2 SWAP1 DUP2 DUP2 MSTORE PUSH1 0x20 ADD DUP3 DUP1 SLOAD PUSH2 0x446 SWAP1 PUSH2 0x1EDF JUMP JUMPDEST DUP1 ISZERO PUSH2 0x493 JUMPI DUP1 PUSH1 0x1F LT PUSH2 0x468 JUMPI PUSH2 0x100 DUP1 DUP4 SLOAD DIV MUL DUP4 MSTORE SWAP2 PUSH1 0x20 ADD SWAP2 PUSH2 0x493 JUMP JUMPDEST DUP3 ADD SWAP2 SWAP1 PUSH1 0x0 MSTORE PUSH1 0x20 PUSH1 0x0 KECCAK256 SWAP1 JUMPDEST DUP2 SLOAD DUP2 MSTORE SWAP1 PUSH1 0x1 ADD SWAP1 PUSH1 0x20 ADD DUP1 DUP4 GT PUSH2 0x476 JUMPI DUP3 SWAP1 SUB PUSH1 0x1F AND DUP3 ADD SWAP2 JUMPDEST POP POP POP POP POP DUP2 MSTORE PUSH1 0x20 ADD PUSH1 0x4 DUP3 ADD PUSH1 0x0 SWAP1 SLOAD SWAP1 PUSH2 0x100 EXP SWAP1 DIV PUSH1 0xFF AND PUSH1 0xFF AND PUSH1 0xFF AND DUP2 MSTORE PUSH1 0x20 ADD PUSH1 0x5 DUP3 ADD DUP1 SLOAD DUP1 PUSH1 0x20 MUL PUSH1 0x20 ADD PUSH1 0x40 MLOAD SWAP1 DUP2 ADD PUSH1 0x40 MSTORE DUP1 SWAP3 SWAP2 SWAP1 DUP2 DUP2 MSTORE PUSH1 0x20 ADD PUSH1 0x0 SWAP1 JUMPDEST DUP3 DUP3 LT ISZERO PUSH2 0x58A JUMPI DUP4 DUP3 SWAP1 PUSH1 0x0 MSTORE PUSH1 0x20 PUSH1 0x0 KECCAK256 ADD DUP1 SLOAD PUSH2 0x4FD SWAP1 PUSH2 0x1EDF JUMP JUMPDEST DUP1 PUSH1 0x1F ADD PUSH1 0x20 DUP1 SWAP2 DIV MUL PUSH1 0x20 ADD PUSH1 0x40 MLOAD SWAP1 DUP2 ADD PUSH1 0x40 MSTORE DUP1 SWAP3 SWAP2 SWAP1 DUP2 DUP2 MSTORE PUSH1 0x20 ADD DUP3 DUP1 SLOAD PUSH2 0x529 SWAP1 PUSH2 0x1EDF JUMP JUMPDEST DUP1 ISZERO PUSH2 0x576 JUMPI DUP1 PUSH1 0x1F LT PUSH2 0x54B JUMPI PUSH2 0x100 DUP1 DUP4 SLOAD DIV MUL DUP4 MSTORE SWAP2 PUSH1 0x20 ADD SWAP2 PUSH2 0x576 JUMP JUMPDEST DUP3 ADD SWAP2 SWAP1 PUSH1 0x0 MSTORE PUSH1 0x20 PUSH1 0x0 KECCAK256 SWAP1 JUMPDEST DUP2 SLOAD DUP2 MSTORE SWAP1 PUSH1 0x1 ADD SWAP1 PUSH1 0x20 ADD DUP1 DUP4 GT PUSH2 0x559 JUMPI DUP3 SWAP1 SUB PUSH1 0x1F AND DUP3 ADD SWAP2 JUMPDEST POP POP POP POP POP DUP2 MSTORE PUSH1 0x20 ADD SWAP1 PUSH1 0x1 ADD SWAP1 PUSH2 0x4DE JUMP JUMPDEST POP POP POP POP DUP2 MSTORE POP POP DUP5 DUP5 DUP2 MLOAD DUP2 LT PUSH2 0x5A5 JUMPI PUSH2 0x5A4 PUSH2 0x1E2E JUMP JUMPDEST JUMPDEST PUSH1 0x20 MUL PUSH1 0x20 ADD ADD DUP2 SWAP1 MSTORE POP DUP3 DUP1 PUSH2 0x5BB SWAP1 PUSH2 0x1FEE JUMP JUMPDEST SWAP4 POP POP PUSH2 0x5D0 JUMP JUMPDEST DUP1 DUP1 PUSH1 0x1 ADD SWAP2 POP POP PUSH2 0x1DC JUMP JUMPDEST POP DUP1 DUP1 PUSH1 0x1 ADD SWAP2 POP POP PUSH2 0x1CC JUMP JUMPDEST POP PUSH1 0x0 DUP2 PUSH8 0xFFFFFFFFFFFFFFFF DUP2 GT ISZERO PUSH2 0x5FB JUMPI PUSH2 0x5FA PUSH2 0x15FB JUMP JUMPDEST JUMPDEST PUSH1 0x40 MLOAD SWAP1 DUP1 DUP3 MSTORE DUP1 PUSH1 0x20 MUL PUSH1 0x20 ADD DUP3 ADD PUSH1 0x40 MSTORE DUP1 ISZERO PUSH2 0x634 JUMPI DUP2 PUSH1 0x20 ADD JUMPDEST PUSH2 0x621 PUSH2 0x148D JUMP JUMPDEST DUP2 MSTORE PUSH1 0x20 ADD SWAP1 PUSH1 0x1 SWAP1 SUB SWAP1 DUP2 PUSH2 0x619 JUMPI SWAP1 POP JUMPDEST POP SWAP1 POP PUSH1 0x0 JUMPDEST DUP3 DUP2 LT ISZERO PUSH2 0x688 JUMPI DUP4 DUP2 DUP2 MLOAD DUP2 LT PUSH2 0x655 JUMPI PUSH2 0x654 PUSH2 0x1E2E JUMP JUMPDEST JUMPDEST PUSH1 0x20 MUL PUSH1 0x20 ADD ADD MLOAD DUP3 DUP3 DUP2 MLOAD DUP2 LT PUSH2 0x670 JUMPI PUSH2 0x66F PUSH2 0x1E2E JUMP JUMPDEST JUMPDEST PUSH1 0x20 MUL PUSH1 0x20 ADD ADD DUP2 SWAP1 MSTORE POP DUP1 DUP1 PUSH1 0x1 ADD SWAP2 POP POP PUSH2 0x63A JUMP JUMPDEST POP DUP1 SWAP4 POP POP POP POP SWAP2 SWAP1 POP JUMP JUMPDEST PUSH1 0x60 PUSH1 0x0 DUP1 DUP4 PUSH20 0xFFFFFFFFFFFFFFFFFFFFFFFFFFFFFFFFFFFFFFFF AND PUSH20 0xFFFFFFFFFFFFFFFFFFFFFFFFFFFFFFFFFFFFFFFF AND DUP2 MSTORE PUSH1 0x20 ADD SWAP1 DUP2 MSTORE PUSH1 0x20 ADD PUSH1 0x0 KECCAK256 DUP1 SLOAD DUP1 PUSH1 0x20 MUL PUSH1 0x20 ADD PUSH1 0x40 MLOAD SWAP1 DUP2 ADD PUSH1 0x40 MSTORE DUP1 SWAP3 SWAP2 SWAP1 DUP2 DUP2 MSTORE PUSH1 0x20 ADD PUSH1 0x0 SWAP1 JUMPDEST DUP3 DUP3 LT ISZERO PUSH2 0x9EC JUMPI DUP4 DUP3 SWAP1 PUSH1 0x0 MSTORE PUSH1 0x20 PUSH1 0x0 KECCAK256 SWAP1 PUSH1 0x6 MUL ADD PUSH1 0x40 MLOAD DUP1 PUSH1 0xC0 ADD PUSH1 0x40 MSTORE SWAP1 DUP2 PUSH1 0x0 DUP3 ADD PUSH1 0x0 SWAP1 SLOAD SWAP1 PUSH2 0x100 EXP SWAP1 DIV PUSH20 0xFFFFFFFFFFFFFFFFFFFFFFFFFFFFFFFFFFFFFFFF AND PUSH20 0xFFFFFFFFFFFFFFFFFFFFFFFFFFFFFFFFFFFFFFFF AND PUSH20 0xFFFFFFFFFFFFFFFFFFFFFFFFFFFFFFFFFFFFFFFF AND DUP2 MSTORE PUSH1 0x20 ADD PUSH1 0x1 DUP3 ADD PUSH1 0x0 SWAP1 SLOAD SWAP1 PUSH2 0x100 EXP SWAP1 DIV PUSH20 0xFFFFFFFFFFFFFFFFFFFFFFFFFFFFFFFFFFFFFFFF AND PUSH20 0xFFFFFFFFFFFFFFFFFFFFFFFFFFFFFFFFFFFFFFFF AND PUSH20 0xFFFFFFFFFFFFFFFFFFFFFFFFFFFFFFFFFFFFFFFF AND DUP2 MSTORE PUSH1 0x20 ADD PUSH1 0x2 DUP3 ADD DUP1 SLOAD PUSH2 0x7D3 SWAP1 PUSH2 0x1EDF JUMP JUMPDEST DUP1 PUSH1 0x1F ADD PUSH1 0x20 DUP1 SWAP2 DIV MUL PUSH1 0x20 ADD PUSH1 0x40 MLOAD SWAP1 DUP2 ADD PUSH1 0x40 MSTORE DUP1 SWAP3 SWAP2 SWAP1 DUP2 DUP2 MSTORE PUSH1 0x20 ADD DUP3 DUP1 SLOAD PUSH2 0x7FF SWAP1 PUSH2 0x1EDF JUMP JUMPDEST DUP1 ISZERO PUSH2 0x84C JUMPI DUP1 PUSH1 0x1F LT PUSH2 0x821 JUMPI PUSH2 0x100 DUP1 DUP4 SLOAD DIV MUL DUP4 MSTORE SWAP2 PUSH1 0x20 ADD SWAP2 PUSH2 0x84C JUMP JUMPDEST DUP3 ADD SWAP2 SWAP1 PUSH1 0x0 MSTORE PUSH1 0x20 PUSH1 0x0 KECCAK256 SWAP1 JUMPDEST DUP2 SLOAD DUP2 MSTORE SWAP1 PUSH1 0x1 ADD SWAP1 PUSH1 0x20 ADD DUP1 DUP4 GT PUSH2 0x82F JUMPI DUP3 SWAP1 SUB PUSH1 0x1F AND DUP3 ADD SWAP2 JUMPDEST POP POP POP POP POP DUP2 MSTORE PUSH1 0x20 ADD PUSH1 0x3 DUP3 ADD DUP1 SLOAD PUSH2 0x865 SWAP1 PUSH2 0x1EDF JUMP JUMPDEST DUP1 PUSH1 0x1F ADD PUSH1 0x20 DUP1 SWAP2 DIV MUL PUSH1 0x20 ADD PUSH1 0x40 MLOAD SWAP1 DUP2 ADD PUSH1 0x40 MSTORE DUP1 SWAP3 SWAP2 SWAP1 DUP2 DUP2 MSTORE PUSH1 0x20 ADD DUP3 DUP1 SLOAD PUSH2 0x891 SWAP1 PUSH2 0x1EDF JUMP JUMPDEST DUP1 ISZERO PUSH2 0x8DE JUMPI DUP1 PUSH1 0x1F LT PUSH2 0x8B3 JUMPI PUSH2 0x100 DUP1 DUP4 SLOAD DIV MUL DUP4 MSTORE SWAP2 PUSH1 0x20 ADD SWAP2 PUSH2 0x8DE JUMP JUMPDEST DUP3 ADD SWAP2 SWAP1 PUSH1 0x0 MSTORE PUSH1 0x20 PUSH1 0x0 KECCAK256 SWAP1 JUMPDEST DUP2 SLOAD DUP2 MSTORE SWAP1 PUSH1 0x1 ADD SWAP1 PUSH1 0x20 ADD DUP1 DUP4 GT PUSH2 0x8C1 JUMPI DUP3 SWAP1 SUB PUSH1 0x1F AND DUP3 ADD SWAP2 JUMPDEST POP POP POP POP POP DUP2 MSTORE PUSH1 0x20 ADD PUSH1 0x4 DUP3 ADD PUSH1 0x0 SWAP1 SLOAD SWAP1 PUSH2 0x100 EXP SWAP1 DIV PUSH1 0xFF AND PUSH1 0xFF AND PUSH1 0xFF AND DUP2 MSTORE PUSH1 0x20 ADD PUSH1 0x5 DUP3 ADD DUP1 SLOAD DUP1 PUSH1 0x20 MUL PUSH1 0x20 ADD PUSH1 0x40 MLOAD SWAP1 DUP2 ADD PUSH1 0x40 MSTORE DUP1 SWAP3 SWAP2 SWAP1 DUP2 DUP2 MSTORE PUSH1 0x20 ADD PUSH1 0x0 SWAP1 JUMPDEST DUP3 DUP3 LT ISZERO PUSH2 0x9D5 JUMPI DUP4 DUP3 SWAP1 PUSH1 0x0 MSTORE PUSH1 0x20 PUSH1 0x0 KECCAK256 ADD DUP1 SLOAD PUSH2 0x948 SWAP1 PUSH2 0x1EDF JUMP JUMPDEST DUP1 PUSH1 0x1F ADD PUSH1 0x20 DUP1 SWAP2 DIV MUL PUSH1 0x20 ADD PUSH1 0x40 MLOAD SWAP1 DUP2 ADD PUSH1 0x40 MSTORE DUP1 SWAP3 SWAP2 SWAP1 DUP2 DUP2 MSTORE PUSH1 0x20 ADD DUP3 DUP1 SLOAD PUSH2 0x974 SWAP1 PUSH2 0x1EDF JUMP JUMPDEST DUP1 ISZERO PUSH2 0x9C1 JUMPI DUP1 PUSH1 0x1F LT PUSH2 0x996 JUMPI PUSH2 0x100 DUP1 DUP4 SLOAD DIV MUL DUP4 MSTORE SWAP2 PUSH1 0x20 ADD SWAP2 PUSH2 0x9C1 JUMP JUMPDEST DUP3 ADD SWAP2 SWAP1 PUSH1 0x0 MSTORE PUSH1 0x20 PUSH1 0x0 KECCAK256 SWAP1 JUMPDEST DUP2 SLOAD DUP2 MSTORE SWAP1 PUSH1 0x1 ADD SWAP1 PUSH1 0x20 ADD DUP1 DUP4 GT PUSH2 0x9A4 JUMPI DUP3 SWAP1 SUB PUSH1 0x1F AND DUP3 ADD SWAP2 JUMPDEST POP POP POP POP POP DUP2 MSTORE PUSH1 0x20 ADD SWAP1 PUSH1 0x1 ADD SWAP1 PUSH2 0x929 JUMP JUMPDEST POP POP POP POP DUP2 MSTORE POP POP DUP2 MSTORE PUSH1 0x20 ADD SWAP1 PUSH1 0x1 ADD SWAP1 PUSH2 0x6F4 JUMP JUMPDEST POP POP POP POP SWAP1 POP SWAP2 SWAP1 POP JUMP JUMPDEST PUSH1 0x0 PUSH1 0x20 MSTORE DUP2 PUSH1 0x0 MSTORE PUSH1 0x40 PUSH1 0x0 KECCAK256 DUP2 DUP2 SLOAD DUP2 LT PUSH2 0xA13 JUMPI PUSH1 0x0 DUP1 REVERT JUMPDEST SWAP1 PUSH1 0x0 MSTORE PUSH1 0x20 PUSH1 0x0 KECCAK256 SWAP1 PUSH1 0x6 MUL ADD PUSH1 0x0 SWAP2 POP SWAP2 POP POP DUP1 PUSH1 0x0 ADD PUSH1 0x0 SWAP1 SLOAD SWAP1 PUSH2 0x100 EXP SWAP1 DIV PUSH20 0xFFFFFFFFFFFFFFFFFFFFFFFFFFFFFFFFFFFFFFFF AND SWAP1 DUP1 PUSH1 0x1 ADD PUSH1 0x0 SWAP1 SLOAD SWAP1 PUSH2 0x100 EXP SWAP1 DIV PUSH20 0xFFFFFFFFFFFFFFFFFFFFFFFFFFFFFFFFFFFFFFFF AND SWAP1 DUP1 PUSH1 0x2 ADD DUP1 SLOAD PUSH2 0xA83 SWAP1 PUSH2 0x1EDF JUMP JUMPDEST DUP1 PUSH1 0x1F ADD PUSH1 0x20 DUP1 SWAP2 DIV MUL PUSH1 0x20 ADD PUSH1 0x40 MLOAD SWAP1 DUP2 ADD PUSH1 0x40 MSTORE DUP1 SWAP3 SWAP2 SWAP1 DUP2 DUP2 MSTORE PUSH1 0x20 ADD DUP3 DUP1 SLOAD PUSH2 0xAAF SWAP1 PUSH2 0x1EDF JUMP JUMPDEST DUP1 ISZERO PUSH2 0xAFC JUMPI DUP1 PUSH1 0x1F LT PUSH2 0xAD1 JUMPI PUSH2 0x100 DUP1 DUP4 SLOAD DIV MUL DUP4 MSTORE SWAP2 PUSH1 0x20 ADD SWAP2 PUSH2 0xAFC JUMP JUMPDEST DUP3 ADD SWAP2 SWAP1 PUSH1 0x0 MSTORE PUSH1 0x20 PUSH1 0x0 KECCAK256 SWAP1 JUMPDEST DUP2 SLOAD DUP2 MSTORE SWAP1 PUSH1 0x1 ADD SWAP1 PUSH1 0x20 ADD DUP1 DUP4 GT PUSH2 0xADF JUMPI DUP3 SWAP1 SUB PUSH1 0x1F AND DUP3 ADD SWAP2 JUMPDEST POP POP POP POP POP SWAP1 DUP1 PUSH1 0x3 ADD DUP1 SLOAD PUSH2 0xB11 SWAP1 PUSH2 0x1EDF JUMP JUMPDEST DUP1 PUSH1 0x1F ADD PUSH1 0x20 DUP1 SWAP2 DIV MUL PUSH1 0x20 ADD PUSH1 0x40 MLOAD SWAP1 DUP2 ADD PUSH1 0x40 MSTORE DUP1 SWAP3 SWAP2 SWAP1 DUP2 DUP2 MSTORE PUSH1 0x20 ADD DUP3 DUP1 SLOAD PUSH2 0xB3D SWAP1 PUSH2 0x1EDF JUMP JUMPDEST DUP1 ISZERO PUSH2 0xB8A JUMPI DUP1 PUSH1 0x1F LT PUSH2 0xB5F JUMPI PUSH2 0x100 DUP1 DUP4 SLOAD DIV MUL DUP4 MSTORE SWAP2 PUSH1 0x20 ADD SWAP2 PUSH2 0xB8A JUMP JUMPDEST DUP3 ADD SWAP2 SWAP1 PUSH1 0x0 MSTORE PUSH1 0x20 PUSH1 0x0 KECCAK256 SWAP1 JUMPDEST DUP2 SLOAD DUP2 MSTORE SWAP1 PUSH1 0x1 ADD SWAP1 PUSH1 0x20 ADD DUP1 DUP4 GT PUSH2 0xB6D JUMPI DUP3 SWAP1 SUB PUSH1 0x1F AND DUP3 ADD SWAP2 JUMPDEST POP POP POP POP POP SWAP1 DUP1 PUSH1 0x4 ADD PUSH1 0x0 SWAP1 SLOAD SWAP1 PUSH2 0x100 EXP SWAP1 DIV PUSH1 0xFF AND SWAP1 POP DUP6 JUMP JUMPDEST PUSH1 0x60 PUSH1 0x1 DUP1 SLOAD DUP1 PUSH1 0x20 MUL PUSH1 0x20 ADD PUSH1 0x40 MLOAD SWAP1 DUP2 ADD PUSH1 0x40 MSTORE DUP1 SWAP3 SWAP2 SWAP1 DUP2 DUP2 MSTORE PUSH1 0x20 ADD PUSH1 0x0 SWAP1 JUMPDEST DUP3 DUP3 LT ISZERO PUSH2 0xEC3 JUMPI DUP4 DUP3 SWAP1 PUSH1 0x0 MSTORE PUSH1 0x20 PUSH1 0x0 KECCAK256 SWAP1 PUSH1 0x6 MUL ADD PUSH1 0x40 MLOAD DUP1 PUSH1 0xC0 ADD PUSH1 0x40 MSTORE SWAP1 DUP2 PUSH1 0x0 DUP3 ADD PUSH1 0x0 SWAP1 SLOAD SWAP1 PUSH2 0x100 EXP SWAP1 DIV PUSH20 0xFFFFFFFFFFFFFFFFFFFFFFFFFFFFFFFFFFFFFFFF AND PUSH20 0xFFFFFFFFFFFFFFFFFFFFFFFFFFFFFFFFFFFFFFFF AND PUSH20 0xFFFFFFFFFFFFFFFFFFFFFFFFFFFFFFFFFFFFFFFF AND DUP2 MSTORE PUSH1 0x20 ADD PUSH1 0x1 DUP3 ADD PUSH1 0x0 SWAP1 SLOAD SWAP1 PUSH2 0x100 EXP SWAP1 DIV PUSH20 0xFFFFFFFFFFFFFFFFFFFFFFFFFFFFFFFFFFFFFFFF AND PUSH20 0xFFFFFFFFFFFFFFFFFFFFFFFFFFFFFFFFFFFFFFFF AND PUSH20 0xFFFFFFFFFFFFFFFFFFFFFFFFFFFFFFFFFFFFFFFF AND DUP2 MSTORE PUSH1 0x20 ADD PUSH1 0x2 DUP3 ADD DUP1 SLOAD PUSH2 0xCAA SWAP1 PUSH2 0x1EDF JUMP JUMPDEST DUP1 PUSH1 0x1F ADD PUSH1 0x20 DUP1 SWAP2 DIV MUL PUSH1 0x20 ADD PUSH1 0x40 MLOAD SWAP1 DUP2 ADD PUSH1 0x40 MSTORE DUP1 SWAP3 SWAP2 SWAP1 DUP2 DUP2 MSTORE PUSH1 0x20 ADD DUP3 DUP1 SLOAD PUSH2 0xCD6 SWAP1 PUSH2 0x1EDF JUMP JUMPDEST DUP1 ISZERO PUSH2 0xD23 JUMPI DUP1 PUSH1 0x1F LT PUSH2 0xCF8 JUMPI PUSH2 0x100 DUP1 DUP4 SLOAD DIV MUL DUP4 MSTORE SWAP2 PUSH1 0x20 ADD SWAP2 PUSH2 0xD23 JUMP JUMPDEST DUP3 ADD SWAP2 SWAP1 PUSH1 0x0 MSTORE PUSH1 0x20 PUSH1 0x0 KECCAK256 SWAP1 JUMPDEST DUP2 SLOAD DUP2 MSTORE SWAP1 PUSH1 0x1 ADD SWAP1 PUSH1 0x20 ADD DUP1 DUP4 GT PUSH2 0xD06 JUMPI DUP3 SWAP1 SUB PUSH1 0x1F AND DUP3 ADD SWAP2 JUMPDEST POP POP POP POP POP DUP2 MSTORE PUSH1 0x20 ADD PUSH1 0x3 DUP3 ADD DUP1 SLOAD PUSH2 0xD3C SWAP1 PUSH2 0x1EDF JUMP JUMPDEST DUP1 PUSH1 0x1F ADD PUSH1 0x20 DUP1 SWAP2 DIV MUL PUSH1 0x20 ADD PUSH1 0x40 MLOAD SWAP1 DUP2 ADD PUSH1 0x40 MSTORE DUP1 SWAP3 SWAP2 SWAP1 DUP2 DUP2 MSTORE PUSH1 0x20 ADD DUP3 DUP1 SLOAD PUSH2 0xD68 SWAP1 PUSH2 0x1EDF JUMP JUMPDEST DUP1 ISZERO PUSH2 0xDB5 JUMPI DUP1 PUSH1 0x1F LT PUSH2 0xD8A JUMPI PUSH2 0x100 DUP1 DUP4 SLOAD DIV MUL DUP4 MSTORE SWAP2 PUSH1 0x20 ADD SWAP2 PUSH2 0xDB5 JUMP JUMPDEST DUP3 ADD SWAP2 SWAP1 PUSH1 0x0 MSTORE PUSH1 0x20 PUSH1 0x0 KECCAK256 SWAP1 JUMPDEST DUP2 SLOAD DUP2 MSTORE SWAP1 PUSH1 0x1 ADD SWAP1 PUSH1 0x20 ADD DUP1 DUP4 GT PUSH2 0xD98 JUMPI DUP3 SWAP1 SUB PUSH1 0x1F AND DUP3 ADD SWAP2 JUMPDEST POP POP POP POP POP DUP2 MSTORE PUSH1 0x20 ADD PUSH1 0x4 DUP3 ADD PUSH1 0x0 SWAP1 SLOAD SWAP1 PUSH2 0x100 EXP SWAP1 DIV PUSH1 0xFF AND PUSH1 0xFF AND PUSH1 0xFF AND DUP2 MSTORE PUSH1 0x20 ADD PUSH1 0x5 DUP3 ADD DUP1 SLOAD DUP1 PUSH1 0x20 MUL PUSH1 0x20 ADD PUSH1 0x40 MLOAD SWAP1 DUP2 ADD PUSH1 0x40 MSTORE DUP1 SWAP3 SWAP2 SWAP1 DUP2 DUP2 MSTORE PUSH1 0x20 ADD PUSH1 0x0 SWAP1 JUMPDEST DUP3 DUP3 LT ISZERO PUSH2 0xEAC JUMPI DUP4 DUP3 SWAP1 PUSH1 0x0 MSTORE PUSH1 0x20 PUSH1 0x0 KECCAK256 ADD DUP1 SLOAD PUSH2 0xE1F SWAP1 PUSH2 0x1EDF JUMP JUMPDEST DUP1 PUSH1 0x1F ADD PUSH1 0x20 DUP1 SWAP2 DIV MUL PUSH1 0x20 ADD PUSH1 0x40 MLOAD SWAP1 DUP2 ADD PUSH1 0x40 MSTORE DUP1 SWAP3 SWAP2 SWAP1 DUP2 DUP2 MSTORE PUSH1 0x20 ADD DUP3 DUP1 SLOAD PUSH2 0xE4B SWAP1 PUSH2 0x1EDF JUMP JUMPDEST DUP1 ISZERO PUSH2 0xE98 JUMPI DUP1 PUSH1 0x1F LT PUSH2 0xE6D JUMPI PUSH2 0x100 DUP1 DUP4 SLOAD DIV MUL DUP4 MSTORE SWAP2 PUSH1 0x20 ADD SWAP2 PUSH2 0xE98 JUMP JUMPDEST DUP3 ADD SWAP2 SWAP1 PUSH1 0x0 MSTORE PUSH1 0x20 PUSH1 0x0 KECCAK256 SWAP1 JUMPDEST DUP2 SLOAD DUP2 MSTORE SWAP1 PUSH1 0x1 ADD SWAP1 PUSH1 0x20 ADD DUP1 DUP4 GT PUSH2 0xE7B JUMPI DUP3 SWAP1 SUB PUSH1 0x1F AND DUP3 ADD SWAP2 JUMPDEST POP POP POP POP POP DUP2 MSTORE PUSH1 0x20 ADD SWAP1 PUSH1 0x1 ADD SWAP1 PUSH2 0xE00 JUMP JUMPDEST POP POP POP POP DUP2 MSTORE POP POP DUP2 MSTORE PUSH1 0x20 ADD SWAP1 PUSH1 0x1 ADD SWAP1 PUSH2 0xBCB JUMP JUMPDEST POP POP POP POP SWAP1 POP SWAP1 JUMP JUMPDEST CALLER PUSH20 0xFFFFFFFFFFFFFFFFFFFFFFFFFFFFFFFFFFFFFFFF AND DUP6 PUSH20 0xFFFFFFFFFFFFFFFFFFFFFFFFFFFFFFFFFFFFFFFF AND SUB PUSH2 0xF3A JUMPI PUSH1 0x40 MLOAD PUSH32 0x8C379A000000000000000000000000000000000000000000000000000000000 DUP2 MSTORE PUSH1 0x4 ADD PUSH2 0xF31 SWAP1 PUSH2 0x2082 JUMP JUMPDEST PUSH1 0x40 MLOAD DUP1 SWAP2 SUB SWAP1 REVERT JUMPDEST PUSH1 0x1 DUP3 PUSH1 0xFF AND LT ISZERO DUP1 ISZERO PUSH2 0xF52 JUMPI POP PUSH1 0x5 DUP3 PUSH1 0xFF AND GT ISZERO JUMPDEST PUSH2 0xF91 JUMPI PUSH1 0x40 MLOAD PUSH32 0x8C379A000000000000000000000000000000000000000000000000000000000 DUP2 MSTORE PUSH1 0x4 ADD PUSH2 0xF88 SWAP1 PUSH2 0x20EE JUMP JUMPDEST PUSH1 0x40 MLOAD DUP1 SWAP2 SUB SWAP1 REVERT JUMPDEST PUSH1 0x0 PUSH1 0x40 MLOAD DUP1 PUSH1 0xC0 ADD PUSH1 0x40 MSTORE DUP1 CALLER PUSH20 0xFFFFFFFFFFFFFFFFFFFFFFFFFFFFFFFFFFFFFFFF AND DUP2 MSTORE PUSH1 0x20 ADD DUP8 PUSH20 0xFFFFFFFFFFFFFFFFFFFFFFFFFFFFFFFFFFFFFFFF AND DUP2 MSTORE PUSH1 0x20 ADD DUP7 DUP2 MSTORE PUSH1 0x20 ADD DUP6 DUP2 MSTORE PUSH1 0x20 ADD DUP5 PUSH1 0xFF AND DUP2 MSTORE PUSH1 0x20 ADD DUP4 DUP2 MSTORE POP SWAP1 POP PUSH1 0x0 DUP1 DUP8 PUSH20 0xFFFFFFFFFFFFFFFFFFFFFFFFFFFFFFFFFFFFFFFF AND PUSH20 0xFFFFFFFFFFFFFFFFFFFFFFFFFFFFFFFFFFFFFFFF AND DUP2 MSTORE PUSH1 0x20 ADD SWAP1 DUP2 MSTORE PUSH1 0x20 ADD PUSH1 0x0 KECCAK256 DUP2 SWAP1 DUP1 PUSH1 0x1 DUP2 SLOAD ADD DUP1 DUP3 SSTORE DUP1 SWAP2 POP POP PUSH1 0x1 SWAP1 SUB SWAP1 PUSH1 0x0 MSTORE PUSH1 0x20 PUSH1 0x0 KECCAK256 SWAP1 PUSH1 0x6 MUL ADD PUSH1 0x0 SWAP1 SWAP2 SWAP1 SWAP2 SWAP1 SWAP2 POP PUSH1 0x0 DUP3 ADD MLOAD DUP2 PUSH1 0x0 ADD PUSH1 0x0 PUSH2 0x100 EXP DUP2 SLOAD DUP2 PUSH20 0xFFFFFFFFFFFFFFFFFFFFFFFFFFFFFFFFFFFFFFFF MUL NOT AND SWAP1 DUP4 PUSH20 0xFFFFFFFFFFFFFFFFFFFFFFFFFFFFFFFFFFFFFFFF AND MUL OR SWAP1 SSTORE POP PUSH1 0x20 DUP3 ADD MLOAD DUP2 PUSH1 0x1 ADD PUSH1 0x0 PUSH2 0x100 EXP DUP2 SLOAD DUP2 PUSH20 0xFFFFFFFFFFFFFFFFFFFFFFFFFFFFFFFFFFFFFFFF MUL NOT AND SWAP1 DUP4 PUSH20 0xFFFFFFFFFFFFFFFFFFFFFFFFFFFFFFFFFFFFFFFF AND MUL OR SWAP1 SSTORE POP PUSH1 0x40 DUP3 ADD MLOAD DUP2 PUSH1 0x2 ADD SWAP1 DUP2 PUSH2 0x10FC SWAP2 SWAP1 PUSH2 0x22A5 JUMP JUMPDEST POP PUSH1 0x60 DUP3 ADD MLOAD DUP2 PUSH1 0x3 ADD SWAP1 DUP2 PUSH2 0x1112 SWAP2 SWAP1 PUSH2 0x22A5 JUMP JUMPDEST POP PUSH1 0x80 DUP3 ADD MLOAD DUP2 PUSH1 0x4 ADD PUSH1 0x0 PUSH2 0x100 EXP DUP2 SLOAD DUP2 PUSH1 0xFF MUL NOT AND SWAP1 DUP4 PUSH1 0xFF AND MUL OR SWAP1 SSTORE POP PUSH1 0xA0 DUP3 ADD MLOAD DUP2 PUSH1 0x5 ADD SWAP1 DUP1 MLOAD SWAP1 PUSH1 0x20 ADD SWAP1 PUSH2 0x1150 SWAP3 SWAP2 SWAP1 PUSH2 0x14F2 JUMP JUMPDEST POP POP POP PUSH1 0x1 DUP2 SWAP1 DUP1 PUSH1 0x1 DUP2 SLOAD ADD DUP1 DUP3 SSTORE DUP1 SWAP2 POP POP PUSH1 0x1 SWAP1 SUB SWAP1 PUSH1 0x0 MSTORE PUSH1 0x20 PUSH1 0x0 KECCAK256 SWAP1 PUSH1 0x6 MUL ADD PUSH1 0x0 SWAP1 SWAP2 SWAP1 SWAP2 SWAP1 SWAP2 POP PUSH1 0x0 DUP3 ADD MLOAD DUP2 PUSH1 0x0 ADD PUSH1 0x0 PUSH2 0x100 EXP DUP2 SLOAD DUP2 PUSH20 0xFFFFFFFFFFFFFFFFFFFFFFFFFFFFFFFFFFFFFFFF MUL NOT AND SWAP1 DUP4 PUSH20 0xFFFFFFFFFFFFFFFFFFFFFFFFFFFFFFFFFFFFFFFF AND MUL OR SWAP1 SSTORE POP PUSH1 0x20 DUP3 ADD MLOAD DUP2 PUSH1 0x1 ADD PUSH1 0x0 PUSH2 0x100 EXP DUP2 SLOAD DUP2 PUSH20 0xFFFFFFFFFFFFFFFFFFFFFFFFFFFFFFFFFFFFFFFF MUL NOT AND SWAP1 DUP4 PUSH20 0xFFFFFFFFFFFFFFFFFFFFFFFFFFFFFFFFFFFFFFFF AND MUL OR SWAP1 SSTORE POP PUSH1 0x40 DUP3 ADD MLOAD DUP2 PUSH1 0x2 ADD SWAP1 DUP2 PUSH2 0x1222 SWAP2 SWAP1 PUSH2 0x22A5 JUMP JUMPDEST POP PUSH1 0x60 DUP3 ADD MLOAD DUP2 PUSH1 0x3 ADD SWAP1 DUP2 PUSH2 0x1238 SWAP2 SWAP1 PUSH2 0x22A5 JUMP JUMPDEST POP PUSH1 0x80 DUP3 ADD MLOAD DUP2 PUSH1 0x4 ADD PUSH1 0x0 PUSH2 0x100 EXP DUP2 SLOAD DUP2 PUSH1 0xFF MUL NOT AND SWAP1 DUP4 PUSH1 0xFF AND MUL OR SWAP1 SSTORE POP PUSH1 0xA0 DUP3 ADD MLOAD DUP2 PUSH1 0x5 ADD SWAP1 DUP1 MLOAD SWAP1 PUSH1 0x20 ADD SWAP1 PUSH2 0x1276 SWAP3 SWAP2 SWAP1 PUSH2 0x14F2 JUMP JUMPDEST POP POP POP DUP6 PUSH20 0xFFFFFFFFFFFFFFFFFFFFFFFFFFFFFFFFFFFFFFFF AND CALLER PUSH20 0xFFFFFFFFFFFFFFFFFFFFFFFFFFFFFFFFFFFFFFFF AND PUSH32 0x9DD7B2D835D267AA71F4D73E150BD02FF1FF2612BF6CFE2D31B2D6CCFDAAF7D DUP8 DUP7 DUP7 PUSH1 0x40 MLOAD PUSH2 0x12DA SWAP4 SWAP3 SWAP2 SWAP1 PUSH2 0x23FD JUMP JUMPDEST PUSH1 0x40 MLOAD DUP1 SWAP2 SUB SWAP1 LOG3 POP POP POP POP POP POP JUMP JUMPDEST PUSH1 0x1 DUP2 DUP2 SLOAD DUP2 LT PUSH2 0x12FA JUMPI PUSH1 0x0 DUP1 REVERT JUMPDEST SWAP1 PUSH1 0x0 MSTORE PUSH1 0x20 PUSH1 0x0 KECCAK256 SWAP1 PUSH1 0x6 MUL ADD PUSH1 0x0 SWAP2 POP SWAP1 POP DUP1 PUSH1 0x0 ADD PUSH1 0x0 SWAP1 SLOAD SWAP1 PUSH2 0x100 EXP SWAP1 DIV PUSH20 0xFFFFFFFFFFFFFFFFFFFFFFFFFFFFFFFFFFFFFFFF AND SWAP1 DUP1 PUSH1 0x1 ADD PUSH1 0x0 SWAP1 SLOAD SWAP1 PUSH2 0x100 EXP SWAP1 DIV PUSH20 0xFFFFFFFFFFFFFFFFFFFFFFFFFFFFFFFFFFFFFFFF AND SWAP1 DUP1 PUSH1 0x2 ADD DUP1 SLOAD PUSH2 0x1369 SWAP1 PUSH2 0x1EDF JUMP JUMPDEST DUP1 PUSH1 0x1F ADD PUSH1 0x20 DUP1 SWAP2 DIV MUL PUSH1 0x20 ADD PUSH1 0x40 MLOAD SWAP1 DUP2 ADD PUSH1 0x40 MSTORE DUP1 SWAP3 SWAP2 SWAP1 DUP2 DUP2 MSTORE PUSH1 0x20 ADD DUP3 DUP1 SLOAD PUSH2 0x1395 SWAP1 PUSH2 0x1EDF JUMP JUMPDEST DUP1 ISZERO PUSH2 0x13E2 JUMPI DUP1 PUSH1 0x1F LT PUSH2 0x13B7 JUMPI PUSH2 0x100 DUP1 DUP4 SLOAD DIV MUL DUP4 MSTORE SWAP2 PUSH1 0x20 ADD SWAP2 PUSH2 0x13E2 JUMP JUMPDEST DUP3 ADD SWAP2 SWAP1 PUSH1 0x0 MSTORE PUSH1 0x20 PUSH1 0x0 KECCAK256 SWAP1 JUMPDEST DUP2 SLOAD DUP2 MSTORE SWAP1 PUSH1 0x1 ADD SWAP1 PUSH1 0x20 ADD DUP1 DUP4 GT PUSH2 0x13C5 JUMPI DUP3 SWAP1 SUB PUSH1 0x1F AND DUP3 ADD SWAP2 JUMPDEST POP POP POP POP POP SWAP1 DUP1 PUSH1 0x3 ADD DUP1 SLOAD PUSH2 0x13F7 SWAP1 PUSH2 0x1EDF JUMP JUMPDEST DUP1 PUSH1 0x1F ADD PUSH1 0x20 DUP1 SWAP2 DIV MUL PUSH1 0x20 ADD PUSH1 0x40 MLOAD SWAP1 DUP2 ADD PUSH1 0x40 MSTORE DUP1 SWAP3 SWAP2 SWAP1 DUP2 DUP2 MSTORE PUSH1 0x20 ADD DUP3 DUP1 SLOAD PUSH2 0x1423 SWAP1 PUSH2 0x1EDF JUMP JUMPDEST DUP1 ISZERO PUSH2 0x1470 JUMPI DUP1 PUSH1 0x1F LT PUSH2 0x1445 JUMPI PUSH2 0x100 DUP1 DUP4 SLOAD DIV MUL DUP4 MSTORE SWAP2 PUSH1 0x20 ADD SWAP2 PUSH2 0x1470 JUMP JUMPDEST DUP3 ADD SWAP2 SWAP1 PUSH1 0x0 MSTORE PUSH1 0x20 PUSH1 0x0 KECCAK256 SWAP1 JUMPDEST DUP2 SLOAD DUP2 MSTORE SWAP1 PUSH1 0x1 ADD SWAP1 PUSH1 0x20 ADD DUP1 DUP4 GT PUSH2 0x1453 JUMPI DUP3 SWAP1 SUB PUSH1 0x1F AND DUP3 ADD SWAP2 JUMPDEST POP POP POP POP POP SWAP1 DUP1 PUSH1 0x4 ADD PUSH1 0x0 SWAP1 SLOAD SWAP1 PUSH2 0x100 EXP SWAP1 DIV PUSH1 0xFF AND SWAP1 POP DUP6 JUMP JUMPDEST PUSH1 0x40 MLOAD DUP1 PUSH1 0xC0 ADD PUSH1 0x40 MSTORE DUP1 PUSH1 0x0 PUSH20 0xFFFFFFFFFFFFFFFFFFFFFFFFFFFFFFFFFFFFFFFF AND DUP2 MSTORE PUSH1 0x20 ADD PUSH1 0x0 PUSH20 0xFFFFFFFFFFFFFFFFFFFFFFFFFFFFFFFFFFFFFFFF AND DUP2 MSTORE PUSH1 0x20 ADD PUSH1 0x60 DUP2 MSTORE PUSH1 0x20 ADD PUSH1 0x60 DUP2 MSTORE PUSH1 0x20 ADD PUSH1 0x0 PUSH1 0xFF AND DUP2 MSTORE PUSH1 0x20 ADD PUSH1 0x60 DUP2 MSTORE POP SWAP1 JUMP JUMPDEST DUP3 DUP1 SLOAD DUP3 DUP3 SSTORE SWAP1 PUSH1 0x0 MSTORE PUSH1 0x20 PUSH1 0x0 KECCAK256 SWAP1 DUP2 ADD SWAP3 DUP3 ISZERO PUSH2 0x153A JUMPI SWAP2 PUSH1 0x20 MUL DUP3 ADD JUMPDEST DUP3 DUP2 GT ISZERO PUSH2 0x1539 JUMPI DUP3 MLOAD DUP3 SWAP1 DUP2 PUSH2 0x1529 SWAP2 SWAP1 PUSH2 0x22A5 JUMP JUMPDEST POP SWAP2 PUSH1 0x20 ADD SWAP2 SWAP1 PUSH1 0x1 ADD SWAP1 PUSH2 0x1512 JUMP JUMPDEST JUMPDEST POP SWAP1 POP PUSH2 0x1547 SWAP2 SWAP1 PUSH2 0x154B JUMP JUMPDEST POP SWAP1 JUMP JUMPDEST JUMPDEST DUP1 DUP3 GT ISZERO PUSH2 0x156B JUMPI PUSH1 0x0 DUP2 DUP2 PUSH2 0x1562 SWAP2 SWAP1 PUSH2 0x156F JUMP JUMPDEST POP PUSH1 0x1 ADD PUSH2 0x154C JUMP JUMPDEST POP SWAP1 JUMP JUMPDEST POP DUP1 SLOAD PUSH2 0x157B SWAP1 PUSH2 0x1EDF JUMP JUMPDEST PUSH1 0x0 DUP3 SSTORE DUP1 PUSH1 0x1F LT PUSH2 0x158D JUMPI POP PUSH2 0x15AC JUMP JUMPDEST PUSH1 0x1F ADD PUSH1 0x20 SWAP1 DIV SWAP1 PUSH1 0x0 MSTORE PUSH1 0x20 PUSH1 0x0 KECCAK256 SWAP1 DUP2 ADD SWAP1 PUSH2 0x15AB SWAP2 SWAP1 PUSH2 0x15AF JUMP JUMPDEST JUMPDEST POP JUMP JUMPDEST JUMPDEST DUP1 DUP3 GT ISZERO PUSH2 0x15C8 JUMPI PUSH1 0x0 DUP2 PUSH1 0x0 SWAP1 SSTORE POP PUSH1 0x1 ADD PUSH2 0x15B0 JUMP JUMPDEST POP SWAP1 JUMP JUMPDEST PUSH1 0x0 PUSH1 0x40 MLOAD SWAP1 POP SWAP1 JUMP JUMPDEST PUSH1 0x0 DUP1 REVERT JUMPDEST PUSH1 0x0 DUP1 REVERT JUMPDEST PUSH1 0x0 DUP1 REVERT JUMPDEST PUSH1 0x0 DUP1 REVERT JUMPDEST PUSH1 0x0 PUSH1 0x1F NOT PUSH1 0x1F DUP4 ADD AND SWAP1 POP SWAP2 SWAP1 POP JUMP JUMPDEST PUSH32 0x4E487B7100000000000000000000000000000000000000000000000000000000 PUSH1 0x0 MSTORE PUSH1 0x41 PUSH1 0x4 MSTORE PUSH1 0x24 PUSH1 0x0 REVERT JUMPDEST PUSH2 0x1633 DUP3 PUSH2 0x15EA JUMP JUMPDEST DUP2 ADD DUP2 DUP2 LT PUSH8 0xFFFFFFFFFFFFFFFF DUP3 GT OR ISZERO PUSH2 0x1652 JUMPI PUSH2 0x1651 PUSH2 0x15FB JUMP JUMPDEST JUMPDEST DUP1 PUSH1 0x40 MSTORE POP POP POP JUMP JUMPDEST PUSH1 0x0 PUSH2 0x1665 PUSH2 0x15CC JUMP JUMPDEST SWAP1 POP PUSH2 0x1671 DUP3 DUP3 PUSH2 0x162A JUMP JUMPDEST SWAP2 SWAP1 POP JUMP JUMPDEST PUSH1 0x0 PUSH8 0xFFFFFFFFFFFFFFFF DUP3 GT ISZERO PUSH2 0x1691 JUMPI PUSH2 0x1690 PUSH2 0x15FB JUMP JUMPDEST JUMPDEST PUSH2 0x169A DUP3 PUSH2 0x15EA JUMP JUMPDEST SWAP1 POP PUSH1 0x20 DUP2 ADD SWAP1 POP SWAP2 SWAP1 POP JUMP JUMPDEST DUP3 DUP2 DUP4 CALLDATACOPY PUSH1 0x0 DUP4 DUP4 ADD MSTORE POP POP POP JUMP JUMPDEST PUSH1 0x0 PUSH2 0x16C9 PUSH2 0x16C4 DUP5 PUSH2 0x1676 JUMP JUMPDEST PUSH2 0x165B JUMP JUMPDEST SWAP1 POP DUP3 DUP2 MSTORE PUSH1 0x20 DUP2 ADD DUP5 DUP5 DUP5 ADD GT ISZERO PUSH2 0x16E5 JUMPI PUSH2 0x16E4 PUSH2 0x15E5 JUMP JUMPDEST JUMPDEST PUSH2 0x16F0 DUP5 DUP3 DUP6 PUSH2 0x16A7 JUMP JUMPDEST POP SWAP4 SWAP3 POP POP POP JUMP JUMPDEST PUSH1 0x0 DUP3 PUSH1 0x1F DUP4 ADD SLT PUSH2 0x170D JUMPI PUSH2 0x170C PUSH2 0x15E0 JUMP JUMPDEST JUMPDEST DUP2 CALLDATALOAD PUSH2 0x171D DUP5 DUP3 PUSH1 0x20 DUP7 ADD PUSH2 0x16B6 JUMP JUMPDEST SWAP2 POP POP SWAP3 SWAP2 POP POP JUMP JUMPDEST PUSH1 0x0 PUSH1 0x20 DUP3 DUP5 SUB SLT ISZERO PUSH2 0x173C JUMPI PUSH2 0x173B PUSH2 0x15D6 JUMP JUMPDEST JUMPDEST PUSH1 0x0 DUP3 ADD CALLDATALOAD PUSH8 0xFFFFFFFFFFFFFFFF DUP2 GT ISZERO PUSH2 0x175A JUMPI PUSH2 0x1759 PUSH2 0x15DB JUMP JUMPDEST JUMPDEST PUSH2 0x1766 DUP5 DUP3 DUP6 ADD PUSH2 0x16F8 JUMP JUMPDEST SWAP2 POP POP SWAP3 SWAP2 POP POP JUMP JUMPDEST PUSH1 0x0 DUP2 MLOAD SWAP1 POP SWAP2 SWAP1 POP JUMP JUMPDEST PUSH1 0x0 DUP3 DUP3 MSTORE PUSH1 0x20 DUP3 ADD SWAP1 POP SWAP3 SWAP2 POP POP JUMP JUMPDEST PUSH1 0x0 DUP2 SWAP1 POP PUSH1 0x20 DUP3 ADD SWAP1 POP SWAP2 SWAP1 POP JUMP JUMPDEST PUSH1 0x0 PUSH20 0xFFFFFFFFFFFFFFFFFFFFFFFFFFFFFFFFFFFFFFFF DUP3 AND SWAP1 POP SWAP2 SWAP1 POP JUMP JUMPDEST PUSH1 0x0 PUSH2 0x17C6 DUP3 PUSH2 0x179B JUMP JUMPDEST SWAP1 POP SWAP2 SWAP1 POP JUMP JUMPDEST PUSH2 0x17D6 DUP2 PUSH2 0x17BB JUMP JUMPDEST DUP3 MSTORE POP POP JUMP JUMPDEST PUSH1 0x0 DUP2 MLOAD SWAP1 POP SWAP2 SWAP1 POP JUMP JUMPDEST PUSH1 0x0 DUP3 DUP3 MSTORE PUSH1 0x20 DUP3 ADD SWAP1 POP SWAP3 SWAP2 POP POP JUMP JUMPDEST PUSH1 0x0 JUMPDEST DUP4 DUP2 LT ISZERO PUSH2 0x1816 JUMPI DUP1 DUP3 ADD MLOAD DUP2 DUP5 ADD MSTORE PUSH1 0x20 DUP2 ADD SWAP1 POP PUSH2 0x17FB JUMP JUMPDEST PUSH1 0x0 DUP5 DUP5 ADD MSTORE POP POP POP POP JUMP JUMPDEST PUSH1 0x0 PUSH2 0x182D DUP3 PUSH2 0x17DC JUMP JUMPDEST PUSH2 0x1837 DUP2 DUP6 PUSH2 0x17E7 JUMP JUMPDEST SWAP4 POP PUSH2 0x1847 DUP2 DUP6 PUSH1 0x20 DUP7 ADD PUSH2 0x17F8 JUMP JUMPDEST PUSH2 0x1850 DUP2 PUSH2 0x15EA JUMP JUMPDEST DUP5 ADD SWAP2 POP POP SWAP3 SWAP2 POP POP JUMP JUMPDEST PUSH1 0x0 PUSH1 0xFF DUP3 AND SWAP1 POP SWAP2 SWAP1 POP JUMP JUMPDEST PUSH2 0x1871 DUP2 PUSH2 0x185B JUMP JUMPDEST DUP3 MSTORE POP POP JUMP JUMPDEST PUSH1 0x0 DUP2 MLOAD SWAP1 POP SWAP2 SWAP1 POP JUMP JUMPDEST PUSH1 0x0 DUP3 DUP3 MSTORE PUSH1 0x20 DUP3 ADD SWAP1 POP SWAP3 SWAP2 POP POP JUMP JUMPDEST PUSH1 0x0 DUP2 SWAP1 POP PUSH1 0x20 DUP3 ADD SWAP1 POP SWAP2 SWAP1 POP JUMP JUMPDEST PUSH1 0x0 PUSH2 0x18AF DUP4 DUP4 PUSH2 0x1822 JUMP JUMPDEST SWAP1 POP SWAP3 SWAP2 POP POP JUMP JUMPDEST PUSH1 0x0 PUSH1 0x20 DUP3 ADD SWAP1 POP SWAP2 SWAP1 POP JUMP JUMPDEST PUSH1 0x0 PUSH2 0x18CF DUP3 PUSH2 0x1877 JUMP JUMPDEST PUSH2 0x18D9 DUP2 DUP6 PUSH2 0x1882 JUMP JUMPDEST SWAP4 POP DUP4 PUSH1 0x20 DUP3 MUL DUP6 ADD PUSH2 0x18EB DUP6 PUSH2 0x1893 JUMP JUMPDEST DUP1 PUSH1 0x0 JUMPDEST DUP6 DUP2 LT ISZERO PUSH2 0x1927 JUMPI DUP5 DUP5 SUB DUP10 MSTORE DUP2 MLOAD PUSH2 0x1908 DUP6 DUP3 PUSH2 0x18A3 JUMP JUMPDEST SWAP5 POP PUSH2 0x1913 DUP4 PUSH2 0x18B7 JUMP JUMPDEST SWAP3 POP PUSH1 0x20 DUP11 ADD SWAP10 POP POP PUSH1 0x1 DUP2 ADD SWAP1 POP PUSH2 0x18EF JUMP JUMPDEST POP DUP3 SWAP8 POP DUP8 SWAP6 POP POP POP POP POP POP SWAP3 SWAP2 POP POP JUMP JUMPDEST PUSH1 0x0 PUSH1 0xC0 DUP4 ADD PUSH1 0x0 DUP4 ADD MLOAD PUSH2 0x1951 PUSH1 0x0 DUP7 ADD DUP3 PUSH2 0x17CD JUMP JUMPDEST POP PUSH1 0x20 DUP4 ADD MLOAD PUSH2 0x1964 PUSH1 0x20 DUP7 ADD DUP3 PUSH2 0x17CD JUMP JUMPDEST POP PUSH1 0x40 DUP4 ADD MLOAD DUP5 DUP3 SUB PUSH1 0x40 DUP7 ADD MSTORE PUSH2 0x197C DUP3 DUP3 PUSH2 0x1822 JUMP JUMPDEST SWAP2 POP POP PUSH1 0x60 DUP4 ADD MLOAD DUP5 DUP3 SUB PUSH1 0x60 DUP7 ADD MSTORE PUSH2 0x1996 DUP3 DUP3 PUSH2 0x1822 JUMP JUMPDEST SWAP2 POP POP PUSH1 0x80 DUP4 ADD MLOAD PUSH2 0x19AB PUSH1 0x80 DUP7 ADD DUP3 PUSH2 0x1868 JUMP JUMPDEST POP PUSH1 0xA0 DUP4 ADD MLOAD DUP5 DUP3 SUB PUSH1 0xA0 DUP7 ADD MSTORE PUSH2 0x19C3 DUP3 DUP3 PUSH2 0x18C4 JUMP JUMPDEST SWAP2 POP POP DUP1 SWAP2 POP POP SWAP3 SWAP2 POP POP JUMP JUMPDEST PUSH1 0x0 PUSH2 0x19DC DUP4 DUP4 PUSH2 0x1939 JUMP JUMPDEST SWAP1 POP SWAP3 SWAP2 POP POP JUMP JUMPDEST PUSH1 0x0 PUSH1 0x20 DUP3 ADD SWAP1 POP SWAP2 SWAP1 POP JUMP JUMPDEST PUSH1 0x0 PUSH2 0x19FC DUP3 PUSH2 0x176F JUMP JUMPDEST PUSH2 0x1A06 DUP2 DUP6 PUSH2 0x177A JUMP JUMPDEST SWAP4 POP DUP4 PUSH1 0x20 DUP3 MUL DUP6 ADD PUSH2 0x1A18 DUP6 PUSH2 0x178B JUMP JUMPDEST DUP1 PUSH1 0x0 JUMPDEST DUP6 DUP2 LT ISZERO PUSH2 0x1A54 JUMPI DUP5 DUP5 SUB DUP10 MSTORE DUP2 MLOAD PUSH2 0x1A35 DUP6 DUP3 PUSH2 0x19D0 JUMP JUMPDEST SWAP5 POP PUSH2 0x1A40 DUP4 PUSH2 0x19E4 JUMP JUMPDEST SWAP3 POP PUSH1 0x20 DUP11 ADD SWAP10 POP POP PUSH1 0x1 DUP2 ADD SWAP1 POP PUSH2 0x1A1C JUMP JUMPDEST POP DUP3 SWAP8 POP DUP8 SWAP6 POP POP POP POP POP POP SWAP3 SWAP2 POP POP JUMP JUMPDEST PUSH1 0x0 PUSH1 0x20 DUP3 ADD SWAP1 POP DUP2 DUP2 SUB PUSH1 0x0 DUP4 ADD MSTORE PUSH2 0x1A80 DUP2 DUP5 PUSH2 0x19F1 JUMP JUMPDEST SWAP1 POP SWAP3 SWAP2 POP POP JUMP JUMPDEST PUSH2 0x1A91 DUP2 PUSH2 0x17BB JUMP JUMPDEST DUP2 EQ PUSH2 0x1A9C JUMPI PUSH1 0x0 DUP1 REVERT JUMPDEST POP JUMP JUMPDEST PUSH1 0x0 DUP2 CALLDATALOAD SWAP1 POP PUSH2 0x1AAE DUP2 PUSH2 0x1A88 JUMP JUMPDEST SWAP3 SWAP2 POP POP JUMP JUMPDEST PUSH1 0x0 PUSH1 0x20 DUP3 DUP5 SUB SLT ISZERO PUSH2 0x1ACA JUMPI PUSH2 0x1AC9 PUSH2 0x15D6 JUMP JUMPDEST JUMPDEST PUSH1 0x0 PUSH2 0x1AD8 DUP5 DUP3 DUP6 ADD PUSH2 0x1A9F JUMP JUMPDEST SWAP2 POP POP SWAP3 SWAP2 POP POP JUMP JUMPDEST PUSH1 0x0 DUP2 SWAP1 POP SWAP2 SWAP1 POP JUMP JUMPDEST PUSH2 0x1AF4 DUP2 PUSH2 0x1AE1 JUMP JUMPDEST DUP2 EQ PUSH2 0x1AFF JUMPI PUSH1 0x0 DUP1 REVERT JUMPDEST POP JUMP JUMPDEST PUSH1 0x0 DUP2 CALLDATALOAD SWAP1 POP PUSH2 0x1B11 DUP2 PUSH2 0x1AEB JUMP JUMPDEST SWAP3 SWAP2 POP POP JUMP JUMPDEST PUSH1 0x0 DUP1 PUSH1 0x40 DUP4 DUP6 SUB SLT ISZERO PUSH2 0x1B2E JUMPI PUSH2 0x1B2D PUSH2 0x15D6 JUMP JUMPDEST JUMPDEST PUSH1 0x0 PUSH2 0x1B3C DUP6 DUP3 DUP7 ADD PUSH2 0x1A9F JUMP JUMPDEST SWAP3 POP POP PUSH1 0x20 PUSH2 0x1B4D DUP6 DUP3 DUP7 ADD PUSH2 0x1B02 JUMP JUMPDEST SWAP2 POP POP SWAP3 POP SWAP3 SWAP1 POP JUMP JUMPDEST PUSH2 0x1B60 DUP2 PUSH2 0x17BB JUMP JUMPDEST DUP3 MSTORE POP POP JUMP JUMPDEST PUSH1 0x0 DUP3 DUP3 MSTORE PUSH1 0x20 DUP3 ADD SWAP1 POP SWAP3 SWAP2 POP POP JUMP JUMPDEST PUSH1 0x0 PUSH2 0x1B82 DUP3 PUSH2 0x17DC JUMP JUMPDEST PUSH2 0x1B8C DUP2 DUP6 PUSH2 0x1B66 JUMP JUMPDEST SWAP4 POP PUSH2 0x1B9C DUP2 DUP6 PUSH1 0x20 DUP7 ADD PUSH2 0x17F8 JUMP JUMPDEST PUSH2 0x1BA5 DUP2 PUSH2 0x15EA JUMP JUMPDEST DUP5 ADD SWAP2 POP POP SWAP3 SWAP2 POP POP JUMP JUMPDEST PUSH2 0x1BB9 DUP2 PUSH2 0x185B JUMP JUMPDEST DUP3 MSTORE POP POP JUMP JUMPDEST PUSH1 0x0 PUSH1 0xA0 DUP3 ADD SWAP1 POP PUSH2 0x1BD4 PUSH1 0x0 DUP4 ADD DUP9 PUSH2 0x1B57 JUMP JUMPDEST PUSH2 0x1BE1 PUSH1 0x20 DUP4 ADD DUP8 PUSH2 0x1B57 JUMP JUMPDEST DUP2 DUP2 SUB PUSH1 0x40 DUP4 ADD MSTORE PUSH2 0x1BF3 DUP2 DUP7 PUSH2 0x1B77 JUMP JUMPDEST SWAP1 POP DUP2 DUP2 SUB PUSH1 0x60 DUP4 ADD MSTORE PUSH2 0x1C07 DUP2 DUP6 PUSH2 0x1B77 JUMP JUMPDEST SWAP1 POP PUSH2 0x1C16 PUSH1 0x80 DUP4 ADD DUP5 PUSH2 0x1BB0 JUMP JUMPDEST SWAP7 SWAP6 POP POP POP POP POP POP JUMP JUMPDEST PUSH2 0x1C29 DUP2 PUSH2 0x185B JUMP JUMPDEST DUP2 EQ PUSH2 0x1C34 JUMPI PUSH1 0x0 DUP1 REVERT JUMPDEST POP JUMP JUMPDEST PUSH1 0x0 DUP2 CALLDATALOAD SWAP1 POP PUSH2 0x1C46 DUP2 PUSH2 0x1C20 JUMP JUMPDEST SWAP3 SWAP2 POP POP JUMP JUMPDEST PUSH1 0x0 PUSH8 0xFFFFFFFFFFFFFFFF DUP3 GT ISZERO PUSH2 0x1C67 JUMPI PUSH2 0x1C66 PUSH2 0x15FB JUMP JUMPDEST JUMPDEST PUSH1 0x20 DUP3 MUL SWAP1 POP PUSH1 0x20 DUP2 ADD SWAP1 POP SWAP2 SWAP1 POP JUMP JUMPDEST PUSH1 0x0 DUP1 REVERT JUMPDEST PUSH1 0x0 PUSH2 0x1C90 PUSH2 0x1C8B DUP5 PUSH2 0x1C4C JUMP JUMPDEST PUSH2 0x165B JUMP JUMPDEST SWAP1 POP DUP1 DUP4 DUP3 MSTORE PUSH1 0x20 DUP3 ADD SWAP1 POP PUSH1 0x20 DUP5 MUL DUP4 ADD DUP6 DUP2 GT ISZERO PUSH2 0x1CB3 JUMPI PUSH2 0x1CB2 PUSH2 0x1C78 JUMP JUMPDEST JUMPDEST DUP4 JUMPDEST DUP2 DUP2 LT ISZERO PUSH2 0x1CFA JUMPI DUP1 CALLDATALOAD PUSH8 0xFFFFFFFFFFFFFFFF DUP2 GT ISZERO PUSH2 0x1CD8 JUMPI PUSH2 0x1CD7 PUSH2 0x15E0 JUMP JUMPDEST JUMPDEST DUP1 DUP7 ADD PUSH2 0x1CE5 DUP10 DUP3 PUSH2 0x16F8 JUMP JUMPDEST DUP6 MSTORE PUSH1 0x20 DUP6 ADD SWAP5 POP POP POP PUSH1 0x20 DUP2 ADD SWAP1 POP PUSH2 0x1CB5 JUMP JUMPDEST POP POP POP SWAP4 SWAP3 POP POP POP JUMP JUMPDEST PUSH1 0x0 DUP3 PUSH1 0x1F DUP4 ADD SLT PUSH2 0x1D19 JUMPI PUSH2 0x1D18 PUSH2 0x15E0 JUMP JUMPDEST JUMPDEST DUP2 CALLDATALOAD PUSH2 0x1D29 DUP5 DUP3 PUSH1 0x20 DUP7 ADD PUSH2 0x1C7D JUMP JUMPDEST SWAP2 POP POP SWAP3 SWAP2 POP POP JUMP JUMPDEST PUSH1 0x0 DUP1 PUSH1 0x0 DUP1 PUSH1 0x0 PUSH1 0xA0 DUP7 DUP9 SUB SLT ISZERO PUSH2 0x1D4E JUMPI PUSH2 0x1D4D PUSH2 0x15D6 JUMP JUMPDEST JUMPDEST PUSH1 0x0 PUSH2 0x1D5C DUP9 DUP3 DUP10 ADD PUSH2 0x1A9F JUMP JUMPDEST SWAP6 POP POP PUSH1 0x20 DUP7 ADD CALLDATALOAD PUSH8 0xFFFFFFFFFFFFFFFF DUP2 GT ISZERO PUSH2 0x1D7D JUMPI PUSH2 0x1D7C PUSH2 0x15DB JUMP JUMPDEST JUMPDEST PUSH2 0x1D89 DUP9 DUP3 DUP10 ADD PUSH2 0x16F8 JUMP JUMPDEST SWAP5 POP POP PUSH1 0x40 DUP7 ADD CALLDATALOAD PUSH8 0xFFFFFFFFFFFFFFFF DUP2 GT ISZERO PUSH2 0x1DAA JUMPI PUSH2 0x1DA9 PUSH2 0x15DB JUMP JUMPDEST JUMPDEST PUSH2 0x1DB6 DUP9 DUP3 DUP10 ADD PUSH2 0x16F8 JUMP JUMPDEST SWAP4 POP POP PUSH1 0x60 PUSH2 0x1DC7 DUP9 DUP3 DUP10 ADD PUSH2 0x1C37 JUMP JUMPDEST SWAP3 POP POP PUSH1 0x80 DUP7 ADD CALLDATALOAD PUSH8 0xFFFFFFFFFFFFFFFF DUP2 GT ISZERO PUSH2 0x1DE8 JUMPI PUSH2 0x1DE7 PUSH2 0x15DB JUMP JUMPDEST JUMPDEST PUSH2 0x1DF4 DUP9 DUP3 DUP10 ADD PUSH2 0x1D04 JUMP JUMPDEST SWAP2 POP POP SWAP3 SWAP6 POP SWAP3 SWAP6 SWAP1 SWAP4 POP JUMP JUMPDEST PUSH1 0x0 PUSH1 0x20 DUP3 DUP5 SUB SLT ISZERO PUSH2 0x1E17 JUMPI PUSH2 0x1E16 PUSH2 0x15D6 JUMP JUMPDEST JUMPDEST PUSH1 0x0 PUSH2 0x1E25 DUP5 DUP3 DUP6 ADD PUSH2 0x1B02 JUMP JUMPDEST SWAP2 POP POP SWAP3 SWAP2 POP POP JUMP JUMPDEST PUSH32 0x4E487B7100000000000000000000000000000000000000000000000000000000 PUSH1 0x0 MSTORE PUSH1 0x32 PUSH1 0x4 MSTORE PUSH1 0x24 PUSH1 0x0 REVERT JUMPDEST PUSH1 0x0 DUP2 SWAP1 POP SWAP3 SWAP2 POP POP JUMP JUMPDEST PUSH1 0x0 PUSH2 0x1E73 DUP3 PUSH2 0x17DC JUMP JUMPDEST PUSH2 0x1E7D DUP2 DUP6 PUSH2 0x1E5D JUMP JUMPDEST SWAP4 POP PUSH2 0x1E8D DUP2 DUP6 PUSH1 0x20 DUP7 ADD PUSH2 0x17F8 JUMP JUMPDEST DUP1 DUP5 ADD SWAP2 POP POP SWAP3 SWAP2 POP POP JUMP JUMPDEST PUSH1 0x0 PUSH2 0x1EA5 DUP3 DUP5 PUSH2 0x1E68 JUMP JUMPDEST SWAP2 POP DUP2 SWAP1 POP SWAP3 SWAP2 POP POP JUMP JUMPDEST PUSH32 0x4E487B7100000000000000000000000000000000000000000000000000000000 PUSH1 0x0 MSTORE PUSH1 0x22 PUSH1 0x4 MSTORE PUSH1 0x24 PUSH1 0x0 REVERT JUMPDEST PUSH1 0x0 PUSH1 0x2 DUP3 DIV SWAP1 POP PUSH1 0x1 DUP3 AND DUP1 PUSH2 0x1EF7 JUMPI PUSH1 0x7F DUP3 AND SWAP2 POP JUMPDEST PUSH1 0x20 DUP3 LT DUP2 SUB PUSH2 0x1F0A JUMPI PUSH2 0x1F09 PUSH2 0x1EB0 JUMP JUMPDEST JUMPDEST POP SWAP2 SWAP1 POP JUMP JUMPDEST PUSH1 0x0 DUP2 SWAP1 POP DUP2 PUSH1 0x0 MSTORE PUSH1 0x20 PUSH1 0x0 KECCAK256 SWAP1 POP SWAP2 SWAP1 POP JUMP JUMPDEST PUSH1 0x0 DUP2 SLOAD PUSH2 0x1F32 DUP2 PUSH2 0x1EDF JUMP JUMPDEST PUSH2 0x1F3C DUP2 DUP7 PUSH2 0x1E5D JUMP JUMPDEST SWAP5 POP PUSH1 0x1 DUP3 AND PUSH1 0x0 DUP2 EQ PUSH2 0x1F57 JUMPI PUSH1 0x1 DUP2 EQ PUSH2 0x1F6C JUMPI PUSH2 0x1F9F JUMP JUMPDEST PUSH1 0xFF NOT DUP4 AND DUP7 MSTORE DUP2 ISZERO ISZERO DUP3 MUL DUP7 ADD SWAP4 POP PUSH2 0x1F9F JUMP JUMPDEST PUSH2 0x1F75 DUP6 PUSH2 0x1F10 JUMP JUMPDEST PUSH1 0x0 JUMPDEST DUP4 DUP2 LT ISZERO PUSH2 0x1F97 JUMPI DUP2 SLOAD DUP2 DUP10 ADD MSTORE PUSH1 0x1 DUP3 ADD SWAP2 POP PUSH1 0x20 DUP2 ADD SWAP1 POP PUSH2 0x1F78 JUMP JUMPDEST DUP4 DUP9 ADD SWAP6 POP POP POP JUMPDEST POP POP POP SWAP3 SWAP2 POP POP JUMP JUMPDEST PUSH1 0x0 PUSH2 0x1FB4 DUP3 DUP5 PUSH2 0x1F25 JUMP JUMPDEST SWAP2 POP DUP2 SWAP1 POP SWAP3 SWAP2 POP POP JUMP JUMPDEST PUSH32 0x4E487B7100000000000000000000000000000000000000000000000000000000 PUSH1 0x0 MSTORE PUSH1 0x11 PUSH1 0x4 MSTORE PUSH1 0x24 PUSH1 0x0 REVERT JUMPDEST PUSH1 0x0 PUSH2 0x1FF9 DUP3 PUSH2 0x1AE1 JUMP JUMPDEST SWAP2 POP PUSH32 0xFFFFFFFFFFFFFFFFFFFFFFFFFFFFFFFFFFFFFFFFFFFFFFFFFFFFFFFFFFFFFFFF DUP3 SUB PUSH2 0x202B JUMPI PUSH2 0x202A PUSH2 0x1FBF JUMP JUMPDEST JUMPDEST PUSH1 0x1 DUP3 ADD SWAP1 POP SWAP2 SWAP1 POP JUMP JUMPDEST PUSH32 0x596F752063616E6E6F742072657669657720796F757273656C662E0000000000 PUSH1 0x0 DUP3 ADD MSTORE POP JUMP JUMPDEST PUSH1 0x0 PUSH2 0x206C PUSH1 0x1B DUP4 PUSH2 0x1B66 JUMP JUMPDEST SWAP2 POP PUSH2 0x2077 DUP3 PUSH2 0x2036 JUMP JUMPDEST PUSH1 0x20 DUP3 ADD SWAP1 POP SWAP2 SWAP1 POP JUMP JUMPDEST PUSH1 0x0 PUSH1 0x20 DUP3 ADD SWAP1 POP DUP2 DUP2 SUB PUSH1 0x0 DUP4 ADD MSTORE PUSH2 0x209B DUP2 PUSH2 0x205F JUMP JUMPDEST SWAP1 POP SWAP2 SWAP1 POP JUMP JUMPDEST PUSH32 0x526174696E67206D757374206265206265747765656E203120616E6420352E00 PUSH1 0x0 DUP3 ADD MSTORE POP JUMP JUMPDEST PUSH1 0x0 PUSH2 0x20D8 PUSH1 0x1F DUP4 PUSH2 0x1B66 JUMP JUMPDEST SWAP2 POP PUSH2 0x20E3 DUP3 PUSH2 0x20A2 JUMP JUMPDEST PUSH1 0x20 DUP3 ADD SWAP1 POP SWAP2 SWAP1 POP JUMP JUMPDEST PUSH1 0x0 PUSH1 0x20 DUP3 ADD SWAP1 POP DUP2 DUP2 SUB PUSH1 0x0 DUP4 ADD MSTORE PUSH2 0x2107 DUP2 PUSH2 0x20CB JUMP JUMPDEST SWAP1 POP SWAP2 SWAP1 POP JUMP JUMPDEST PUSH1 0x0 PUSH1 0x20 PUSH1 0x1F DUP4 ADD DIV SWAP1 POP SWAP2 SWAP1 POP JUMP JUMPDEST PUSH1 0x0 DUP3 DUP3 SHL SWAP1 POP SWAP3 SWAP2 POP POP JUMP JUMPDEST PUSH1 0x0 PUSH1 0x8 DUP4 MUL PUSH2 0x215B PUSH32 0xFFFFFFFFFFFFFFFFFFFFFFFFFFFFFFFFFFFFFFFFFFFFFFFFFFFFFFFFFFFFFFFF DUP3 PUSH2 0x211E JUMP JUMPDEST PUSH2 0x2165 DUP7 DUP4 PUSH2 0x211E JUMP JUMPDEST SWAP6 POP DUP1 NOT DUP5 AND SWAP4 POP DUP1 DUP7 AND DUP5 OR SWAP3 POP POP POP SWAP4 SWAP3 POP POP POP JUMP JUMPDEST PUSH1 0x0 DUP2 SWAP1 POP SWAP2 SWAP1 POP JUMP JUMPDEST PUSH1 0x0 PUSH2 0x21A2 PUSH2 0x219D PUSH2 0x2198 DUP5 PUSH2 0x1AE1 JUMP JUMPDEST PUSH2 0x217D JUMP JUMPDEST PUSH2 0x1AE1 JUMP JUMPDEST SWAP1 POP SWAP2 SWAP1 POP JUMP JUMPDEST PUSH1 0x0 DUP2 SWAP1 POP SWAP2 SWAP1 POP JUMP JUMPDEST PUSH2 0x21BC DUP4 PUSH2 0x2187 JUMP JUMPDEST PUSH2 0x21D0 PUSH2 0x21C8 DUP3 PUSH2 0x21A9 JUMP JUMPDEST DUP5 DUP5 SLOAD PUSH2 0x212B JUMP JUMPDEST DUP3 SSTORE POP POP POP POP JUMP JUMPDEST PUSH1 0x0 SWAP1 JUMP JUMPDEST PUSH2 0x21E5 PUSH2 0x21D8 JUMP JUMPDEST PUSH2 0x21F0 DUP2 DUP5 DUP5 PUSH2 0x21B3 JUMP JUMPDEST POP POP POP JUMP JUMPDEST JUMPDEST DUP2 DUP2 LT ISZERO PUSH2 0x2214 JUMPI PUSH2 0x2209 PUSH1 0x0 DUP3 PUSH2 0x21DD JUMP JUMPDEST PUSH1 0x1 DUP2 ADD SWAP1 POP PUSH2 0x21F6 JUMP JUMPDEST POP POP JUMP JUMPDEST PUSH1 0x1F DUP3 GT ISZERO PUSH2 0x2259 JUMPI PUSH2 0x222A DUP2 PUSH2 0x1F10 JUMP JUMPDEST PUSH2 0x2233 DUP5 PUSH2 0x210E JUMP JUMPDEST DUP2 ADD PUSH1 0x20 DUP6 LT ISZERO PUSH2 0x2242 JUMPI DUP2 SWAP1 POP JUMPDEST PUSH2 0x2256 PUSH2 0x224E DUP6 PUSH2 0x210E JUMP JUMPDEST DUP4 ADD DUP3 PUSH2 0x21F5 JUMP JUMPDEST POP POP JUMPDEST POP POP POP JUMP JUMPDEST PUSH1 0x0 DUP3 DUP3 SHR SWAP1 POP SWAP3 SWAP2 POP POP JUMP JUMPDEST PUSH1 0x0 PUSH2 0x227C PUSH1 0x0 NOT DUP5 PUSH1 0x8 MUL PUSH2 0x225E JUMP JUMPDEST NOT DUP1 DUP4 AND SWAP2 POP POP SWAP3 SWAP2 POP POP JUMP JUMPDEST PUSH1 0x0 PUSH2 0x2295 DUP4 DUP4 PUSH2 0x226B JUMP JUMPDEST SWAP2 POP DUP3 PUSH1 0x2 MUL DUP3 OR SWAP1 POP SWAP3 SWAP2 POP POP JUMP JUMPDEST PUSH2 0x22AE DUP3 PUSH2 0x17DC JUMP JUMPDEST PUSH8 0xFFFFFFFFFFFFFFFF DUP2 GT ISZERO PUSH2 0x22C7 JUMPI PUSH2 0x22C6 PUSH2 0x15FB JUMP JUMPDEST JUMPDEST PUSH2 0x22D1 DUP3 SLOAD PUSH2 0x1EDF JUMP JUMPDEST PUSH2 0x22DC DUP3 DUP3 DUP6 PUSH2 0x2218 JUMP JUMPDEST PUSH1 0x0 PUSH1 0x20 SWAP1 POP PUSH1 0x1F DUP4 GT PUSH1 0x1 DUP2 EQ PUSH2 0x230F JUMPI PUSH1 0x0 DUP5 ISZERO PUSH2 0x22FD JUMPI DUP3 DUP8 ADD MLOAD SWAP1 POP JUMPDEST PUSH2 0x2307 DUP6 DUP3 PUSH2 0x2289 JUMP JUMPDEST DUP7 SSTORE POP PUSH2 0x236F JUMP JUMPDEST PUSH1 0x1F NOT DUP5 AND PUSH2 0x231D DUP7 PUSH2 0x1F10 JUMP JUMPDEST PUSH1 0x0 JUMPDEST DUP3 DUP2 LT ISZERO PUSH2 0x2345 JUMPI DUP5 DUP10 ADD MLOAD DUP3 SSTORE PUSH1 0x1 DUP3 ADD SWAP2 POP PUSH1 0x20 DUP6 ADD SWAP5 POP PUSH1 0x20 DUP2 ADD SWAP1 POP PUSH2 0x2320 JUMP JUMPDEST DUP7 DUP4 LT ISZERO PUSH2 0x2362 JUMPI DUP5 DUP10 ADD MLOAD PUSH2 0x235E PUSH1 0x1F DUP10 AND DUP3 PUSH2 0x226B JUMP JUMPDEST DUP4 SSTORE POP JUMPDEST PUSH1 0x1 PUSH1 0x2 DUP9 MUL ADD DUP9 SSTORE POP POP POP JUMPDEST POP POP POP POP POP POP JUMP JUMPDEST PUSH1 0x0 DUP3 DUP3 MSTORE PUSH1 0x20 DUP3 ADD SWAP1 POP SWAP3 SWAP2 POP POP JUMP JUMPDEST PUSH1 0x0 PUSH2 0x2393 DUP3 PUSH2 0x1877 JUMP JUMPDEST PUSH2 0x239D DUP2 DUP6 PUSH2 0x2377 JUMP JUMPDEST SWAP4 POP DUP4 PUSH1 0x20 DUP3 MUL DUP6 ADD PUSH2 0x23AF DUP6 PUSH2 0x1893 JUMP JUMPDEST DUP1 PUSH1 0x0 JUMPDEST DUP6 DUP2 LT ISZERO PUSH2 0x23EB JUMPI DUP5 DUP5 SUB DUP10 MSTORE DUP2 MLOAD PUSH2 0x23CC DUP6 DUP3 PUSH2 0x18A3 JUMP JUMPDEST SWAP5 POP PUSH2 0x23D7 DUP4 PUSH2 0x18B7 JUMP JUMPDEST SWAP3 POP PUSH1 0x20 DUP11 ADD SWAP10 POP POP PUSH1 0x1 DUP2 ADD SWAP1 POP PUSH2 0x23B3 JUMP JUMPDEST POP DUP3 SWAP8 POP DUP8 SWAP6 POP POP POP POP POP POP SWAP3 SWAP2 POP POP JUMP JUMPDEST PUSH1 0x0 PUSH1 0x60 DUP3 ADD SWAP1 POP DUP2 DUP2 SUB PUSH1 0x0 DUP4 ADD MSTORE PUSH2 0x2417 DUP2 DUP7 PUSH2 0x1B77 JUMP JUMPDEST SWAP1 POP PUSH2 0x2426 PUSH1 0x20 DUP4 ADD DUP6 PUSH2 0x1BB0 JUMP JUMPDEST DUP2 DUP2 SUB PUSH1 0x40 DUP4 ADD MSTORE PUSH2 0x2438 DUP2 DUP5 PUSH2 0x2388 JUMP JUMPDEST SWAP1 POP SWAP5 SWAP4 POP POP POP POP JUMP INVALID LOG2 PUSH5 0x6970667358 0x22 SLT KECCAK256 CALLCODE PUSH31 0x1B5278AC43C110AE3F005D3588D0E4522016945941425A3A9A1852BBF8CE64 PUSH20 0x6F6C634300081B00330000000000000000000000 "
        },
        "methodIdentifiers": {
          "allReviews(uint256)": "ffa590ae",
          "getAllReviews()": "45a7b01c",
          "getUserReviews(address)": "18d0e8b2",
          "searchReviewsByTech(string)": "110d91b2",
          "submitReview(address,string,string,uint8,string[])": "b5366b50",
          "userReviews(address,uint256)": "1f4ac129"
        }
      }
    }
  }
}