{
  "contracts/HackReview.sol": {
    "HackReview": {
      "abi": [
        {
          "anonymous": false,
          "inputs": [
            {
              "indexed": true,
              "internalType": "address",
              "name": "reviewer",
              "type": "address"
            },
            {
              "indexed": true,
              "internalType": "address",
              "name": "reviewee",
              "type": "address"
            },
            {
              "indexed": false,
              "internalType": "string",
              "name": "hackathonName",
              "type": "string"
            },
            {
              "indexed": false,
              "internalType": "uint8",
              "name": "starRating",
              "type": "uint8"
            },
            {
              "indexed": false,
              "internalType": "string[]",
              "name": "technologies",
              "type": "string[]"
            },
            {
              "indexed": false,
              "internalType": "string",
              "name": "projectUrl",
              "type": "string"
            }
          ],
          "name": "ReviewSubmitted",
          "type": "event"
        },
        {
          "inputs": [
            {
              "internalType": "uint256",
              "name": "",
              "type": "uint256"
            }
          ],
          "name": "allReviews",
          "outputs": [
            {
              "internalType": "address",
              "name": "reviewer",
              "type": "address"
            },
            {
              "internalType": "address",
              "name": "reviewee",
              "type": "address"
            },
            {
              "internalType": "string",
              "name": "hackathonName",
              "type": "string"
            },
            {
              "internalType": "string",
              "name": "reviewText",
              "type": "string"
            },
            {
              "internalType": "uint8",
              "name": "starRating",
              "type": "uint8"
            },
            {
              "internalType": "string",
              "name": "projectUrl",
              "type": "string"
            }
          ],
          "stateMutability": "view",
          "type": "function"
        },
        {
          "inputs": [],
          "name": "getAllReviews",
          "outputs": [
            {
              "components": [
                {
                  "internalType": "address",
                  "name": "reviewer",
                  "type": "address"
                },
                {
                  "internalType": "address",
                  "name": "reviewee",
                  "type": "address"
                },
                {
                  "internalType": "string",
                  "name": "hackathonName",
                  "type": "string"
                },
                {
                  "internalType": "string",
                  "name": "reviewText",
                  "type": "string"
                },
                {
                  "internalType": "uint8",
                  "name": "starRating",
                  "type": "uint8"
                },
                {
                  "internalType": "string[]",
                  "name": "technologies",
                  "type": "string[]"
                },
                {
                  "internalType": "string",
                  "name": "projectUrl",
                  "type": "string"
                }
              ],
              "internalType": "struct HackReview.Review[]",
              "name": "",
              "type": "tuple[]"
            }
          ],
          "stateMutability": "view",
          "type": "function"
        },
        {
          "inputs": [
            {
              "internalType": "address",
              "name": "_user",
              "type": "address"
            }
          ],
          "name": "getUserReviews",
          "outputs": [
            {
              "components": [
                {
                  "internalType": "address",
                  "name": "reviewer",
                  "type": "address"
                },
                {
                  "internalType": "address",
                  "name": "reviewee",
                  "type": "address"
                },
                {
                  "internalType": "string",
                  "name": "hackathonName",
                  "type": "string"
                },
                {
                  "internalType": "string",
                  "name": "reviewText",
                  "type": "string"
                },
                {
                  "internalType": "uint8",
                  "name": "starRating",
                  "type": "uint8"
                },
                {
                  "internalType": "string[]",
                  "name": "technologies",
                  "type": "string[]"
                },
                {
                  "internalType": "string",
                  "name": "projectUrl",
                  "type": "string"
                }
              ],
              "internalType": "struct HackReview.Review[]",
              "name": "",
              "type": "tuple[]"
            }
          ],
          "stateMutability": "view",
          "type": "function"
        },
        {
          "inputs": [
            {
              "internalType": "string",
              "name": "_tech",
              "type": "string"
            }
          ],
          "name": "searchReviewsByTech",
          "outputs": [
            {
              "components": [
                {
                  "internalType": "address",
                  "name": "reviewer",
                  "type": "address"
                },
                {
                  "internalType": "address",
                  "name": "reviewee",
                  "type": "address"
                },
                {
                  "internalType": "string",
                  "name": "hackathonName",
                  "type": "string"
                },
                {
                  "internalType": "string",
                  "name": "reviewText",
                  "type": "string"
                },
                {
                  "internalType": "uint8",
                  "name": "starRating",
                  "type": "uint8"
                },
                {
                  "internalType": "string[]",
                  "name": "technologies",
                  "type": "string[]"
                },
                {
                  "internalType": "string",
                  "name": "projectUrl",
                  "type": "string"
                }
              ],
              "internalType": "struct HackReview.Review[]",
              "name": "",
              "type": "tuple[]"
            }
          ],
          "stateMutability": "view",
          "type": "function"
        },
        {
          "inputs": [
            {
              "internalType": "address",
              "name": "_reviewee",
              "type": "address"
            },
            {
              "internalType": "string",
              "name": "_hackathonName",
              "type": "string"
            },
            {
              "internalType": "string",
              "name": "_reviewText",
              "type": "string"
            },
            {
              "internalType": "uint8",
              "name": "_starRating",
              "type": "uint8"
            },
            {
              "internalType": "string[]",
              "name": "_technologies",
              "type": "string[]"
            },
            {
              "internalType": "string",
              "name": "_projectUrl",
              "type": "string"
            }
          ],
          "name": "submitReview",
          "outputs": [],
          "stateMutability": "nonpayable",
          "type": "function"
        },
        {
          "inputs": [
            {
              "internalType": "address",
              "name": "",
              "type": "address"
            },
            {
              "internalType": "uint256",
              "name": "",
              "type": "uint256"
            }
          ],
          "name": "userReviews",
          "outputs": [
            {
              "internalType": "address",
              "name": "reviewer",
              "type": "address"
            },
            {
              "internalType": "address",
              "name": "reviewee",
              "type": "address"
            },
            {
              "internalType": "string",
              "name": "hackathonName",
              "type": "string"
            },
            {
              "internalType": "string",
              "name": "reviewText",
              "type": "string"
            },
            {
              "internalType": "uint8",
              "name": "starRating",
              "type": "uint8"
            },
            {
              "internalType": "string",
              "name": "projectUrl",
              "type": "string"
            }
          ],
          "stateMutability": "view",
          "type": "function"
        }
      ],
      "evm": {
        "bytecode": {
          "linkReferences": {},
          "object": "6080604052348015600f57600080fd5b506127fa8061001f6000396000f3fe608060405234801561001057600080fd5b50600436106100625760003560e01c8063110d91b21461006757806318d0e8b2146100975780631f4ac129146100c757806345a7b01c146100fc5780639eba92071461011a578063ffa590ae14610136575b600080fd5b610081600480360381019061007c9190611a36565b61016b565b60405161008e9190611d90565b60405180910390f35b6100b160048036038101906100ac9190611dde565b610728565b6040516100be9190611d90565b60405180910390f35b6100e160048036038101906100dc9190611e41565b610b1d565b6040516100f396959493929190611ee9565b60405180910390f35b610104610d5b565b6040516101119190611d90565b60405180910390f35b610134600480360381019061012f9190612071565b611112565b005b610150600480360381019061014b919061216e565b611565565b60405161016296959493929190611ee9565b60405180910390f35b6060600060018054905067ffffffffffffffff81111561018e5761018d61190b565b5b6040519080825280602002602001820160405280156101c757816020015b6101b4611796565b8152602001906001900390816101ac5790505b5090506000805b6001805490508110156106725760005b600182815481106101f2576101f161219b565b5b906000526020600020906007020160050180549050811015610664578560405160200161021f9190612206565b60405160208183030381529060405280519060200120600183815481106102495761024861219b565b5b9060005260206000209060070201600501828154811061026c5761026b61219b565b5b906000526020600020016040516020016102869190612315565b604051602081830303815290604052805190602001200361065757600182815481106102b5576102b461219b565b5b90600052602060002090600702016040518060e00160405290816000820160009054906101000a900473ffffffffffffffffffffffffffffffffffffffff1673ffffffffffffffffffffffffffffffffffffffff1673ffffffffffffffffffffffffffffffffffffffff1681526020016001820160009054906101000a900473ffffffffffffffffffffffffffffffffffffffff1673ffffffffffffffffffffffffffffffffffffffff1673ffffffffffffffffffffffffffffffffffffffff16815260200160028201805461038a9061224c565b80601f01602080910402602001604051908101604052809291908181526020018280546103b69061224c565b80156104035780601f106103d857610100808354040283529160200191610403565b820191906000526020600020905b8154815290600101906020018083116103e657829003601f168201915b5050505050815260200160038201805461041c9061224c565b80601f01602080910402602001604051908101604052809291908181526020018280546104489061224c565b80156104955780601f1061046a57610100808354040283529160200191610495565b820191906000526020600020905b81548152906001019060200180831161047857829003601f168201915b505050505081526020016004820160009054906101000a900460ff1660ff1660ff16815260200160058201805480602002602001604051908101604052809291908181526020016000905b8282101561058c5783829060005260206000200180546104ff9061224c565b80601f016020809104026020016040519081016040528092919081815260200182805461052b9061224c565b80156105785780601f1061054d57610100808354040283529160200191610578565b820191906000526020600020905b81548152906001019060200180831161055b57829003601f168201915b5050505050815260200190600101906104e0565b5050505081526020016006820180546105a49061224c565b80601f01602080910402602001604051908101604052809291908181526020018280546105d09061224c565b801561061d5780601f106105f25761010080835404028352916020019161061d565b820191906000526020600020905b81548152906001019060200180831161060057829003601f168201915b5050505050815250508484815181106106395761063861219b565b5b6020026020010181905250828061064f9061235b565b935050610664565b80806001019150506101de565b5080806001019150506101ce565b5060008167ffffffffffffffff81111561068f5761068e61190b565b5b6040519080825280602002602001820160405280156106c857816020015b6106b5611796565b8152602001906001900390816106ad5790505b50905060005b8281101561071c578381815181106106e9576106e861219b565b5b60200260200101518282815181106107045761070361219b565b5b602002602001018190525080806001019150506106ce565b50809350505050919050565b60606000808373ffffffffffffffffffffffffffffffffffffffff1673ffffffffffffffffffffffffffffffffffffffff168152602001908152602001600020805480602002602001604051908101604052809291908181526020016000905b82821015610b1257838290600052602060002090600702016040518060e00160405290816000820160009054906101000a900473ffffffffffffffffffffffffffffffffffffffff1673ffffffffffffffffffffffffffffffffffffffff1673ffffffffffffffffffffffffffffffffffffffff1681526020016001820160009054906101000a900473ffffffffffffffffffffffffffffffffffffffff1673ffffffffffffffffffffffffffffffffffffffff1673ffffffffffffffffffffffffffffffffffffffff1681526020016002820180546108679061224c565b80601f01602080910402602001604051908101604052809291908181526020018280546108939061224c565b80156108e05780601f106108b5576101008083540402835291602001916108e0565b820191906000526020600020905b8154815290600101906020018083116108c357829003601f168201915b505050505081526020016003820180546108f99061224c565b80601f01602080910402602001604051908101604052809291908181526020018280546109259061224c565b80156109725780601f1061094757610100808354040283529160200191610972565b820191906000526020600020905b81548152906001019060200180831161095557829003601f168201915b505050505081526020016004820160009054906101000a900460ff1660ff1660ff16815260200160058201805480602002602001604051908101604052809291908181526020016000905b82821015610a695783829060005260206000200180546109dc9061224c565b80601f0160208091040260200160405190810160405280929190818152602001828054610a089061224c565b8015610a555780601f10610a2a57610100808354040283529160200191610a55565b820191906000526020600020905b815481529060010190602001808311610a3857829003601f168201915b5050505050815260200190600101906109bd565b505050508152602001600682018054610a819061224c565b80601f0160208091040260200160405190810160405280929190818152602001828054610aad9061224c565b8015610afa5780601f10610acf57610100808354040283529160200191610afa565b820191906000526020600020905b815481529060010190602001808311610add57829003601f168201915b50505050508152505081526020019060010190610788565b505050509050919050565b60006020528160005260406000208181548110610b3957600080fd5b9060005260206000209060070201600091509150508060000160009054906101000a900473ffffffffffffffffffffffffffffffffffffffff16908060010160009054906101000a900473ffffffffffffffffffffffffffffffffffffffff1690806002018054610ba99061224c565b80601f0160208091040260200160405190810160405280929190818152602001828054610bd59061224c565b8015610c225780601f10610bf757610100808354040283529160200191610c22565b820191906000526020600020905b815481529060010190602001808311610c0557829003601f168201915b505050505090806003018054610c379061224c565b80601f0160208091040260200160405190810160405280929190818152602001828054610c639061224c565b8015610cb05780601f10610c8557610100808354040283529160200191610cb0565b820191906000526020600020905b815481529060010190602001808311610c9357829003601f168201915b5050505050908060040160009054906101000a900460ff1690806006018054610cd89061224c565b80601f0160208091040260200160405190810160405280929190818152602001828054610d049061224c565b8015610d515780601f10610d2657610100808354040283529160200191610d51565b820191906000526020600020905b815481529060010190602001808311610d3457829003601f168201915b5050505050905086565b60606001805480602002602001604051908101604052809291908181526020016000905b8282101561110957838290600052602060002090600702016040518060e00160405290816000820160009054906101000a900473ffffffffffffffffffffffffffffffffffffffff1673ffffffffffffffffffffffffffffffffffffffff1673ffffffffffffffffffffffffffffffffffffffff1681526020016001820160009054906101000a900473ffffffffffffffffffffffffffffffffffffffff1673ffffffffffffffffffffffffffffffffffffffff1673ffffffffffffffffffffffffffffffffffffffff168152602001600282018054610e5e9061224c565b80601f0160208091040260200160405190810160405280929190818152602001828054610e8a9061224c565b8015610ed75780601f10610eac57610100808354040283529160200191610ed7565b820191906000526020600020905b815481529060010190602001808311610eba57829003601f168201915b50505050508152602001600382018054610ef09061224c565b80601f0160208091040260200160405190810160405280929190818152602001828054610f1c9061224c565b8015610f695780601f10610f3e57610100808354040283529160200191610f69565b820191906000526020600020905b815481529060010190602001808311610f4c57829003601f168201915b505050505081526020016004820160009054906101000a900460ff1660ff1660ff16815260200160058201805480602002602001604051908101604052809291908181526020016000905b82821015611060578382906000526020600020018054610fd39061224c565b80601f0160208091040260200160405190810160405280929190818152602001828054610fff9061224c565b801561104c5780601f106110215761010080835404028352916020019161104c565b820191906000526020600020905b81548152906001019060200180831161102f57829003601f168201915b505050505081526020019060010190610fb4565b5050505081526020016006820180546110789061224c565b80601f01602080910402602001604051908101604052809291908181526020018280546110a49061224c565b80156110f15780601f106110c6576101008083540402835291602001916110f1565b820191906000526020600020905b8154815290600101906020018083116110d457829003601f168201915b50505050508152505081526020019060010190610d7f565b50505050905090565b3373ffffffffffffffffffffffffffffffffffffffff168673ffffffffffffffffffffffffffffffffffffffff1603611180576040517f08c379a0000000000000000000000000000000000000000000000000000000008152600401611177906123ef565b60405180910390fd5b60018360ff1610158015611198575060058360ff1611155b6111d7576040517f08c379a00000000000000000000000000000000000000000000000000000000081526004016111ce9061245b565b60405180910390fd5b60006040518060e001604052803373ffffffffffffffffffffffffffffffffffffffff1681526020018873ffffffffffffffffffffffffffffffffffffffff1681526020018781526020018681526020018560ff1681526020018481526020018381525090506000808873ffffffffffffffffffffffffffffffffffffffff1673ffffffffffffffffffffffffffffffffffffffff16815260200190815260200160002081908060018154018082558091505060019003906000526020600020906007020160009091909190915060008201518160000160006101000a81548173ffffffffffffffffffffffffffffffffffffffff021916908373ffffffffffffffffffffffffffffffffffffffff16021790555060208201518160010160006101000a81548173ffffffffffffffffffffffffffffffffffffffff021916908373ffffffffffffffffffffffffffffffffffffffff16021790555060408201518160020190816113489190612612565b50606082015181600301908161135e9190612612565b5060808201518160040160006101000a81548160ff021916908360ff16021790555060a082015181600501908051906020019061139c929190611802565b5060c08201518160060190816113b29190612612565b505050600181908060018154018082558091505060019003906000526020600020906007020160009091909190915060008201518160000160006101000a81548173ffffffffffffffffffffffffffffffffffffffff021916908373ffffffffffffffffffffffffffffffffffffffff16021790555060208201518160010160006101000a81548173ffffffffffffffffffffffffffffffffffffffff021916908373ffffffffffffffffffffffffffffffffffffffff16021790555060408201518160020190816114849190612612565b50606082015181600301908161149a9190612612565b5060808201518160040160006101000a81548160ff021916908360ff16021790555060a08201518160050190805190602001906114d8929190611802565b5060c08201518160060190816114ee9190612612565b5050508673ffffffffffffffffffffffffffffffffffffffff163373ffffffffffffffffffffffffffffffffffffffff167f1ffdc7d43c0353d9e514786483e729ee6c900d86e1029a05ebab1f94ca62194388878787604051611554949392919061276a565b60405180910390a350505050505050565b6001818154811061157557600080fd5b90600052602060002090600702016000915090508060000160009054906101000a900473ffffffffffffffffffffffffffffffffffffffff16908060010160009054906101000a900473ffffffffffffffffffffffffffffffffffffffff16908060020180546115e49061224c565b80601f01602080910402602001604051908101604052809291908181526020018280546116109061224c565b801561165d5780601f106116325761010080835404028352916020019161165d565b820191906000526020600020905b81548152906001019060200180831161164057829003601f168201915b5050505050908060030180546116729061224c565b80601f016020809104026020016040519081016040528092919081815260200182805461169e9061224c565b80156116eb5780601f106116c0576101008083540402835291602001916116eb565b820191906000526020600020905b8154815290600101906020018083116116ce57829003601f168201915b5050505050908060040160009054906101000a900460ff16908060060180546117139061224c565b80601f016020809104026020016040519081016040528092919081815260200182805461173f9061224c565b801561178c5780601f106117615761010080835404028352916020019161178c565b820191906000526020600020905b81548152906001019060200180831161176f57829003601f168201915b5050505050905086565b6040518060e00160405280600073ffffffffffffffffffffffffffffffffffffffff168152602001600073ffffffffffffffffffffffffffffffffffffffff1681526020016060815260200160608152602001600060ff16815260200160608152602001606081525090565b82805482825590600052602060002090810192821561184a579160200282015b828111156118495782518290816118399190612612565b5091602001919060010190611822565b5b509050611857919061185b565b5090565b5b8082111561187b5760008181611872919061187f565b5060010161185c565b5090565b50805461188b9061224c565b6000825580601f1061189d57506118bc565b601f0160209004906000526020600020908101906118bb91906118bf565b5b50565b5b808211156118d85760008160009055506001016118c0565b5090565b6000604051905090565b600080fd5b600080fd5b600080fd5b600080fd5b6000601f19601f8301169050919050565b7f4e487b7100000000000000000000000000000000000000000000000000000000600052604160045260246000fd5b611943826118fa565b810181811067ffffffffffffffff821117156119625761196161190b565b5b80604052505050565b60006119756118dc565b9050611981828261193a565b919050565b600067ffffffffffffffff8211156119a1576119a061190b565b5b6119aa826118fa565b9050602081019050919050565b82818337600083830152505050565b60006119d96119d484611986565b61196b565b9050828152602081018484840111156119f5576119f46118f5565b5b611a008482856119b7565b509392505050565b600082601f830112611a1d57611a1c6118f0565b5b8135611a2d8482602086016119c6565b91505092915050565b600060208284031215611a4c57611a4b6118e6565b5b600082013567ffffffffffffffff811115611a6a57611a696118eb565b5b611a7684828501611a08565b91505092915050565b600081519050919050565b600082825260208201905092915050565b6000819050602082019050919050565b600073ffffffffffffffffffffffffffffffffffffffff82169050919050565b6000611ad682611aab565b9050919050565b611ae681611acb565b82525050565b600081519050919050565b600082825260208201905092915050565b60005b83811015611b26578082015181840152602081019050611b0b565b60008484015250505050565b6000611b3d82611aec565b611b478185611af7565b9350611b57818560208601611b08565b611b60816118fa565b840191505092915050565b600060ff82169050919050565b611b8181611b6b565b82525050565b600081519050919050565b600082825260208201905092915050565b6000819050602082019050919050565b6000611bbf8383611b32565b905092915050565b6000602082019050919050565b6000611bdf82611b87565b611be98185611b92565b935083602082028501611bfb85611ba3565b8060005b85811015611c375784840389528151611c188582611bb3565b9450611c2383611bc7565b925060208a01995050600181019050611bff565b50829750879550505050505092915050565b600060e083016000830151611c616000860182611add565b506020830151611c746020860182611add565b5060408301518482036040860152611c8c8282611b32565b91505060608301518482036060860152611ca68282611b32565b9150506080830151611cbb6080860182611b78565b5060a083015184820360a0860152611cd38282611bd4565b91505060c083015184820360c0860152611ced8282611b32565b9150508091505092915050565b6000611d068383611c49565b905092915050565b6000602082019050919050565b6000611d2682611a7f565b611d308185611a8a565b935083602082028501611d4285611a9b565b8060005b85811015611d7e5784840389528151611d5f8582611cfa565b9450611d6a83611d0e565b925060208a01995050600181019050611d46565b50829750879550505050505092915050565b60006020820190508181036000830152611daa8184611d1b565b905092915050565b611dbb81611acb565b8114611dc657600080fd5b50565b600081359050611dd881611db2565b92915050565b600060208284031215611df457611df36118e6565b5b6000611e0284828501611dc9565b91505092915050565b6000819050919050565b611e1e81611e0b565b8114611e2957600080fd5b50565b600081359050611e3b81611e15565b92915050565b60008060408385031215611e5857611e576118e6565b5b6000611e6685828601611dc9565b9250506020611e7785828601611e2c565b9150509250929050565b611e8a81611acb565b82525050565b600082825260208201905092915050565b6000611eac82611aec565b611eb68185611e90565b9350611ec6818560208601611b08565b611ecf816118fa565b840191505092915050565b611ee381611b6b565b82525050565b600060c082019050611efe6000830189611e81565b611f0b6020830188611e81565b8181036040830152611f1d8187611ea1565b90508181036060830152611f318186611ea1565b9050611f406080830185611eda565b81810360a0830152611f528184611ea1565b9050979650505050505050565b611f6881611b6b565b8114611f7357600080fd5b50565b600081359050611f8581611f5f565b92915050565b600067ffffffffffffffff821115611fa657611fa561190b565b5b602082029050602081019050919050565b600080fd5b6000611fcf611fca84611f8b565b61196b565b90508083825260208201905060208402830185811115611ff257611ff1611fb7565b5b835b8181101561203957803567ffffffffffffffff811115612017576120166118f0565b5b8086016120248982611a08565b85526020850194505050602081019050611ff4565b5050509392505050565b600082601f830112612058576120576118f0565b5b8135612068848260208601611fbc565b91505092915050565b60008060008060008060c0878903121561208e5761208d6118e6565b5b600061209c89828a01611dc9565b965050602087013567ffffffffffffffff8111156120bd576120bc6118eb565b5b6120c989828a01611a08565b955050604087013567ffffffffffffffff8111156120ea576120e96118eb565b5b6120f689828a01611a08565b945050606061210789828a01611f76565b935050608087013567ffffffffffffffff811115612128576121276118eb565b5b61213489828a01612043565b92505060a087013567ffffffffffffffff811115612155576121546118eb565b5b61216189828a01611a08565b9150509295509295509295565b600060208284031215612184576121836118e6565b5b600061219284828501611e2c565b91505092915050565b7f4e487b7100000000000000000000000000000000000000000000000000000000600052603260045260246000fd5b600081905092915050565b60006121e082611aec565b6121ea81856121ca565b93506121fa818560208601611b08565b80840191505092915050565b600061221282846121d5565b915081905092915050565b7f4e487b7100000000000000000000000000000000000000000000000000000000600052602260045260246000fd5b6000600282049050600182168061226457607f821691505b6020821081036122775761227661221d565b5b50919050565b60008190508160005260206000209050919050565b6000815461229f8161224c565b6122a981866121ca565b945060018216600081146122c457600181146122d95761230c565b60ff198316865281151582028601935061230c565b6122e28561227d565b60005b83811015612304578154818901526001820191506020810190506122e5565b838801955050505b50505092915050565b60006123218284612292565b915081905092915050565b7f4e487b7100000000000000000000000000000000000000000000000000000000600052601160045260246000fd5b600061236682611e0b565b91507fffffffffffffffffffffffffffffffffffffffffffffffffffffffffffffffff82036123985761239761232c565b5b600182019050919050565b7f596f752063616e6e6f742072657669657720796f757273656c662e0000000000600082015250565b60006123d9601b83611e90565b91506123e4826123a3565b602082019050919050565b60006020820190508181036000830152612408816123cc565b9050919050565b7f526174696e67206d757374206265206265747765656e203120616e6420352e00600082015250565b6000612445601f83611e90565b91506124508261240f565b602082019050919050565b6000602082019050818103600083015261247481612438565b9050919050565b60006020601f8301049050919050565b600082821b905092915050565b6000600883026124c87fffffffffffffffffffffffffffffffffffffffffffffffffffffffffffffffff8261248b565b6124d2868361248b565b95508019841693508086168417925050509392505050565b6000819050919050565b600061250f61250a61250584611e0b565b6124ea565b611e0b565b9050919050565b6000819050919050565b612529836124f4565b61253d61253582612516565b848454612498565b825550505050565b600090565b612552612545565b61255d818484612520565b505050565b5b818110156125815761257660008261254a565b600181019050612563565b5050565b601f8211156125c6576125978161227d565b6125a08461247b565b810160208510156125af578190505b6125c36125bb8561247b565b830182612562565b50505b505050565b600082821c905092915050565b60006125e9600019846008026125cb565b1980831691505092915050565b600061260283836125d8565b9150826002028217905092915050565b61261b82611aec565b67ffffffffffffffff8111156126345761263361190b565b5b61263e825461224c565b612649828285612585565b600060209050601f83116001811461267c576000841561266a578287015190505b61267485826125f6565b8655506126dc565b601f19841661268a8661227d565b60005b828110156126b25784890151825560018201915060208501945060208101905061268d565b868310156126cf57848901516126cb601f8916826125d8565b8355505b6001600288020188555050505b505050505050565b600082825260208201905092915050565b600061270082611b87565b61270a81856126e4565b93508360208202850161271c85611ba3565b8060005b8581101561275857848403895281516127398582611bb3565b945061274483611bc7565b925060208a01995050600181019050612720565b50829750879550505050505092915050565b600060808201905081810360008301526127848187611ea1565b90506127936020830186611eda565b81810360408301526127a581856126f5565b905081810360608301526127b98184611ea1565b90509594505050505056fea2646970667358221220ee6ca8fa5a414b5b0d507376688578b4b684d91cdd1f8ebe612acceda16b226864736f6c634300081b0033",
          "opcodes": "PUSH1 0x80 PUSH1 0x40 MSTORE CALLVALUE DUP1 ISZERO PUSH1 0xF JUMPI PUSH1 0x0 DUP1 REVERT JUMPDEST POP PUSH2 0x27FA DUP1 PUSH2 0x1F PUSH1 0x0 CODECOPY PUSH1 0x0 RETURN INVALID PUSH1 0x80 PUSH1 0x40 MSTORE CALLVALUE DUP1 ISZERO PUSH2 0x10 JUMPI PUSH1 0x0 DUP1 REVERT JUMPDEST POP PUSH1 0x4 CALLDATASIZE LT PUSH2 0x62 JUMPI PUSH1 0x0 CALLDATALOAD PUSH1 0xE0 SHR DUP1 PUSH4 0x110D91B2 EQ PUSH2 0x67 JUMPI DUP1 PUSH4 0x18D0E8B2 EQ PUSH2 0x97 JUMPI DUP1 PUSH4 0x1F4AC129 EQ PUSH2 0xC7 JUMPI DUP1 PUSH4 0x45A7B01C EQ PUSH2 0xFC JUMPI DUP1 PUSH4 0x9EBA9207 EQ PUSH2 0x11A JUMPI DUP1 PUSH4 0xFFA590AE EQ PUSH2 0x136 JUMPI JUMPDEST PUSH1 0x0 DUP1 REVERT JUMPDEST PUSH2 0x81 PUSH1 0x4 DUP1 CALLDATASIZE SUB DUP2 ADD SWAP1 PUSH2 0x7C SWAP2 SWAP1 PUSH2 0x1A36 JUMP JUMPDEST PUSH2 0x16B JUMP JUMPDEST PUSH1 0x40 MLOAD PUSH2 0x8E SWAP2 SWAP1 PUSH2 0x1D90 JUMP JUMPDEST PUSH1 0x40 MLOAD DUP1 SWAP2 SUB SWAP1 RETURN JUMPDEST PUSH2 0xB1 PUSH1 0x4 DUP1 CALLDATASIZE SUB DUP2 ADD SWAP1 PUSH2 0xAC SWAP2 SWAP1 PUSH2 0x1DDE JUMP JUMPDEST PUSH2 0x728 JUMP JUMPDEST PUSH1 0x40 MLOAD PUSH2 0xBE SWAP2 SWAP1 PUSH2 0x1D90 JUMP JUMPDEST PUSH1 0x40 MLOAD DUP1 SWAP2 SUB SWAP1 RETURN JUMPDEST PUSH2 0xE1 PUSH1 0x4 DUP1 CALLDATASIZE SUB DUP2 ADD SWAP1 PUSH2 0xDC SWAP2 SWAP1 PUSH2 0x1E41 JUMP JUMPDEST PUSH2 0xB1D JUMP JUMPDEST PUSH1 0x40 MLOAD PUSH2 0xF3 SWAP7 SWAP6 SWAP5 SWAP4 SWAP3 SWAP2 SWAP1 PUSH2 0x1EE9 JUMP JUMPDEST PUSH1 0x40 MLOAD DUP1 SWAP2 SUB SWAP1 RETURN JUMPDEST PUSH2 0x104 PUSH2 0xD5B JUMP JUMPDEST PUSH1 0x40 MLOAD PUSH2 0x111 SWAP2 SWAP1 PUSH2 0x1D90 JUMP JUMPDEST PUSH1 0x40 MLOAD DUP1 SWAP2 SUB SWAP1 RETURN JUMPDEST PUSH2 0x134 PUSH1 0x4 DUP1 CALLDATASIZE SUB DUP2 ADD SWAP1 PUSH2 0x12F SWAP2 SWAP1 PUSH2 0x2071 JUMP JUMPDEST PUSH2 0x1112 JUMP JUMPDEST STOP JUMPDEST PUSH2 0x150 PUSH1 0x4 DUP1 CALLDATASIZE SUB DUP2 ADD SWAP1 PUSH2 0x14B SWAP2 SWAP1 PUSH2 0x216E JUMP JUMPDEST PUSH2 0x1565 JUMP JUMPDEST PUSH1 0x40 MLOAD PUSH2 0x162 SWAP7 SWAP6 SWAP5 SWAP4 SWAP3 SWAP2 SWAP1 PUSH2 0x1EE9 JUMP JUMPDEST PUSH1 0x40 MLOAD DUP1 SWAP2 SUB SWAP1 RETURN JUMPDEST PUSH1 0x60 PUSH1 0x0 PUSH1 0x1 DUP1 SLOAD SWAP1 POP PUSH8 0xFFFFFFFFFFFFFFFF DUP2 GT ISZERO PUSH2 0x18E JUMPI PUSH2 0x18D PUSH2 0x190B JUMP JUMPDEST JUMPDEST PUSH1 0x40 MLOAD SWAP1 DUP1 DUP3 MSTORE DUP1 PUSH1 0x20 MUL PUSH1 0x20 ADD DUP3 ADD PUSH1 0x40 MSTORE DUP1 ISZERO PUSH2 0x1C7 JUMPI DUP2 PUSH1 0x20 ADD JUMPDEST PUSH2 0x1B4 PUSH2 0x1796 JUMP JUMPDEST DUP2 MSTORE PUSH1 0x20 ADD SWAP1 PUSH1 0x1 SWAP1 SUB SWAP1 DUP2 PUSH2 0x1AC JUMPI SWAP1 POP JUMPDEST POP SWAP1 POP PUSH1 0x0 DUP1 JUMPDEST PUSH1 0x1 DUP1 SLOAD SWAP1 POP DUP2 LT ISZERO PUSH2 0x672 JUMPI PUSH1 0x0 JUMPDEST PUSH1 0x1 DUP3 DUP2 SLOAD DUP2 LT PUSH2 0x1F2 JUMPI PUSH2 0x1F1 PUSH2 0x219B JUMP JUMPDEST JUMPDEST SWAP1 PUSH1 0x0 MSTORE PUSH1 0x20 PUSH1 0x0 KECCAK256 SWAP1 PUSH1 0x7 MUL ADD PUSH1 0x5 ADD DUP1 SLOAD SWAP1 POP DUP2 LT ISZERO PUSH2 0x664 JUMPI DUP6 PUSH1 0x40 MLOAD PUSH1 0x20 ADD PUSH2 0x21F SWAP2 SWAP1 PUSH2 0x2206 JUMP JUMPDEST PUSH1 0x40 MLOAD PUSH1 0x20 DUP2 DUP4 SUB SUB DUP2 MSTORE SWAP1 PUSH1 0x40 MSTORE DUP1 MLOAD SWAP1 PUSH1 0x20 ADD KECCAK256 PUSH1 0x1 DUP4 DUP2 SLOAD DUP2 LT PUSH2 0x249 JUMPI PUSH2 0x248 PUSH2 0x219B JUMP JUMPDEST JUMPDEST SWAP1 PUSH1 0x0 MSTORE PUSH1 0x20 PUSH1 0x0 KECCAK256 SWAP1 PUSH1 0x7 MUL ADD PUSH1 0x5 ADD DUP3 DUP2 SLOAD DUP2 LT PUSH2 0x26C JUMPI PUSH2 0x26B PUSH2 0x219B JUMP JUMPDEST JUMPDEST SWAP1 PUSH1 0x0 MSTORE PUSH1 0x20 PUSH1 0x0 KECCAK256 ADD PUSH1 0x40 MLOAD PUSH1 0x20 ADD PUSH2 0x286 SWAP2 SWAP1 PUSH2 0x2315 JUMP JUMPDEST PUSH1 0x40 MLOAD PUSH1 0x20 DUP2 DUP4 SUB SUB DUP2 MSTORE SWAP1 PUSH1 0x40 MSTORE DUP1 MLOAD SWAP1 PUSH1 0x20 ADD KECCAK256 SUB PUSH2 0x657 JUMPI PUSH1 0x1 DUP3 DUP2 SLOAD DUP2 LT PUSH2 0x2B5 JUMPI PUSH2 0x2B4 PUSH2 0x219B JUMP JUMPDEST JUMPDEST SWAP1 PUSH1 0x0 MSTORE PUSH1 0x20 PUSH1 0x0 KECCAK256 SWAP1 PUSH1 0x7 MUL ADD PUSH1 0x40 MLOAD DUP1 PUSH1 0xE0 ADD PUSH1 0x40 MSTORE SWAP1 DUP2 PUSH1 0x0 DUP3 ADD PUSH1 0x0 SWAP1 SLOAD SWAP1 PUSH2 0x100 EXP SWAP1 DIV PUSH20 0xFFFFFFFFFFFFFFFFFFFFFFFFFFFFFFFFFFFFFFFF AND PUSH20 0xFFFFFFFFFFFFFFFFFFFFFFFFFFFFFFFFFFFFFFFF AND PUSH20 0xFFFFFFFFFFFFFFFFFFFFFFFFFFFFFFFFFFFFFFFF AND DUP2 MSTORE PUSH1 0x20 ADD PUSH1 0x1 DUP3 ADD PUSH1 0x0 SWAP1 SLOAD SWAP1 PUSH2 0x100 EXP SWAP1 DIV PUSH20 0xFFFFFFFFFFFFFFFFFFFFFFFFFFFFFFFFFFFFFFFF AND PUSH20 0xFFFFFFFFFFFFFFFFFFFFFFFFFFFFFFFFFFFFFFFF AND PUSH20 0xFFFFFFFFFFFFFFFFFFFFFFFFFFFFFFFFFFFFFFFF AND DUP2 MSTORE PUSH1 0x20 ADD PUSH1 0x2 DUP3 ADD DUP1 SLOAD PUSH2 0x38A SWAP1 PUSH2 0x224C JUMP JUMPDEST DUP1 PUSH1 0x1F ADD PUSH1 0x20 DUP1 SWAP2 DIV MUL PUSH1 0x20 ADD PUSH1 0x40 MLOAD SWAP1 DUP2 ADD PUSH1 0x40 MSTORE DUP1 SWAP3 SWAP2 SWAP1 DUP2 DUP2 MSTORE PUSH1 0x20 ADD DUP3 DUP1 SLOAD PUSH2 0x3B6 SWAP1 PUSH2 0x224C JUMP JUMPDEST DUP1 ISZERO PUSH2 0x403 JUMPI DUP1 PUSH1 0x1F LT PUSH2 0x3D8 JUMPI PUSH2 0x100 DUP1 DUP4 SLOAD DIV MUL DUP4 MSTORE SWAP2 PUSH1 0x20 ADD SWAP2 PUSH2 0x403 JUMP JUMPDEST DUP3 ADD SWAP2 SWAP1 PUSH1 0x0 MSTORE PUSH1 0x20 PUSH1 0x0 KECCAK256 SWAP1 JUMPDEST DUP2 SLOAD DUP2 MSTORE SWAP1 PUSH1 0x1 ADD SWAP1 PUSH1 0x20 ADD DUP1 DUP4 GT PUSH2 0x3E6 JUMPI DUP3 SWAP1 SUB PUSH1 0x1F AND DUP3 ADD SWAP2 JUMPDEST POP POP POP POP POP DUP2 MSTORE PUSH1 0x20 ADD PUSH1 0x3 DUP3 ADD DUP1 SLOAD PUSH2 0x41C SWAP1 PUSH2 0x224C JUMP JUMPDEST DUP1 PUSH1 0x1F ADD PUSH1 0x20 DUP1 SWAP2 DIV MUL PUSH1 0x20 ADD PUSH1 0x40 MLOAD SWAP1 DUP2 ADD PUSH1 0x40 MSTORE DUP1 SWAP3 SWAP2 SWAP1 DUP2 DUP2 MSTORE PUSH1 0x20 ADD DUP3 DUP1 SLOAD PUSH2 0x448 SWAP1 PUSH2 0x224C JUMP JUMPDEST DUP1 ISZERO PUSH2 0x495 JUMPI DUP1 PUSH1 0x1F LT PUSH2 0x46A JUMPI PUSH2 0x100 DUP1 DUP4 SLOAD DIV MUL DUP4 MSTORE SWAP2 PUSH1 0x20 ADD SWAP2 PUSH2 0x495 JUMP JUMPDEST DUP3 ADD SWAP2 SWAP1 PUSH1 0x0 MSTORE PUSH1 0x20 PUSH1 0x0 KECCAK256 SWAP1 JUMPDEST DUP2 SLOAD DUP2 MSTORE SWAP1 PUSH1 0x1 ADD SWAP1 PUSH1 0x20 ADD DUP1 DUP4 GT PUSH2 0x478 JUMPI DUP3 SWAP1 SUB PUSH1 0x1F AND DUP3 ADD SWAP2 JUMPDEST POP POP POP POP POP DUP2 MSTORE PUSH1 0x20 ADD PUSH1 0x4 DUP3 ADD PUSH1 0x0 SWAP1 SLOAD SWAP1 PUSH2 0x100 EXP SWAP1 DIV PUSH1 0xFF AND PUSH1 0xFF AND PUSH1 0xFF AND DUP2 MSTORE PUSH1 0x20 ADD PUSH1 0x5 DUP3 ADD DUP1 SLOAD DUP1 PUSH1 0x20 MUL PUSH1 0x20 ADD PUSH1 0x40 MLOAD SWAP1 DUP2 ADD PUSH1 0x40 MSTORE DUP1 SWAP3 SWAP2 SWAP1 DUP2 DUP2 MSTORE PUSH1 0x20 ADD PUSH1 0x0 SWAP1 JUMPDEST DUP3 DUP3 LT ISZERO PUSH2 0x58C JUMPI DUP4 DUP3 SWAP1 PUSH1 0x0 MSTORE PUSH1 0x20 PUSH1 0x0 KECCAK256 ADD DUP1 SLOAD PUSH2 0x4FF SWAP1 PUSH2 0x224C JUMP JUMPDEST DUP1 PUSH1 0x1F ADD PUSH1 0x20 DUP1 SWAP2 DIV MUL PUSH1 0x20 ADD PUSH1 0x40 MLOAD SWAP1 DUP2 ADD PUSH1 0x40 MSTORE DUP1 SWAP3 SWAP2 SWAP1 DUP2 DUP2 MSTORE PUSH1 0x20 ADD DUP3 DUP1 SLOAD PUSH2 0x52B SWAP1 PUSH2 0x224C JUMP JUMPDEST DUP1 ISZERO PUSH2 0x578 JUMPI DUP1 PUSH1 0x1F LT PUSH2 0x54D JUMPI PUSH2 0x100 DUP1 DUP4 SLOAD DIV MUL DUP4 MSTORE SWAP2 PUSH1 0x20 ADD SWAP2 PUSH2 0x578 JUMP JUMPDEST DUP3 ADD SWAP2 SWAP1 PUSH1 0x0 MSTORE PUSH1 0x20 PUSH1 0x0 KECCAK256 SWAP1 JUMPDEST DUP2 SLOAD DUP2 MSTORE SWAP1 PUSH1 0x1 ADD SWAP1 PUSH1 0x20 ADD DUP1 DUP4 GT PUSH2 0x55B JUMPI DUP3 SWAP1 SUB PUSH1 0x1F AND DUP3 ADD SWAP2 JUMPDEST POP POP POP POP POP DUP2 MSTORE PUSH1 0x20 ADD SWAP1 PUSH1 0x1 ADD SWAP1 PUSH2 0x4E0 JUMP JUMPDEST POP POP POP POP DUP2 MSTORE PUSH1 0x20 ADD PUSH1 0x6 DUP3 ADD DUP1 SLOAD PUSH2 0x5A4 SWAP1 PUSH2 0x224C JUMP JUMPDEST DUP1 PUSH1 0x1F ADD PUSH1 0x20 DUP1 SWAP2 DIV MUL PUSH1 0x20 ADD PUSH1 0x40 MLOAD SWAP1 DUP2 ADD PUSH1 0x40 MSTORE DUP1 SWAP3 SWAP2 SWAP1 DUP2 DUP2 MSTORE PUSH1 0x20 ADD DUP3 DUP1 SLOAD PUSH2 0x5D0 SWAP1 PUSH2 0x224C JUMP JUMPDEST DUP1 ISZERO PUSH2 0x61D JUMPI DUP1 PUSH1 0x1F LT PUSH2 0x5F2 JUMPI PUSH2 0x100 DUP1 DUP4 SLOAD DIV MUL DUP4 MSTORE SWAP2 PUSH1 0x20 ADD SWAP2 PUSH2 0x61D JUMP JUMPDEST DUP3 ADD SWAP2 SWAP1 PUSH1 0x0 MSTORE PUSH1 0x20 PUSH1 0x0 KECCAK256 SWAP1 JUMPDEST DUP2 SLOAD DUP2 MSTORE SWAP1 PUSH1 0x1 ADD SWAP1 PUSH1 0x20 ADD DUP1 DUP4 GT PUSH2 0x600 JUMPI DUP3 SWAP1 SUB PUSH1 0x1F AND DUP3 ADD SWAP2 JUMPDEST POP POP POP POP POP DUP2 MSTORE POP POP DUP5 DUP5 DUP2 MLOAD DUP2 LT PUSH2 0x639 JUMPI PUSH2 0x638 PUSH2 0x219B JUMP JUMPDEST JUMPDEST PUSH1 0x20 MUL PUSH1 0x20 ADD ADD DUP2 SWAP1 MSTORE POP DUP3 DUP1 PUSH2 0x64F SWAP1 PUSH2 0x235B JUMP JUMPDEST SWAP4 POP POP PUSH2 0x664 JUMP JUMPDEST DUP1 DUP1 PUSH1 0x1 ADD SWAP2 POP POP PUSH2 0x1DE JUMP JUMPDEST POP DUP1 DUP1 PUSH1 0x1 ADD SWAP2 POP POP PUSH2 0x1CE JUMP JUMPDEST POP PUSH1 0x0 DUP2 PUSH8 0xFFFFFFFFFFFFFFFF DUP2 GT ISZERO PUSH2 0x68F JUMPI PUSH2 0x68E PUSH2 0x190B JUMP JUMPDEST JUMPDEST PUSH1 0x40 MLOAD SWAP1 DUP1 DUP3 MSTORE DUP1 PUSH1 0x20 MUL PUSH1 0x20 ADD DUP3 ADD PUSH1 0x40 MSTORE DUP1 ISZERO PUSH2 0x6C8 JUMPI DUP2 PUSH1 0x20 ADD JUMPDEST PUSH2 0x6B5 PUSH2 0x1796 JUMP JUMPDEST DUP2 MSTORE PUSH1 0x20 ADD SWAP1 PUSH1 0x1 SWAP1 SUB SWAP1 DUP2 PUSH2 0x6AD JUMPI SWAP1 POP JUMPDEST POP SWAP1 POP PUSH1 0x0 JUMPDEST DUP3 DUP2 LT ISZERO PUSH2 0x71C JUMPI DUP4 DUP2 DUP2 MLOAD DUP2 LT PUSH2 0x6E9 JUMPI PUSH2 0x6E8 PUSH2 0x219B JUMP JUMPDEST JUMPDEST PUSH1 0x20 MUL PUSH1 0x20 ADD ADD MLOAD DUP3 DUP3 DUP2 MLOAD DUP2 LT PUSH2 0x704 JUMPI PUSH2 0x703 PUSH2 0x219B JUMP JUMPDEST JUMPDEST PUSH1 0x20 MUL PUSH1 0x20 ADD ADD DUP2 SWAP1 MSTORE POP DUP1 DUP1 PUSH1 0x1 ADD SWAP2 POP POP PUSH2 0x6CE JUMP JUMPDEST POP DUP1 SWAP4 POP POP POP POP SWAP2 SWAP1 POP JUMP JUMPDEST PUSH1 0x60 PUSH1 0x0 DUP1 DUP4 PUSH20 0xFFFFFFFFFFFFFFFFFFFFFFFFFFFFFFFFFFFFFFFF AND PUSH20 0xFFFFFFFFFFFFFFFFFFFFFFFFFFFFFFFFFFFFFFFF AND DUP2 MSTORE PUSH1 0x20 ADD SWAP1 DUP2 MSTORE PUSH1 0x20 ADD PUSH1 0x0 KECCAK256 DUP1 SLOAD DUP1 PUSH1 0x20 MUL PUSH1 0x20 ADD PUSH1 0x40 MLOAD SWAP1 DUP2 ADD PUSH1 0x40 MSTORE DUP1 SWAP3 SWAP2 SWAP1 DUP2 DUP2 MSTORE PUSH1 0x20 ADD PUSH1 0x0 SWAP1 JUMPDEST DUP3 DUP3 LT ISZERO PUSH2 0xB12 JUMPI DUP4 DUP3 SWAP1 PUSH1 0x0 MSTORE PUSH1 0x20 PUSH1 0x0 KECCAK256 SWAP1 PUSH1 0x7 MUL ADD PUSH1 0x40 MLOAD DUP1 PUSH1 0xE0 ADD PUSH1 0x40 MSTORE SWAP1 DUP2 PUSH1 0x0 DUP3 ADD PUSH1 0x0 SWAP1 SLOAD SWAP1 PUSH2 0x100 EXP SWAP1 DIV PUSH20 0xFFFFFFFFFFFFFFFFFFFFFFFFFFFFFFFFFFFFFFFF AND PUSH20 0xFFFFFFFFFFFFFFFFFFFFFFFFFFFFFFFFFFFFFFFF AND PUSH20 0xFFFFFFFFFFFFFFFFFFFFFFFFFFFFFFFFFFFFFFFF AND DUP2 MSTORE PUSH1 0x20 ADD PUSH1 0x1 DUP3 ADD PUSH1 0x0 SWAP1 SLOAD SWAP1 PUSH2 0x100 EXP SWAP1 DIV PUSH20 0xFFFFFFFFFFFFFFFFFFFFFFFFFFFFFFFFFFFFFFFF AND PUSH20 0xFFFFFFFFFFFFFFFFFFFFFFFFFFFFFFFFFFFFFFFF AND PUSH20 0xFFFFFFFFFFFFFFFFFFFFFFFFFFFFFFFFFFFFFFFF AND DUP2 MSTORE PUSH1 0x20 ADD PUSH1 0x2 DUP3 ADD DUP1 SLOAD PUSH2 0x867 SWAP1 PUSH2 0x224C JUMP JUMPDEST DUP1 PUSH1 0x1F ADD PUSH1 0x20 DUP1 SWAP2 DIV MUL PUSH1 0x20 ADD PUSH1 0x40 MLOAD SWAP1 DUP2 ADD PUSH1 0x40 MSTORE DUP1 SWAP3 SWAP2 SWAP1 DUP2 DUP2 MSTORE PUSH1 0x20 ADD DUP3 DUP1 SLOAD PUSH2 0x893 SWAP1 PUSH2 0x224C JUMP JUMPDEST DUP1 ISZERO PUSH2 0x8E0 JUMPI DUP1 PUSH1 0x1F LT PUSH2 0x8B5 JUMPI PUSH2 0x100 DUP1 DUP4 SLOAD DIV MUL DUP4 MSTORE SWAP2 PUSH1 0x20 ADD SWAP2 PUSH2 0x8E0 JUMP JUMPDEST DUP3 ADD SWAP2 SWAP1 PUSH1 0x0 MSTORE PUSH1 0x20 PUSH1 0x0 KECCAK256 SWAP1 JUMPDEST DUP2 SLOAD DUP2 MSTORE SWAP1 PUSH1 0x1 ADD SWAP1 PUSH1 0x20 ADD DUP1 DUP4 GT PUSH2 0x8C3 JUMPI DUP3 SWAP1 SUB PUSH1 0x1F AND DUP3 ADD SWAP2 JUMPDEST POP POP POP POP POP DUP2 MSTORE PUSH1 0x20 ADD PUSH1 0x3 DUP3 ADD DUP1 SLOAD PUSH2 0x8F9 SWAP1 PUSH2 0x224C JUMP JUMPDEST DUP1 PUSH1 0x1F ADD PUSH1 0x20 DUP1 SWAP2 DIV MUL PUSH1 0x20 ADD PUSH1 0x40 MLOAD SWAP1 DUP2 ADD PUSH1 0x40 MSTORE DUP1 SWAP3 SWAP2 SWAP1 DUP2 DUP2 MSTORE PUSH1 0x20 ADD DUP3 DUP1 SLOAD PUSH2 0x925 SWAP1 PUSH2 0x224C JUMP JUMPDEST DUP1 ISZERO PUSH2 0x972 JUMPI DUP1 PUSH1 0x1F LT PUSH2 0x947 JUMPI PUSH2 0x100 DUP1 DUP4 SLOAD DIV MUL DUP4 MSTORE SWAP2 PUSH1 0x20 ADD SWAP2 PUSH2 0x972 JUMP JUMPDEST DUP3 ADD SWAP2 SWAP1 PUSH1 0x0 MSTORE PUSH1 0x20 PUSH1 0x0 KECCAK256 SWAP1 JUMPDEST DUP2 SLOAD DUP2 MSTORE SWAP1 PUSH1 0x1 ADD SWAP1 PUSH1 0x20 ADD DUP1 DUP4 GT PUSH2 0x955 JUMPI DUP3 SWAP1 SUB PUSH1 0x1F AND DUP3 ADD SWAP2 JUMPDEST POP POP POP POP POP DUP2 MSTORE PUSH1 0x20 ADD PUSH1 0x4 DUP3 ADD PUSH1 0x0 SWAP1 SLOAD SWAP1 PUSH2 0x100 EXP SWAP1 DIV PUSH1 0xFF AND PUSH1 0xFF AND PUSH1 0xFF AND DUP2 MSTORE PUSH1 0x20 ADD PUSH1 0x5 DUP3 ADD DUP1 SLOAD DUP1 PUSH1 0x20 MUL PUSH1 0x20 ADD PUSH1 0x40 MLOAD SWAP1 DUP2 ADD PUSH1 0x40 MSTORE DUP1 SWAP3 SWAP2 SWAP1 DUP2 DUP2 MSTORE PUSH1 0x20 ADD PUSH1 0x0 SWAP1 JUMPDEST DUP3 DUP3 LT ISZERO PUSH2 0xA69 JUMPI DUP4 DUP3 SWAP1 PUSH1 0x0 MSTORE PUSH1 0x20 PUSH1 0x0 KECCAK256 ADD DUP1 SLOAD PUSH2 0x9DC SWAP1 PUSH2 0x224C JUMP JUMPDEST DUP1 PUSH1 0x1F ADD PUSH1 0x20 DUP1 SWAP2 DIV MUL PUSH1 0x20 ADD PUSH1 0x40 MLOAD SWAP1 DUP2 ADD PUSH1 0x40 MSTORE DUP1 SWAP3 SWAP2 SWAP1 DUP2 DUP2 MSTORE PUSH1 0x20 ADD DUP3 DUP1 SLOAD PUSH2 0xA08 SWAP1 PUSH2 0x224C JUMP JUMPDEST DUP1 ISZERO PUSH2 0xA55 JUMPI DUP1 PUSH1 0x1F LT PUSH2 0xA2A JUMPI PUSH2 0x100 DUP1 DUP4 SLOAD DIV MUL DUP4 MSTORE SWAP2 PUSH1 0x20 ADD SWAP2 PUSH2 0xA55 JUMP JUMPDEST DUP3 ADD SWAP2 SWAP1 PUSH1 0x0 MSTORE PUSH1 0x20 PUSH1 0x0 KECCAK256 SWAP1 JUMPDEST DUP2 SLOAD DUP2 MSTORE SWAP1 PUSH1 0x1 ADD SWAP1 PUSH1 0x20 ADD DUP1 DUP4 GT PUSH2 0xA38 JUMPI DUP3 SWAP1 SUB PUSH1 0x1F AND DUP3 ADD SWAP2 JUMPDEST POP POP POP POP POP DUP2 MSTORE PUSH1 0x20 ADD SWAP1 PUSH1 0x1 ADD SWAP1 PUSH2 0x9BD JUMP JUMPDEST POP POP POP POP DUP2 MSTORE PUSH1 0x20 ADD PUSH1 0x6 DUP3 ADD DUP1 SLOAD PUSH2 0xA81 SWAP1 PUSH2 0x224C JUMP JUMPDEST DUP1 PUSH1 0x1F ADD PUSH1 0x20 DUP1 SWAP2 DIV MUL PUSH1 0x20 ADD PUSH1 0x40 MLOAD SWAP1 DUP2 ADD PUSH1 0x40 MSTORE DUP1 SWAP3 SWAP2 SWAP1 DUP2 DUP2 MSTORE PUSH1 0x20 ADD DUP3 DUP1 SLOAD PUSH2 0xAAD SWAP1 PUSH2 0x224C JUMP JUMPDEST DUP1 ISZERO PUSH2 0xAFA JUMPI DUP1 PUSH1 0x1F LT PUSH2 0xACF JUMPI PUSH2 0x100 DUP1 DUP4 SLOAD DIV MUL DUP4 MSTORE SWAP2 PUSH1 0x20 ADD SWAP2 PUSH2 0xAFA JUMP JUMPDEST DUP3 ADD SWAP2 SWAP1 PUSH1 0x0 MSTORE PUSH1 0x20 PUSH1 0x0 KECCAK256 SWAP1 JUMPDEST DUP2 SLOAD DUP2 MSTORE SWAP1 PUSH1 0x1 ADD SWAP1 PUSH1 0x20 ADD DUP1 DUP4 GT PUSH2 0xADD JUMPI DUP3 SWAP1 SUB PUSH1 0x1F AND DUP3 ADD SWAP2 JUMPDEST POP POP POP POP POP DUP2 MSTORE POP POP DUP2 MSTORE PUSH1 0x20 ADD SWAP1 PUSH1 0x1 ADD SWAP1 PUSH2 0x788 JUMP JUMPDEST POP POP POP POP SWAP1 POP SWAP2 SWAP1 POP JUMP JUMPDEST PUSH1 0x0 PUSH1 0x20 MSTORE DUP2 PUSH1 0x0 MSTORE PUSH1 0x40 PUSH1 0x0 KECCAK256 DUP2 DUP2 SLOAD DUP2 LT PUSH2 0xB39 JUMPI PUSH1 0x0 DUP1 REVERT JUMPDEST SWAP1 PUSH1 0x0 MSTORE PUSH1 0x20 PUSH1 0x0 KECCAK256 SWAP1 PUSH1 0x7 MUL ADD PUSH1 0x0 SWAP2 POP SWAP2 POP POP DUP1 PUSH1 0x0 ADD PUSH1 0x0 SWAP1 SLOAD SWAP1 PUSH2 0x100 EXP SWAP1 DIV PUSH20 0xFFFFFFFFFFFFFFFFFFFFFFFFFFFFFFFFFFFFFFFF AND SWAP1 DUP1 PUSH1 0x1 ADD PUSH1 0x0 SWAP1 SLOAD SWAP1 PUSH2 0x100 EXP SWAP1 DIV PUSH20 0xFFFFFFFFFFFFFFFFFFFFFFFFFFFFFFFFFFFFFFFF AND SWAP1 DUP1 PUSH1 0x2 ADD DUP1 SLOAD PUSH2 0xBA9 SWAP1 PUSH2 0x224C JUMP JUMPDEST DUP1 PUSH1 0x1F ADD PUSH1 0x20 DUP1 SWAP2 DIV MUL PUSH1 0x20 ADD PUSH1 0x40 MLOAD SWAP1 DUP2 ADD PUSH1 0x40 MSTORE DUP1 SWAP3 SWAP2 SWAP1 DUP2 DUP2 MSTORE PUSH1 0x20 ADD DUP3 DUP1 SLOAD PUSH2 0xBD5 SWAP1 PUSH2 0x224C JUMP JUMPDEST DUP1 ISZERO PUSH2 0xC22 JUMPI DUP1 PUSH1 0x1F LT PUSH2 0xBF7 JUMPI PUSH2 0x100 DUP1 DUP4 SLOAD DIV MUL DUP4 MSTORE SWAP2 PUSH1 0x20 ADD SWAP2 PUSH2 0xC22 JUMP JUMPDEST DUP3 ADD SWAP2 SWAP1 PUSH1 0x0 MSTORE PUSH1 0x20 PUSH1 0x0 KECCAK256 SWAP1 JUMPDEST DUP2 SLOAD DUP2 MSTORE SWAP1 PUSH1 0x1 ADD SWAP1 PUSH1 0x20 ADD DUP1 DUP4 GT PUSH2 0xC05 JUMPI DUP3 SWAP1 SUB PUSH1 0x1F AND DUP3 ADD SWAP2 JUMPDEST POP POP POP POP POP SWAP1 DUP1 PUSH1 0x3 ADD DUP1 SLOAD PUSH2 0xC37 SWAP1 PUSH2 0x224C JUMP JUMPDEST DUP1 PUSH1 0x1F ADD PUSH1 0x20 DUP1 SWAP2 DIV MUL PUSH1 0x20 ADD PUSH1 0x40 MLOAD SWAP1 DUP2 ADD PUSH1 0x40 MSTORE DUP1 SWAP3 SWAP2 SWAP1 DUP2 DUP2 MSTORE PUSH1 0x20 ADD DUP3 DUP1 SLOAD PUSH2 0xC63 SWAP1 PUSH2 0x224C JUMP JUMPDEST DUP1 ISZERO PUSH2 0xCB0 JUMPI DUP1 PUSH1 0x1F LT PUSH2 0xC85 JUMPI PUSH2 0x100 DUP1 DUP4 SLOAD DIV MUL DUP4 MSTORE SWAP2 PUSH1 0x20 ADD SWAP2 PUSH2 0xCB0 JUMP JUMPDEST DUP3 ADD SWAP2 SWAP1 PUSH1 0x0 MSTORE PUSH1 0x20 PUSH1 0x0 KECCAK256 SWAP1 JUMPDEST DUP2 SLOAD DUP2 MSTORE SWAP1 PUSH1 0x1 ADD SWAP1 PUSH1 0x20 ADD DUP1 DUP4 GT PUSH2 0xC93 JUMPI DUP3 SWAP1 SUB PUSH1 0x1F AND DUP3 ADD SWAP2 JUMPDEST POP POP POP POP POP SWAP1 DUP1 PUSH1 0x4 ADD PUSH1 0x0 SWAP1 SLOAD SWAP1 PUSH2 0x100 EXP SWAP1 DIV PUSH1 0xFF AND SWAP1 DUP1 PUSH1 0x6 ADD DUP1 SLOAD PUSH2 0xCD8 SWAP1 PUSH2 0x224C JUMP JUMPDEST DUP1 PUSH1 0x1F ADD PUSH1 0x20 DUP1 SWAP2 DIV MUL PUSH1 0x20 ADD PUSH1 0x40 MLOAD SWAP1 DUP2 ADD PUSH1 0x40 MSTORE DUP1 SWAP3 SWAP2 SWAP1 DUP2 DUP2 MSTORE PUSH1 0x20 ADD DUP3 DUP1 SLOAD PUSH2 0xD04 SWAP1 PUSH2 0x224C JUMP JUMPDEST DUP1 ISZERO PUSH2 0xD51 JUMPI DUP1 PUSH1 0x1F LT PUSH2 0xD26 JUMPI PUSH2 0x100 DUP1 DUP4 SLOAD DIV MUL DUP4 MSTORE SWAP2 PUSH1 0x20 ADD SWAP2 PUSH2 0xD51 JUMP JUMPDEST DUP3 ADD SWAP2 SWAP1 PUSH1 0x0 MSTORE PUSH1 0x20 PUSH1 0x0 KECCAK256 SWAP1 JUMPDEST DUP2 SLOAD DUP2 MSTORE SWAP1 PUSH1 0x1 ADD SWAP1 PUSH1 0x20 ADD DUP1 DUP4 GT PUSH2 0xD34 JUMPI DUP3 SWAP1 SUB PUSH1 0x1F AND DUP3 ADD SWAP2 JUMPDEST POP POP POP POP POP SWAP1 POP DUP7 JUMP JUMPDEST PUSH1 0x60 PUSH1 0x1 DUP1 SLOAD DUP1 PUSH1 0x20 MUL PUSH1 0x20 ADD PUSH1 0x40 MLOAD SWAP1 DUP2 ADD PUSH1 0x40 MSTORE DUP1 SWAP3 SWAP2 SWAP1 DUP2 DUP2 MSTORE PUSH1 0x20 ADD PUSH1 0x0 SWAP1 JUMPDEST DUP3 DUP3 LT ISZERO PUSH2 0x1109 JUMPI DUP4 DUP3 SWAP1 PUSH1 0x0 MSTORE PUSH1 0x20 PUSH1 0x0 KECCAK256 SWAP1 PUSH1 0x7 MUL ADD PUSH1 0x40 MLOAD DUP1 PUSH1 0xE0 ADD PUSH1 0x40 MSTORE SWAP1 DUP2 PUSH1 0x0 DUP3 ADD PUSH1 0x0 SWAP1 SLOAD SWAP1 PUSH2 0x100 EXP SWAP1 DIV PUSH20 0xFFFFFFFFFFFFFFFFFFFFFFFFFFFFFFFFFFFFFFFF AND PUSH20 0xFFFFFFFFFFFFFFFFFFFFFFFFFFFFFFFFFFFFFFFF AND PUSH20 0xFFFFFFFFFFFFFFFFFFFFFFFFFFFFFFFFFFFFFFFF AND DUP2 MSTORE PUSH1 0x20 ADD PUSH1 0x1 DUP3 ADD PUSH1 0x0 SWAP1 SLOAD SWAP1 PUSH2 0x100 EXP SWAP1 DIV PUSH20 0xFFFFFFFFFFFFFFFFFFFFFFFFFFFFFFFFFFFFFFFF AND PUSH20 0xFFFFFFFFFFFFFFFFFFFFFFFFFFFFFFFFFFFFFFFF AND PUSH20 0xFFFFFFFFFFFFFFFFFFFFFFFFFFFFFFFFFFFFFFFF AND DUP2 MSTORE PUSH1 0x20 ADD PUSH1 0x2 DUP3 ADD DUP1 SLOAD PUSH2 0xE5E SWAP1 PUSH2 0x224C JUMP JUMPDEST DUP1 PUSH1 0x1F ADD PUSH1 0x20 DUP1 SWAP2 DIV MUL PUSH1 0x20 ADD PUSH1 0x40 MLOAD SWAP1 DUP2 ADD PUSH1 0x40 MSTORE DUP1 SWAP3 SWAP2 SWAP1 DUP2 DUP2 MSTORE PUSH1 0x20 ADD DUP3 DUP1 SLOAD PUSH2 0xE8A SWAP1 PUSH2 0x224C JUMP JUMPDEST DUP1 ISZERO PUSH2 0xED7 JUMPI DUP1 PUSH1 0x1F LT PUSH2 0xEAC JUMPI PUSH2 0x100 DUP1 DUP4 SLOAD DIV MUL DUP4 MSTORE SWAP2 PUSH1 0x20 ADD SWAP2 PUSH2 0xED7 JUMP JUMPDEST DUP3 ADD SWAP2 SWAP1 PUSH1 0x0 MSTORE PUSH1 0x20 PUSH1 0x0 KECCAK256 SWAP1 JUMPDEST DUP2 SLOAD DUP2 MSTORE SWAP1 PUSH1 0x1 ADD SWAP1 PUSH1 0x20 ADD DUP1 DUP4 GT PUSH2 0xEBA JUMPI DUP3 SWAP1 SUB PUSH1 0x1F AND DUP3 ADD SWAP2 JUMPDEST POP POP POP POP POP DUP2 MSTORE PUSH1 0x20 ADD PUSH1 0x3 DUP3 ADD DUP1 SLOAD PUSH2 0xEF0 SWAP1 PUSH2 0x224C JUMP JUMPDEST DUP1 PUSH1 0x1F ADD PUSH1 0x20 DUP1 SWAP2 DIV MUL PUSH1 0x20 ADD PUSH1 0x40 MLOAD SWAP1 DUP2 ADD PUSH1 0x40 MSTORE DUP1 SWAP3 SWAP2 SWAP1 DUP2 DUP2 MSTORE PUSH1 0x20 ADD DUP3 DUP1 SLOAD PUSH2 0xF1C SWAP1 PUSH2 0x224C JUMP JUMPDEST DUP1 ISZERO PUSH2 0xF69 JUMPI DUP1 PUSH1 0x1F LT PUSH2 0xF3E JUMPI PUSH2 0x100 DUP1 DUP4 SLOAD DIV MUL DUP4 MSTORE SWAP2 PUSH1 0x20 ADD SWAP2 PUSH2 0xF69 JUMP JUMPDEST DUP3 ADD SWAP2 SWAP1 PUSH1 0x0 MSTORE PUSH1 0x20 PUSH1 0x0 KECCAK256 SWAP1 JUMPDEST DUP2 SLOAD DUP2 MSTORE SWAP1 PUSH1 0x1 ADD SWAP1 PUSH1 0x20 ADD DUP1 DUP4 GT PUSH2 0xF4C JUMPI DUP3 SWAP1 SUB PUSH1 0x1F AND DUP3 ADD SWAP2 JUMPDEST POP POP POP POP POP DUP2 MSTORE PUSH1 0x20 ADD PUSH1 0x4 DUP3 ADD PUSH1 0x0 SWAP1 SLOAD SWAP1 PUSH2 0x100 EXP SWAP1 DIV PUSH1 0xFF AND PUSH1 0xFF AND PUSH1 0xFF AND DUP2 MSTORE PUSH1 0x20 ADD PUSH1 0x5 DUP3 ADD DUP1 SLOAD DUP1 PUSH1 0x20 MUL PUSH1 0x20 ADD PUSH1 0x40 MLOAD SWAP1 DUP2 ADD PUSH1 0x40 MSTORE DUP1 SWAP3 SWAP2 SWAP1 DUP2 DUP2 MSTORE PUSH1 0x20 ADD PUSH1 0x0 SWAP1 JUMPDEST DUP3 DUP3 LT ISZERO PUSH2 0x1060 JUMPI DUP4 DUP3 SWAP1 PUSH1 0x0 MSTORE PUSH1 0x20 PUSH1 0x0 KECCAK256 ADD DUP1 SLOAD PUSH2 0xFD3 SWAP1 PUSH2 0x224C JUMP JUMPDEST DUP1 PUSH1 0x1F ADD PUSH1 0x20 DUP1 SWAP2 DIV MUL PUSH1 0x20 ADD PUSH1 0x40 MLOAD SWAP1 DUP2 ADD PUSH1 0x40 MSTORE DUP1 SWAP3 SWAP2 SWAP1 DUP2 DUP2 MSTORE PUSH1 0x20 ADD DUP3 DUP1 SLOAD PUSH2 0xFFF SWAP1 PUSH2 0x224C JUMP JUMPDEST DUP1 ISZERO PUSH2 0x104C JUMPI DUP1 PUSH1 0x1F LT PUSH2 0x1021 JUMPI PUSH2 0x100 DUP1 DUP4 SLOAD DIV MUL DUP4 MSTORE SWAP2 PUSH1 0x20 ADD SWAP2 PUSH2 0x104C JUMP JUMPDEST DUP3 ADD SWAP2 SWAP1 PUSH1 0x0 MSTORE PUSH1 0x20 PUSH1 0x0 KECCAK256 SWAP1 JUMPDEST DUP2 SLOAD DUP2 MSTORE SWAP1 PUSH1 0x1 ADD SWAP1 PUSH1 0x20 ADD DUP1 DUP4 GT PUSH2 0x102F JUMPI DUP3 SWAP1 SUB PUSH1 0x1F AND DUP3 ADD SWAP2 JUMPDEST POP POP POP POP POP DUP2 MSTORE PUSH1 0x20 ADD SWAP1 PUSH1 0x1 ADD SWAP1 PUSH2 0xFB4 JUMP JUMPDEST POP POP POP POP DUP2 MSTORE PUSH1 0x20 ADD PUSH1 0x6 DUP3 ADD DUP1 SLOAD PUSH2 0x1078 SWAP1 PUSH2 0x224C JUMP JUMPDEST DUP1 PUSH1 0x1F ADD PUSH1 0x20 DUP1 SWAP2 DIV MUL PUSH1 0x20 ADD PUSH1 0x40 MLOAD SWAP1 DUP2 ADD PUSH1 0x40 MSTORE DUP1 SWAP3 SWAP2 SWAP1 DUP2 DUP2 MSTORE PUSH1 0x20 ADD DUP3 DUP1 SLOAD PUSH2 0x10A4 SWAP1 PUSH2 0x224C JUMP JUMPDEST DUP1 ISZERO PUSH2 0x10F1 JUMPI DUP1 PUSH1 0x1F LT PUSH2 0x10C6 JUMPI PUSH2 0x100 DUP1 DUP4 SLOAD DIV MUL DUP4 MSTORE SWAP2 PUSH1 0x20 ADD SWAP2 PUSH2 0x10F1 JUMP JUMPDEST DUP3 ADD SWAP2 SWAP1 PUSH1 0x0 MSTORE PUSH1 0x20 PUSH1 0x0 KECCAK256 SWAP1 JUMPDEST DUP2 SLOAD DUP2 MSTORE SWAP1 PUSH1 0x1 ADD SWAP1 PUSH1 0x20 ADD DUP1 DUP4 GT PUSH2 0x10D4 JUMPI DUP3 SWAP1 SUB PUSH1 0x1F AND DUP3 ADD SWAP2 JUMPDEST POP POP POP POP POP DUP2 MSTORE POP POP DUP2 MSTORE PUSH1 0x20 ADD SWAP1 PUSH1 0x1 ADD SWAP1 PUSH2 0xD7F JUMP JUMPDEST POP POP POP POP SWAP1 POP SWAP1 JUMP JUMPDEST CALLER PUSH20 0xFFFFFFFFFFFFFFFFFFFFFFFFFFFFFFFFFFFFFFFF AND DUP7 PUSH20 0xFFFFFFFFFFFFFFFFFFFFFFFFFFFFFFFFFFFFFFFF AND SUB PUSH2 0x1180 JUMPI PUSH1 0x40 MLOAD PUSH32 0x8C379A000000000000000000000000000000000000000000000000000000000 DUP2 MSTORE PUSH1 0x4 ADD PUSH2 0x1177 SWAP1 PUSH2 0x23EF JUMP JUMPDEST PUSH1 0x40 MLOAD DUP1 SWAP2 SUB SWAP1 REVERT JUMPDEST PUSH1 0x1 DUP4 PUSH1 0xFF AND LT ISZERO DUP1 ISZERO PUSH2 0x1198 JUMPI POP PUSH1 0x5 DUP4 PUSH1 0xFF AND GT ISZERO JUMPDEST PUSH2 0x11D7 JUMPI PUSH1 0x40 MLOAD PUSH32 0x8C379A000000000000000000000000000000000000000000000000000000000 DUP2 MSTORE PUSH1 0x4 ADD PUSH2 0x11CE SWAP1 PUSH2 0x245B JUMP JUMPDEST PUSH1 0x40 MLOAD DUP1 SWAP2 SUB SWAP1 REVERT JUMPDEST PUSH1 0x0 PUSH1 0x40 MLOAD DUP1 PUSH1 0xE0 ADD PUSH1 0x40 MSTORE DUP1 CALLER PUSH20 0xFFFFFFFFFFFFFFFFFFFFFFFFFFFFFFFFFFFFFFFF AND DUP2 MSTORE PUSH1 0x20 ADD DUP9 PUSH20 0xFFFFFFFFFFFFFFFFFFFFFFFFFFFFFFFFFFFFFFFF AND DUP2 MSTORE PUSH1 0x20 ADD DUP8 DUP2 MSTORE PUSH1 0x20 ADD DUP7 DUP2 MSTORE PUSH1 0x20 ADD DUP6 PUSH1 0xFF AND DUP2 MSTORE PUSH1 0x20 ADD DUP5 DUP2 MSTORE PUSH1 0x20 ADD DUP4 DUP2 MSTORE POP SWAP1 POP PUSH1 0x0 DUP1 DUP9 PUSH20 0xFFFFFFFFFFFFFFFFFFFFFFFFFFFFFFFFFFFFFFFF AND PUSH20 0xFFFFFFFFFFFFFFFFFFFFFFFFFFFFFFFFFFFFFFFF AND DUP2 MSTORE PUSH1 0x20 ADD SWAP1 DUP2 MSTORE PUSH1 0x20 ADD PUSH1 0x0 KECCAK256 DUP2 SWAP1 DUP1 PUSH1 0x1 DUP2 SLOAD ADD DUP1 DUP3 SSTORE DUP1 SWAP2 POP POP PUSH1 0x1 SWAP1 SUB SWAP1 PUSH1 0x0 MSTORE PUSH1 0x20 PUSH1 0x0 KECCAK256 SWAP1 PUSH1 0x7 MUL ADD PUSH1 0x0 SWAP1 SWAP2 SWAP1 SWAP2 SWAP1 SWAP2 POP PUSH1 0x0 DUP3 ADD MLOAD DUP2 PUSH1 0x0 ADD PUSH1 0x0 PUSH2 0x100 EXP DUP2 SLOAD DUP2 PUSH20 0xFFFFFFFFFFFFFFFFFFFFFFFFFFFFFFFFFFFFFFFF MUL NOT AND SWAP1 DUP4 PUSH20 0xFFFFFFFFFFFFFFFFFFFFFFFFFFFFFFFFFFFFFFFF AND MUL OR SWAP1 SSTORE POP PUSH1 0x20 DUP3 ADD MLOAD DUP2 PUSH1 0x1 ADD PUSH1 0x0 PUSH2 0x100 EXP DUP2 SLOAD DUP2 PUSH20 0xFFFFFFFFFFFFFFFFFFFFFFFFFFFFFFFFFFFFFFFF MUL NOT AND SWAP1 DUP4 PUSH20 0xFFFFFFFFFFFFFFFFFFFFFFFFFFFFFFFFFFFFFFFF AND MUL OR SWAP1 SSTORE POP PUSH1 0x40 DUP3 ADD MLOAD DUP2 PUSH1 0x2 ADD SWAP1 DUP2 PUSH2 0x1348 SWAP2 SWAP1 PUSH2 0x2612 JUMP JUMPDEST POP PUSH1 0x60 DUP3 ADD MLOAD DUP2 PUSH1 0x3 ADD SWAP1 DUP2 PUSH2 0x135E SWAP2 SWAP1 PUSH2 0x2612 JUMP JUMPDEST POP PUSH1 0x80 DUP3 ADD MLOAD DUP2 PUSH1 0x4 ADD PUSH1 0x0 PUSH2 0x100 EXP DUP2 SLOAD DUP2 PUSH1 0xFF MUL NOT AND SWAP1 DUP4 PUSH1 0xFF AND MUL OR SWAP1 SSTORE POP PUSH1 0xA0 DUP3 ADD MLOAD DUP2 PUSH1 0x5 ADD SWAP1 DUP1 MLOAD SWAP1 PUSH1 0x20 ADD SWAP1 PUSH2 0x139C SWAP3 SWAP2 SWAP1 PUSH2 0x1802 JUMP JUMPDEST POP PUSH1 0xC0 DUP3 ADD MLOAD DUP2 PUSH1 0x6 ADD SWAP1 DUP2 PUSH2 0x13B2 SWAP2 SWAP1 PUSH2 0x2612 JUMP JUMPDEST POP POP POP PUSH1 0x1 DUP2 SWAP1 DUP1 PUSH1 0x1 DUP2 SLOAD ADD DUP1 DUP3 SSTORE DUP1 SWAP2 POP POP PUSH1 0x1 SWAP1 SUB SWAP1 PUSH1 0x0 MSTORE PUSH1 0x20 PUSH1 0x0 KECCAK256 SWAP1 PUSH1 0x7 MUL ADD PUSH1 0x0 SWAP1 SWAP2 SWAP1 SWAP2 SWAP1 SWAP2 POP PUSH1 0x0 DUP3 ADD MLOAD DUP2 PUSH1 0x0 ADD PUSH1 0x0 PUSH2 0x100 EXP DUP2 SLOAD DUP2 PUSH20 0xFFFFFFFFFFFFFFFFFFFFFFFFFFFFFFFFFFFFFFFF MUL NOT AND SWAP1 DUP4 PUSH20 0xFFFFFFFFFFFFFFFFFFFFFFFFFFFFFFFFFFFFFFFF AND MUL OR SWAP1 SSTORE POP PUSH1 0x20 DUP3 ADD MLOAD DUP2 PUSH1 0x1 ADD PUSH1 0x0 PUSH2 0x100 EXP DUP2 SLOAD DUP2 PUSH20 0xFFFFFFFFFFFFFFFFFFFFFFFFFFFFFFFFFFFFFFFF MUL NOT AND SWAP1 DUP4 PUSH20 0xFFFFFFFFFFFFFFFFFFFFFFFFFFFFFFFFFFFFFFFF AND MUL OR SWAP1 SSTORE POP PUSH1 0x40 DUP3 ADD MLOAD DUP2 PUSH1 0x2 ADD SWAP1 DUP2 PUSH2 0x1484 SWAP2 SWAP1 PUSH2 0x2612 JUMP JUMPDEST POP PUSH1 0x60 DUP3 ADD MLOAD DUP2 PUSH1 0x3 ADD SWAP1 DUP2 PUSH2 0x149A SWAP2 SWAP1 PUSH2 0x2612 JUMP JUMPDEST POP PUSH1 0x80 DUP3 ADD MLOAD DUP2 PUSH1 0x4 ADD PUSH1 0x0 PUSH2 0x100 EXP DUP2 SLOAD DUP2 PUSH1 0xFF MUL NOT AND SWAP1 DUP4 PUSH1 0xFF AND MUL OR SWAP1 SSTORE POP PUSH1 0xA0 DUP3 ADD MLOAD DUP2 PUSH1 0x5 ADD SWAP1 DUP1 MLOAD SWAP1 PUSH1 0x20 ADD SWAP1 PUSH2 0x14D8 SWAP3 SWAP2 SWAP1 PUSH2 0x1802 JUMP JUMPDEST POP PUSH1 0xC0 DUP3 ADD MLOAD DUP2 PUSH1 0x6 ADD SWAP1 DUP2 PUSH2 0x14EE SWAP2 SWAP1 PUSH2 0x2612 JUMP JUMPDEST POP POP POP DUP7 PUSH20 0xFFFFFFFFFFFFFFFFFFFFFFFFFFFFFFFFFFFFFFFF AND CALLER PUSH20 0xFFFFFFFFFFFFFFFFFFFFFFFFFFFFFFFFFFFFFFFF AND PUSH32 0x1FFDC7D43C0353D9E514786483E729EE6C900D86E1029A05EBAB1F94CA621943 DUP9 DUP8 DUP8 DUP8 PUSH1 0x40 MLOAD PUSH2 0x1554 SWAP5 SWAP4 SWAP3 SWAP2 SWAP1 PUSH2 0x276A JUMP JUMPDEST PUSH1 0x40 MLOAD DUP1 SWAP2 SUB SWAP1 LOG3 POP POP POP POP POP POP POP JUMP JUMPDEST PUSH1 0x1 DUP2 DUP2 SLOAD DUP2 LT PUSH2 0x1575 JUMPI PUSH1 0x0 DUP1 REVERT JUMPDEST SWAP1 PUSH1 0x0 MSTORE PUSH1 0x20 PUSH1 0x0 KECCAK256 SWAP1 PUSH1 0x7 MUL ADD PUSH1 0x0 SWAP2 POP SWAP1 POP DUP1 PUSH1 0x0 ADD PUSH1 0x0 SWAP1 SLOAD SWAP1 PUSH2 0x100 EXP SWAP1 DIV PUSH20 0xFFFFFFFFFFFFFFFFFFFFFFFFFFFFFFFFFFFFFFFF AND SWAP1 DUP1 PUSH1 0x1 ADD PUSH1 0x0 SWAP1 SLOAD SWAP1 PUSH2 0x100 EXP SWAP1 DIV PUSH20 0xFFFFFFFFFFFFFFFFFFFFFFFFFFFFFFFFFFFFFFFF AND SWAP1 DUP1 PUSH1 0x2 ADD DUP1 SLOAD PUSH2 0x15E4 SWAP1 PUSH2 0x224C JUMP JUMPDEST DUP1 PUSH1 0x1F ADD PUSH1 0x20 DUP1 SWAP2 DIV MUL PUSH1 0x20 ADD PUSH1 0x40 MLOAD SWAP1 DUP2 ADD PUSH1 0x40 MSTORE DUP1 SWAP3 SWAP2 SWAP1 DUP2 DUP2 MSTORE PUSH1 0x20 ADD DUP3 DUP1 SLOAD PUSH2 0x1610 SWAP1 PUSH2 0x224C JUMP JUMPDEST DUP1 ISZERO PUSH2 0x165D JUMPI DUP1 PUSH1 0x1F LT PUSH2 0x1632 JUMPI PUSH2 0x100 DUP1 DUP4 SLOAD DIV MUL DUP4 MSTORE SWAP2 PUSH1 0x20 ADD SWAP2 PUSH2 0x165D JUMP JUMPDEST DUP3 ADD SWAP2 SWAP1 PUSH1 0x0 MSTORE PUSH1 0x20 PUSH1 0x0 KECCAK256 SWAP1 JUMPDEST DUP2 SLOAD DUP2 MSTORE SWAP1 PUSH1 0x1 ADD SWAP1 PUSH1 0x20 ADD DUP1 DUP4 GT PUSH2 0x1640 JUMPI DUP3 SWAP1 SUB PUSH1 0x1F AND DUP3 ADD SWAP2 JUMPDEST POP POP POP POP POP SWAP1 DUP1 PUSH1 0x3 ADD DUP1 SLOAD PUSH2 0x1672 SWAP1 PUSH2 0x224C JUMP JUMPDEST DUP1 PUSH1 0x1F ADD PUSH1 0x20 DUP1 SWAP2 DIV MUL PUSH1 0x20 ADD PUSH1 0x40 MLOAD SWAP1 DUP2 ADD PUSH1 0x40 MSTORE DUP1 SWAP3 SWAP2 SWAP1 DUP2 DUP2 MSTORE PUSH1 0x20 ADD DUP3 DUP1 SLOAD PUSH2 0x169E SWAP1 PUSH2 0x224C JUMP JUMPDEST DUP1 ISZERO PUSH2 0x16EB JUMPI DUP1 PUSH1 0x1F LT PUSH2 0x16C0 JUMPI PUSH2 0x100 DUP1 DUP4 SLOAD DIV MUL DUP4 MSTORE SWAP2 PUSH1 0x20 ADD SWAP2 PUSH2 0x16EB JUMP JUMPDEST DUP3 ADD SWAP2 SWAP1 PUSH1 0x0 MSTORE PUSH1 0x20 PUSH1 0x0 KECCAK256 SWAP1 JUMPDEST DUP2 SLOAD DUP2 MSTORE SWAP1 PUSH1 0x1 ADD SWAP1 PUSH1 0x20 ADD DUP1 DUP4 GT PUSH2 0x16CE JUMPI DUP3 SWAP1 SUB PUSH1 0x1F AND DUP3 ADD SWAP2 JUMPDEST POP POP POP POP POP SWAP1 DUP1 PUSH1 0x4 ADD PUSH1 0x0 SWAP1 SLOAD SWAP1 PUSH2 0x100 EXP SWAP1 DIV PUSH1 0xFF AND SWAP1 DUP1 PUSH1 0x6 ADD DUP1 SLOAD PUSH2 0x1713 SWAP1 PUSH2 0x224C JUMP JUMPDEST DUP1 PUSH1 0x1F ADD PUSH1 0x20 DUP1 SWAP2 DIV MUL PUSH1 0x20 ADD PUSH1 0x40 MLOAD SWAP1 DUP2 ADD PUSH1 0x40 MSTORE DUP1 SWAP3 SWAP2 SWAP1 DUP2 DUP2 MSTORE PUSH1 0x20 ADD DUP3 DUP1 SLOAD PUSH2 0x173F SWAP1 PUSH2 0x224C JUMP JUMPDEST DUP1 ISZERO PUSH2 0x178C JUMPI DUP1 PUSH1 0x1F LT PUSH2 0x1761 JUMPI PUSH2 0x100 DUP1 DUP4 SLOAD DIV MUL DUP4 MSTORE SWAP2 PUSH1 0x20 ADD SWAP2 PUSH2 0x178C JUMP JUMPDEST DUP3 ADD SWAP2 SWAP1 PUSH1 0x0 MSTORE PUSH1 0x20 PUSH1 0x0 KECCAK256 SWAP1 JUMPDEST DUP2 SLOAD DUP2 MSTORE SWAP1 PUSH1 0x1 ADD SWAP1 PUSH1 0x20 ADD DUP1 DUP4 GT PUSH2 0x176F JUMPI DUP3 SWAP1 SUB PUSH1 0x1F AND DUP3 ADD SWAP2 JUMPDEST POP POP POP POP POP SWAP1 POP DUP7 JUMP JUMPDEST PUSH1 0x40 MLOAD DUP1 PUSH1 0xE0 ADD PUSH1 0x40 MSTORE DUP1 PUSH1 0x0 PUSH20 0xFFFFFFFFFFFFFFFFFFFFFFFFFFFFFFFFFFFFFFFF AND DUP2 MSTORE PUSH1 0x20 ADD PUSH1 0x0 PUSH20 0xFFFFFFFFFFFFFFFFFFFFFFFFFFFFFFFFFFFFFFFF AND DUP2 MSTORE PUSH1 0x20 ADD PUSH1 0x60 DUP2 MSTORE PUSH1 0x20 ADD PUSH1 0x60 DUP2 MSTORE PUSH1 0x20 ADD PUSH1 0x0 PUSH1 0xFF AND DUP2 MSTORE PUSH1 0x20 ADD PUSH1 0x60 DUP2 MSTORE PUSH1 0x20 ADD PUSH1 0x60 DUP2 MSTORE POP SWAP1 JUMP JUMPDEST DUP3 DUP1 SLOAD DUP3 DUP3 SSTORE SWAP1 PUSH1 0x0 MSTORE PUSH1 0x20 PUSH1 0x0 KECCAK256 SWAP1 DUP2 ADD SWAP3 DUP3 ISZERO PUSH2 0x184A JUMPI SWAP2 PUSH1 0x20 MUL DUP3 ADD JUMPDEST DUP3 DUP2 GT ISZERO PUSH2 0x1849 JUMPI DUP3 MLOAD DUP3 SWAP1 DUP2 PUSH2 0x1839 SWAP2 SWAP1 PUSH2 0x2612 JUMP JUMPDEST POP SWAP2 PUSH1 0x20 ADD SWAP2 SWAP1 PUSH1 0x1 ADD SWAP1 PUSH2 0x1822 JUMP JUMPDEST JUMPDEST POP SWAP1 POP PUSH2 0x1857 SWAP2 SWAP1 PUSH2 0x185B JUMP JUMPDEST POP SWAP1 JUMP JUMPDEST JUMPDEST DUP1 DUP3 GT ISZERO PUSH2 0x187B JUMPI PUSH1 0x0 DUP2 DUP2 PUSH2 0x1872 SWAP2 SWAP1 PUSH2 0x187F JUMP JUMPDEST POP PUSH1 0x1 ADD PUSH2 0x185C JUMP JUMPDEST POP SWAP1 JUMP JUMPDEST POP DUP1 SLOAD PUSH2 0x188B SWAP1 PUSH2 0x224C JUMP JUMPDEST PUSH1 0x0 DUP3 SSTORE DUP1 PUSH1 0x1F LT PUSH2 0x189D JUMPI POP PUSH2 0x18BC JUMP JUMPDEST PUSH1 0x1F ADD PUSH1 0x20 SWAP1 DIV SWAP1 PUSH1 0x0 MSTORE PUSH1 0x20 PUSH1 0x0 KECCAK256 SWAP1 DUP2 ADD SWAP1 PUSH2 0x18BB SWAP2 SWAP1 PUSH2 0x18BF JUMP JUMPDEST JUMPDEST POP JUMP JUMPDEST JUMPDEST DUP1 DUP3 GT ISZERO PUSH2 0x18D8 JUMPI PUSH1 0x0 DUP2 PUSH1 0x0 SWAP1 SSTORE POP PUSH1 0x1 ADD PUSH2 0x18C0 JUMP JUMPDEST POP SWAP1 JUMP JUMPDEST PUSH1 0x0 PUSH1 0x40 MLOAD SWAP1 POP SWAP1 JUMP JUMPDEST PUSH1 0x0 DUP1 REVERT JUMPDEST PUSH1 0x0 DUP1 REVERT JUMPDEST PUSH1 0x0 DUP1 REVERT JUMPDEST PUSH1 0x0 DUP1 REVERT JUMPDEST PUSH1 0x0 PUSH1 0x1F NOT PUSH1 0x1F DUP4 ADD AND SWAP1 POP SWAP2 SWAP1 POP JUMP JUMPDEST PUSH32 0x4E487B7100000000000000000000000000000000000000000000000000000000 PUSH1 0x0 MSTORE PUSH1 0x41 PUSH1 0x4 MSTORE PUSH1 0x24 PUSH1 0x0 REVERT JUMPDEST PUSH2 0x1943 DUP3 PUSH2 0x18FA JUMP JUMPDEST DUP2 ADD DUP2 DUP2 LT PUSH8 0xFFFFFFFFFFFFFFFF DUP3 GT OR ISZERO PUSH2 0x1962 JUMPI PUSH2 0x1961 PUSH2 0x190B JUMP JUMPDEST JUMPDEST DUP1 PUSH1 0x40 MSTORE POP POP POP JUMP JUMPDEST PUSH1 0x0 PUSH2 0x1975 PUSH2 0x18DC JUMP JUMPDEST SWAP1 POP PUSH2 0x1981 DUP3 DUP3 PUSH2 0x193A JUMP JUMPDEST SWAP2 SWAP1 POP JUMP JUMPDEST PUSH1 0x0 PUSH8 0xFFFFFFFFFFFFFFFF DUP3 GT ISZERO PUSH2 0x19A1 JUMPI PUSH2 0x19A0 PUSH2 0x190B JUMP JUMPDEST JUMPDEST PUSH2 0x19AA DUP3 PUSH2 0x18FA JUMP JUMPDEST SWAP1 POP PUSH1 0x20 DUP2 ADD SWAP1 POP SWAP2 SWAP1 POP JUMP JUMPDEST DUP3 DUP2 DUP4 CALLDATACOPY PUSH1 0x0 DUP4 DUP4 ADD MSTORE POP POP POP JUMP JUMPDEST PUSH1 0x0 PUSH2 0x19D9 PUSH2 0x19D4 DUP5 PUSH2 0x1986 JUMP JUMPDEST PUSH2 0x196B JUMP JUMPDEST SWAP1 POP DUP3 DUP2 MSTORE PUSH1 0x20 DUP2 ADD DUP5 DUP5 DUP5 ADD GT ISZERO PUSH2 0x19F5 JUMPI PUSH2 0x19F4 PUSH2 0x18F5 JUMP JUMPDEST JUMPDEST PUSH2 0x1A00 DUP5 DUP3 DUP6 PUSH2 0x19B7 JUMP JUMPDEST POP SWAP4 SWAP3 POP POP POP JUMP JUMPDEST PUSH1 0x0 DUP3 PUSH1 0x1F DUP4 ADD SLT PUSH2 0x1A1D JUMPI PUSH2 0x1A1C PUSH2 0x18F0 JUMP JUMPDEST JUMPDEST DUP2 CALLDATALOAD PUSH2 0x1A2D DUP5 DUP3 PUSH1 0x20 DUP7 ADD PUSH2 0x19C6 JUMP JUMPDEST SWAP2 POP POP SWAP3 SWAP2 POP POP JUMP JUMPDEST PUSH1 0x0 PUSH1 0x20 DUP3 DUP5 SUB SLT ISZERO PUSH2 0x1A4C JUMPI PUSH2 0x1A4B PUSH2 0x18E6 JUMP JUMPDEST JUMPDEST PUSH1 0x0 DUP3 ADD CALLDATALOAD PUSH8 0xFFFFFFFFFFFFFFFF DUP2 GT ISZERO PUSH2 0x1A6A JUMPI PUSH2 0x1A69 PUSH2 0x18EB JUMP JUMPDEST JUMPDEST PUSH2 0x1A76 DUP5 DUP3 DUP6 ADD PUSH2 0x1A08 JUMP JUMPDEST SWAP2 POP POP SWAP3 SWAP2 POP POP JUMP JUMPDEST PUSH1 0x0 DUP2 MLOAD SWAP1 POP SWAP2 SWAP1 POP JUMP JUMPDEST PUSH1 0x0 DUP3 DUP3 MSTORE PUSH1 0x20 DUP3 ADD SWAP1 POP SWAP3 SWAP2 POP POP JUMP JUMPDEST PUSH1 0x0 DUP2 SWAP1 POP PUSH1 0x20 DUP3 ADD SWAP1 POP SWAP2 SWAP1 POP JUMP JUMPDEST PUSH1 0x0 PUSH20 0xFFFFFFFFFFFFFFFFFFFFFFFFFFFFFFFFFFFFFFFF DUP3 AND SWAP1 POP SWAP2 SWAP1 POP JUMP JUMPDEST PUSH1 0x0 PUSH2 0x1AD6 DUP3 PUSH2 0x1AAB JUMP JUMPDEST SWAP1 POP SWAP2 SWAP1 POP JUMP JUMPDEST PUSH2 0x1AE6 DUP2 PUSH2 0x1ACB JUMP JUMPDEST DUP3 MSTORE POP POP JUMP JUMPDEST PUSH1 0x0 DUP2 MLOAD SWAP1 POP SWAP2 SWAP1 POP JUMP JUMPDEST PUSH1 0x0 DUP3 DUP3 MSTORE PUSH1 0x20 DUP3 ADD SWAP1 POP SWAP3 SWAP2 POP POP JUMP JUMPDEST PUSH1 0x0 JUMPDEST DUP4 DUP2 LT ISZERO PUSH2 0x1B26 JUMPI DUP1 DUP3 ADD MLOAD DUP2 DUP5 ADD MSTORE PUSH1 0x20 DUP2 ADD SWAP1 POP PUSH2 0x1B0B JUMP JUMPDEST PUSH1 0x0 DUP5 DUP5 ADD MSTORE POP POP POP POP JUMP JUMPDEST PUSH1 0x0 PUSH2 0x1B3D DUP3 PUSH2 0x1AEC JUMP JUMPDEST PUSH2 0x1B47 DUP2 DUP6 PUSH2 0x1AF7 JUMP JUMPDEST SWAP4 POP PUSH2 0x1B57 DUP2 DUP6 PUSH1 0x20 DUP7 ADD PUSH2 0x1B08 JUMP JUMPDEST PUSH2 0x1B60 DUP2 PUSH2 0x18FA JUMP JUMPDEST DUP5 ADD SWAP2 POP POP SWAP3 SWAP2 POP POP JUMP JUMPDEST PUSH1 0x0 PUSH1 0xFF DUP3 AND SWAP1 POP SWAP2 SWAP1 POP JUMP JUMPDEST PUSH2 0x1B81 DUP2 PUSH2 0x1B6B JUMP JUMPDEST DUP3 MSTORE POP POP JUMP JUMPDEST PUSH1 0x0 DUP2 MLOAD SWAP1 POP SWAP2 SWAP1 POP JUMP JUMPDEST PUSH1 0x0 DUP3 DUP3 MSTORE PUSH1 0x20 DUP3 ADD SWAP1 POP SWAP3 SWAP2 POP POP JUMP JUMPDEST PUSH1 0x0 DUP2 SWAP1 POP PUSH1 0x20 DUP3 ADD SWAP1 POP SWAP2 SWAP1 POP JUMP JUMPDEST PUSH1 0x0 PUSH2 0x1BBF DUP4 DUP4 PUSH2 0x1B32 JUMP JUMPDEST SWAP1 POP SWAP3 SWAP2 POP POP JUMP JUMPDEST PUSH1 0x0 PUSH1 0x20 DUP3 ADD SWAP1 POP SWAP2 SWAP1 POP JUMP JUMPDEST PUSH1 0x0 PUSH2 0x1BDF DUP3 PUSH2 0x1B87 JUMP JUMPDEST PUSH2 0x1BE9 DUP2 DUP6 PUSH2 0x1B92 JUMP JUMPDEST SWAP4 POP DUP4 PUSH1 0x20 DUP3 MUL DUP6 ADD PUSH2 0x1BFB DUP6 PUSH2 0x1BA3 JUMP JUMPDEST DUP1 PUSH1 0x0 JUMPDEST DUP6 DUP2 LT ISZERO PUSH2 0x1C37 JUMPI DUP5 DUP5 SUB DUP10 MSTORE DUP2 MLOAD PUSH2 0x1C18 DUP6 DUP3 PUSH2 0x1BB3 JUMP JUMPDEST SWAP5 POP PUSH2 0x1C23 DUP4 PUSH2 0x1BC7 JUMP JUMPDEST SWAP3 POP PUSH1 0x20 DUP11 ADD SWAP10 POP POP PUSH1 0x1 DUP2 ADD SWAP1 POP PUSH2 0x1BFF JUMP JUMPDEST POP DUP3 SWAP8 POP DUP8 SWAP6 POP POP POP POP POP POP SWAP3 SWAP2 POP POP JUMP JUMPDEST PUSH1 0x0 PUSH1 0xE0 DUP4 ADD PUSH1 0x0 DUP4 ADD MLOAD PUSH2 0x1C61 PUSH1 0x0 DUP7 ADD DUP3 PUSH2 0x1ADD JUMP JUMPDEST POP PUSH1 0x20 DUP4 ADD MLOAD PUSH2 0x1C74 PUSH1 0x20 DUP7 ADD DUP3 PUSH2 0x1ADD JUMP JUMPDEST POP PUSH1 0x40 DUP4 ADD MLOAD DUP5 DUP3 SUB PUSH1 0x40 DUP7 ADD MSTORE PUSH2 0x1C8C DUP3 DUP3 PUSH2 0x1B32 JUMP JUMPDEST SWAP2 POP POP PUSH1 0x60 DUP4 ADD MLOAD DUP5 DUP3 SUB PUSH1 0x60 DUP7 ADD MSTORE PUSH2 0x1CA6 DUP3 DUP3 PUSH2 0x1B32 JUMP JUMPDEST SWAP2 POP POP PUSH1 0x80 DUP4 ADD MLOAD PUSH2 0x1CBB PUSH1 0x80 DUP7 ADD DUP3 PUSH2 0x1B78 JUMP JUMPDEST POP PUSH1 0xA0 DUP4 ADD MLOAD DUP5 DUP3 SUB PUSH1 0xA0 DUP7 ADD MSTORE PUSH2 0x1CD3 DUP3 DUP3 PUSH2 0x1BD4 JUMP JUMPDEST SWAP2 POP POP PUSH1 0xC0 DUP4 ADD MLOAD DUP5 DUP3 SUB PUSH1 0xC0 DUP7 ADD MSTORE PUSH2 0x1CED DUP3 DUP3 PUSH2 0x1B32 JUMP JUMPDEST SWAP2 POP POP DUP1 SWAP2 POP POP SWAP3 SWAP2 POP POP JUMP JUMPDEST PUSH1 0x0 PUSH2 0x1D06 DUP4 DUP4 PUSH2 0x1C49 JUMP JUMPDEST SWAP1 POP SWAP3 SWAP2 POP POP JUMP JUMPDEST PUSH1 0x0 PUSH1 0x20 DUP3 ADD SWAP1 POP SWAP2 SWAP1 POP JUMP JUMPDEST PUSH1 0x0 PUSH2 0x1D26 DUP3 PUSH2 0x1A7F JUMP JUMPDEST PUSH2 0x1D30 DUP2 DUP6 PUSH2 0x1A8A JUMP JUMPDEST SWAP4 POP DUP4 PUSH1 0x20 DUP3 MUL DUP6 ADD PUSH2 0x1D42 DUP6 PUSH2 0x1A9B JUMP JUMPDEST DUP1 PUSH1 0x0 JUMPDEST DUP6 DUP2 LT ISZERO PUSH2 0x1D7E JUMPI DUP5 DUP5 SUB DUP10 MSTORE DUP2 MLOAD PUSH2 0x1D5F DUP6 DUP3 PUSH2 0x1CFA JUMP JUMPDEST SWAP5 POP PUSH2 0x1D6A DUP4 PUSH2 0x1D0E JUMP JUMPDEST SWAP3 POP PUSH1 0x20 DUP11 ADD SWAP10 POP POP PUSH1 0x1 DUP2 ADD SWAP1 POP PUSH2 0x1D46 JUMP JUMPDEST POP DUP3 SWAP8 POP DUP8 SWAP6 POP POP POP POP POP POP SWAP3 SWAP2 POP POP JUMP JUMPDEST PUSH1 0x0 PUSH1 0x20 DUP3 ADD SWAP1 POP DUP2 DUP2 SUB PUSH1 0x0 DUP4 ADD MSTORE PUSH2 0x1DAA DUP2 DUP5 PUSH2 0x1D1B JUMP JUMPDEST SWAP1 POP SWAP3 SWAP2 POP POP JUMP JUMPDEST PUSH2 0x1DBB DUP2 PUSH2 0x1ACB JUMP JUMPDEST DUP2 EQ PUSH2 0x1DC6 JUMPI PUSH1 0x0 DUP1 REVERT JUMPDEST POP JUMP JUMPDEST PUSH1 0x0 DUP2 CALLDATALOAD SWAP1 POP PUSH2 0x1DD8 DUP2 PUSH2 0x1DB2 JUMP JUMPDEST SWAP3 SWAP2 POP POP JUMP JUMPDEST PUSH1 0x0 PUSH1 0x20 DUP3 DUP5 SUB SLT ISZERO PUSH2 0x1DF4 JUMPI PUSH2 0x1DF3 PUSH2 0x18E6 JUMP JUMPDEST JUMPDEST PUSH1 0x0 PUSH2 0x1E02 DUP5 DUP3 DUP6 ADD PUSH2 0x1DC9 JUMP JUMPDEST SWAP2 POP POP SWAP3 SWAP2 POP POP JUMP JUMPDEST PUSH1 0x0 DUP2 SWAP1 POP SWAP2 SWAP1 POP JUMP JUMPDEST PUSH2 0x1E1E DUP2 PUSH2 0x1E0B JUMP JUMPDEST DUP2 EQ PUSH2 0x1E29 JUMPI PUSH1 0x0 DUP1 REVERT JUMPDEST POP JUMP JUMPDEST PUSH1 0x0 DUP2 CALLDATALOAD SWAP1 POP PUSH2 0x1E3B DUP2 PUSH2 0x1E15 JUMP JUMPDEST SWAP3 SWAP2 POP POP JUMP JUMPDEST PUSH1 0x0 DUP1 PUSH1 0x40 DUP4 DUP6 SUB SLT ISZERO PUSH2 0x1E58 JUMPI PUSH2 0x1E57 PUSH2 0x18E6 JUMP JUMPDEST JUMPDEST PUSH1 0x0 PUSH2 0x1E66 DUP6 DUP3 DUP7 ADD PUSH2 0x1DC9 JUMP JUMPDEST SWAP3 POP POP PUSH1 0x20 PUSH2 0x1E77 DUP6 DUP3 DUP7 ADD PUSH2 0x1E2C JUMP JUMPDEST SWAP2 POP POP SWAP3 POP SWAP3 SWAP1 POP JUMP JUMPDEST PUSH2 0x1E8A DUP2 PUSH2 0x1ACB JUMP JUMPDEST DUP3 MSTORE POP POP JUMP JUMPDEST PUSH1 0x0 DUP3 DUP3 MSTORE PUSH1 0x20 DUP3 ADD SWAP1 POP SWAP3 SWAP2 POP POP JUMP JUMPDEST PUSH1 0x0 PUSH2 0x1EAC DUP3 PUSH2 0x1AEC JUMP JUMPDEST PUSH2 0x1EB6 DUP2 DUP6 PUSH2 0x1E90 JUMP JUMPDEST SWAP4 POP PUSH2 0x1EC6 DUP2 DUP6 PUSH1 0x20 DUP7 ADD PUSH2 0x1B08 JUMP JUMPDEST PUSH2 0x1ECF DUP2 PUSH2 0x18FA JUMP JUMPDEST DUP5 ADD SWAP2 POP POP SWAP3 SWAP2 POP POP JUMP JUMPDEST PUSH2 0x1EE3 DUP2 PUSH2 0x1B6B JUMP JUMPDEST DUP3 MSTORE POP POP JUMP JUMPDEST PUSH1 0x0 PUSH1 0xC0 DUP3 ADD SWAP1 POP PUSH2 0x1EFE PUSH1 0x0 DUP4 ADD DUP10 PUSH2 0x1E81 JUMP JUMPDEST PUSH2 0x1F0B PUSH1 0x20 DUP4 ADD DUP9 PUSH2 0x1E81 JUMP JUMPDEST DUP2 DUP2 SUB PUSH1 0x40 DUP4 ADD MSTORE PUSH2 0x1F1D DUP2 DUP8 PUSH2 0x1EA1 JUMP JUMPDEST SWAP1 POP DUP2 DUP2 SUB PUSH1 0x60 DUP4 ADD MSTORE PUSH2 0x1F31 DUP2 DUP7 PUSH2 0x1EA1 JUMP JUMPDEST SWAP1 POP PUSH2 0x1F40 PUSH1 0x80 DUP4 ADD DUP6 PUSH2 0x1EDA JUMP JUMPDEST DUP2 DUP2 SUB PUSH1 0xA0 DUP4 ADD MSTORE PUSH2 0x1F52 DUP2 DUP5 PUSH2 0x1EA1 JUMP JUMPDEST SWAP1 POP SWAP8 SWAP7 POP POP POP POP POP POP POP JUMP JUMPDEST PUSH2 0x1F68 DUP2 PUSH2 0x1B6B JUMP JUMPDEST DUP2 EQ PUSH2 0x1F73 JUMPI PUSH1 0x0 DUP1 REVERT JUMPDEST POP JUMP JUMPDEST PUSH1 0x0 DUP2 CALLDATALOAD SWAP1 POP PUSH2 0x1F85 DUP2 PUSH2 0x1F5F JUMP JUMPDEST SWAP3 SWAP2 POP POP JUMP JUMPDEST PUSH1 0x0 PUSH8 0xFFFFFFFFFFFFFFFF DUP3 GT ISZERO PUSH2 0x1FA6 JUMPI PUSH2 0x1FA5 PUSH2 0x190B JUMP JUMPDEST JUMPDEST PUSH1 0x20 DUP3 MUL SWAP1 POP PUSH1 0x20 DUP2 ADD SWAP1 POP SWAP2 SWAP1 POP JUMP JUMPDEST PUSH1 0x0 DUP1 REVERT JUMPDEST PUSH1 0x0 PUSH2 0x1FCF PUSH2 0x1FCA DUP5 PUSH2 0x1F8B JUMP JUMPDEST PUSH2 0x196B JUMP JUMPDEST SWAP1 POP DUP1 DUP4 DUP3 MSTORE PUSH1 0x20 DUP3 ADD SWAP1 POP PUSH1 0x20 DUP5 MUL DUP4 ADD DUP6 DUP2 GT ISZERO PUSH2 0x1FF2 JUMPI PUSH2 0x1FF1 PUSH2 0x1FB7 JUMP JUMPDEST JUMPDEST DUP4 JUMPDEST DUP2 DUP2 LT ISZERO PUSH2 0x2039 JUMPI DUP1 CALLDATALOAD PUSH8 0xFFFFFFFFFFFFFFFF DUP2 GT ISZERO PUSH2 0x2017 JUMPI PUSH2 0x2016 PUSH2 0x18F0 JUMP JUMPDEST JUMPDEST DUP1 DUP7 ADD PUSH2 0x2024 DUP10 DUP3 PUSH2 0x1A08 JUMP JUMPDEST DUP6 MSTORE PUSH1 0x20 DUP6 ADD SWAP5 POP POP POP PUSH1 0x20 DUP2 ADD SWAP1 POP PUSH2 0x1FF4 JUMP JUMPDEST POP POP POP SWAP4 SWAP3 POP POP POP JUMP JUMPDEST PUSH1 0x0 DUP3 PUSH1 0x1F DUP4 ADD SLT PUSH2 0x2058 JUMPI PUSH2 0x2057 PUSH2 0x18F0 JUMP JUMPDEST JUMPDEST DUP2 CALLDATALOAD PUSH2 0x2068 DUP5 DUP3 PUSH1 0x20 DUP7 ADD PUSH2 0x1FBC JUMP JUMPDEST SWAP2 POP POP SWAP3 SWAP2 POP POP JUMP JUMPDEST PUSH1 0x0 DUP1 PUSH1 0x0 DUP1 PUSH1 0x0 DUP1 PUSH1 0xC0 DUP8 DUP10 SUB SLT ISZERO PUSH2 0x208E JUMPI PUSH2 0x208D PUSH2 0x18E6 JUMP JUMPDEST JUMPDEST PUSH1 0x0 PUSH2 0x209C DUP10 DUP3 DUP11 ADD PUSH2 0x1DC9 JUMP JUMPDEST SWAP7 POP POP PUSH1 0x20 DUP8 ADD CALLDATALOAD PUSH8 0xFFFFFFFFFFFFFFFF DUP2 GT ISZERO PUSH2 0x20BD JUMPI PUSH2 0x20BC PUSH2 0x18EB JUMP JUMPDEST JUMPDEST PUSH2 0x20C9 DUP10 DUP3 DUP11 ADD PUSH2 0x1A08 JUMP JUMPDEST SWAP6 POP POP PUSH1 0x40 DUP8 ADD CALLDATALOAD PUSH8 0xFFFFFFFFFFFFFFFF DUP2 GT ISZERO PUSH2 0x20EA JUMPI PUSH2 0x20E9 PUSH2 0x18EB JUMP JUMPDEST JUMPDEST PUSH2 0x20F6 DUP10 DUP3 DUP11 ADD PUSH2 0x1A08 JUMP JUMPDEST SWAP5 POP POP PUSH1 0x60 PUSH2 0x2107 DUP10 DUP3 DUP11 ADD PUSH2 0x1F76 JUMP JUMPDEST SWAP4 POP POP PUSH1 0x80 DUP8 ADD CALLDATALOAD PUSH8 0xFFFFFFFFFFFFFFFF DUP2 GT ISZERO PUSH2 0x2128 JUMPI PUSH2 0x2127 PUSH2 0x18EB JUMP JUMPDEST JUMPDEST PUSH2 0x2134 DUP10 DUP3 DUP11 ADD PUSH2 0x2043 JUMP JUMPDEST SWAP3 POP POP PUSH1 0xA0 DUP8 ADD CALLDATALOAD PUSH8 0xFFFFFFFFFFFFFFFF DUP2 GT ISZERO PUSH2 0x2155 JUMPI PUSH2 0x2154 PUSH2 0x18EB JUMP JUMPDEST JUMPDEST PUSH2 0x2161 DUP10 DUP3 DUP11 ADD PUSH2 0x1A08 JUMP JUMPDEST SWAP2 POP POP SWAP3 SWAP6 POP SWAP3 SWAP6 POP SWAP3 SWAP6 JUMP JUMPDEST PUSH1 0x0 PUSH1 0x20 DUP3 DUP5 SUB SLT ISZERO PUSH2 0x2184 JUMPI PUSH2 0x2183 PUSH2 0x18E6 JUMP JUMPDEST JUMPDEST PUSH1 0x0 PUSH2 0x2192 DUP5 DUP3 DUP6 ADD PUSH2 0x1E2C JUMP JUMPDEST SWAP2 POP POP SWAP3 SWAP2 POP POP JUMP JUMPDEST PUSH32 0x4E487B7100000000000000000000000000000000000000000000000000000000 PUSH1 0x0 MSTORE PUSH1 0x32 PUSH1 0x4 MSTORE PUSH1 0x24 PUSH1 0x0 REVERT JUMPDEST PUSH1 0x0 DUP2 SWAP1 POP SWAP3 SWAP2 POP POP JUMP JUMPDEST PUSH1 0x0 PUSH2 0x21E0 DUP3 PUSH2 0x1AEC JUMP JUMPDEST PUSH2 0x21EA DUP2 DUP6 PUSH2 0x21CA JUMP JUMPDEST SWAP4 POP PUSH2 0x21FA DUP2 DUP6 PUSH1 0x20 DUP7 ADD PUSH2 0x1B08 JUMP JUMPDEST DUP1 DUP5 ADD SWAP2 POP POP SWAP3 SWAP2 POP POP JUMP JUMPDEST PUSH1 0x0 PUSH2 0x2212 DUP3 DUP5 PUSH2 0x21D5 JUMP JUMPDEST SWAP2 POP DUP2 SWAP1 POP SWAP3 SWAP2 POP POP JUMP JUMPDEST PUSH32 0x4E487B7100000000000000000000000000000000000000000000000000000000 PUSH1 0x0 MSTORE PUSH1 0x22 PUSH1 0x4 MSTORE PUSH1 0x24 PUSH1 0x0 REVERT JUMPDEST PUSH1 0x0 PUSH1 0x2 DUP3 DIV SWAP1 POP PUSH1 0x1 DUP3 AND DUP1 PUSH2 0x2264 JUMPI PUSH1 0x7F DUP3 AND SWAP2 POP JUMPDEST PUSH1 0x20 DUP3 LT DUP2 SUB PUSH2 0x2277 JUMPI PUSH2 0x2276 PUSH2 0x221D JUMP JUMPDEST JUMPDEST POP SWAP2 SWAP1 POP JUMP JUMPDEST PUSH1 0x0 DUP2 SWAP1 POP DUP2 PUSH1 0x0 MSTORE PUSH1 0x20 PUSH1 0x0 KECCAK256 SWAP1 POP SWAP2 SWAP1 POP JUMP JUMPDEST PUSH1 0x0 DUP2 SLOAD PUSH2 0x229F DUP2 PUSH2 0x224C JUMP JUMPDEST PUSH2 0x22A9 DUP2 DUP7 PUSH2 0x21CA JUMP JUMPDEST SWAP5 POP PUSH1 0x1 DUP3 AND PUSH1 0x0 DUP2 EQ PUSH2 0x22C4 JUMPI PUSH1 0x1 DUP2 EQ PUSH2 0x22D9 JUMPI PUSH2 0x230C JUMP JUMPDEST PUSH1 0xFF NOT DUP4 AND DUP7 MSTORE DUP2 ISZERO ISZERO DUP3 MUL DUP7 ADD SWAP4 POP PUSH2 0x230C JUMP JUMPDEST PUSH2 0x22E2 DUP6 PUSH2 0x227D JUMP JUMPDEST PUSH1 0x0 JUMPDEST DUP4 DUP2 LT ISZERO PUSH2 0x2304 JUMPI DUP2 SLOAD DUP2 DUP10 ADD MSTORE PUSH1 0x1 DUP3 ADD SWAP2 POP PUSH1 0x20 DUP2 ADD SWAP1 POP PUSH2 0x22E5 JUMP JUMPDEST DUP4 DUP9 ADD SWAP6 POP POP POP JUMPDEST POP POP POP SWAP3 SWAP2 POP POP JUMP JUMPDEST PUSH1 0x0 PUSH2 0x2321 DUP3 DUP5 PUSH2 0x2292 JUMP JUMPDEST SWAP2 POP DUP2 SWAP1 POP SWAP3 SWAP2 POP POP JUMP JUMPDEST PUSH32 0x4E487B7100000000000000000000000000000000000000000000000000000000 PUSH1 0x0 MSTORE PUSH1 0x11 PUSH1 0x4 MSTORE PUSH1 0x24 PUSH1 0x0 REVERT JUMPDEST PUSH1 0x0 PUSH2 0x2366 DUP3 PUSH2 0x1E0B JUMP JUMPDEST SWAP2 POP PUSH32 0xFFFFFFFFFFFFFFFFFFFFFFFFFFFFFFFFFFFFFFFFFFFFFFFFFFFFFFFFFFFFFFFF DUP3 SUB PUSH2 0x2398 JUMPI PUSH2 0x2397 PUSH2 0x232C JUMP JUMPDEST JUMPDEST PUSH1 0x1 DUP3 ADD SWAP1 POP SWAP2 SWAP1 POP JUMP JUMPDEST PUSH32 0x596F752063616E6E6F742072657669657720796F757273656C662E0000000000 PUSH1 0x0 DUP3 ADD MSTORE POP JUMP JUMPDEST PUSH1 0x0 PUSH2 0x23D9 PUSH1 0x1B DUP4 PUSH2 0x1E90 JUMP JUMPDEST SWAP2 POP PUSH2 0x23E4 DUP3 PUSH2 0x23A3 JUMP JUMPDEST PUSH1 0x20 DUP3 ADD SWAP1 POP SWAP2 SWAP1 POP JUMP JUMPDEST PUSH1 0x0 PUSH1 0x20 DUP3 ADD SWAP1 POP DUP2 DUP2 SUB PUSH1 0x0 DUP4 ADD MSTORE PUSH2 0x2408 DUP2 PUSH2 0x23CC JUMP JUMPDEST SWAP1 POP SWAP2 SWAP1 POP JUMP JUMPDEST PUSH32 0x526174696E67206D757374206265206265747765656E203120616E6420352E00 PUSH1 0x0 DUP3 ADD MSTORE POP JUMP JUMPDEST PUSH1 0x0 PUSH2 0x2445 PUSH1 0x1F DUP4 PUSH2 0x1E90 JUMP JUMPDEST SWAP2 POP PUSH2 0x2450 DUP3 PUSH2 0x240F JUMP JUMPDEST PUSH1 0x20 DUP3 ADD SWAP1 POP SWAP2 SWAP1 POP JUMP JUMPDEST PUSH1 0x0 PUSH1 0x20 DUP3 ADD SWAP1 POP DUP2 DUP2 SUB PUSH1 0x0 DUP4 ADD MSTORE PUSH2 0x2474 DUP2 PUSH2 0x2438 JUMP JUMPDEST SWAP1 POP SWAP2 SWAP1 POP JUMP JUMPDEST PUSH1 0x0 PUSH1 0x20 PUSH1 0x1F DUP4 ADD DIV SWAP1 POP SWAP2 SWAP1 POP JUMP JUMPDEST PUSH1 0x0 DUP3 DUP3 SHL SWAP1 POP SWAP3 SWAP2 POP POP JUMP JUMPDEST PUSH1 0x0 PUSH1 0x8 DUP4 MUL PUSH2 0x24C8 PUSH32 0xFFFFFFFFFFFFFFFFFFFFFFFFFFFFFFFFFFFFFFFFFFFFFFFFFFFFFFFFFFFFFFFF DUP3 PUSH2 0x248B JUMP JUMPDEST PUSH2 0x24D2 DUP7 DUP4 PUSH2 0x248B JUMP JUMPDEST SWAP6 POP DUP1 NOT DUP5 AND SWAP4 POP DUP1 DUP7 AND DUP5 OR SWAP3 POP POP POP SWAP4 SWAP3 POP POP POP JUMP JUMPDEST PUSH1 0x0 DUP2 SWAP1 POP SWAP2 SWAP1 POP JUMP JUMPDEST PUSH1 0x0 PUSH2 0x250F PUSH2 0x250A PUSH2 0x2505 DUP5 PUSH2 0x1E0B JUMP JUMPDEST PUSH2 0x24EA JUMP JUMPDEST PUSH2 0x1E0B JUMP JUMPDEST SWAP1 POP SWAP2 SWAP1 POP JUMP JUMPDEST PUSH1 0x0 DUP2 SWAP1 POP SWAP2 SWAP1 POP JUMP JUMPDEST PUSH2 0x2529 DUP4 PUSH2 0x24F4 JUMP JUMPDEST PUSH2 0x253D PUSH2 0x2535 DUP3 PUSH2 0x2516 JUMP JUMPDEST DUP5 DUP5 SLOAD PUSH2 0x2498 JUMP JUMPDEST DUP3 SSTORE POP POP POP POP JUMP JUMPDEST PUSH1 0x0 SWAP1 JUMP JUMPDEST PUSH2 0x2552 PUSH2 0x2545 JUMP JUMPDEST PUSH2 0x255D DUP2 DUP5 DUP5 PUSH2 0x2520 JUMP JUMPDEST POP POP POP JUMP JUMPDEST JUMPDEST DUP2 DUP2 LT ISZERO PUSH2 0x2581 JUMPI PUSH2 0x2576 PUSH1 0x0 DUP3 PUSH2 0x254A JUMP JUMPDEST PUSH1 0x1 DUP2 ADD SWAP1 POP PUSH2 0x2563 JUMP JUMPDEST POP POP JUMP JUMPDEST PUSH1 0x1F DUP3 GT ISZERO PUSH2 0x25C6 JUMPI PUSH2 0x2597 DUP2 PUSH2 0x227D JUMP JUMPDEST PUSH2 0x25A0 DUP5 PUSH2 0x247B JUMP JUMPDEST DUP2 ADD PUSH1 0x20 DUP6 LT ISZERO PUSH2 0x25AF JUMPI DUP2 SWAP1 POP JUMPDEST PUSH2 0x25C3 PUSH2 0x25BB DUP6 PUSH2 0x247B JUMP JUMPDEST DUP4 ADD DUP3 PUSH2 0x2562 JUMP JUMPDEST POP POP JUMPDEST POP POP POP JUMP JUMPDEST PUSH1 0x0 DUP3 DUP3 SHR SWAP1 POP SWAP3 SWAP2 POP POP JUMP JUMPDEST PUSH1 0x0 PUSH2 0x25E9 PUSH1 0x0 NOT DUP5 PUSH1 0x8 MUL PUSH2 0x25CB JUMP JUMPDEST NOT DUP1 DUP4 AND SWAP2 POP POP SWAP3 SWAP2 POP POP JUMP JUMPDEST PUSH1 0x0 PUSH2 0x2602 DUP4 DUP4 PUSH2 0x25D8 JUMP JUMPDEST SWAP2 POP DUP3 PUSH1 0x2 MUL DUP3 OR SWAP1 POP SWAP3 SWAP2 POP POP JUMP JUMPDEST PUSH2 0x261B DUP3 PUSH2 0x1AEC JUMP JUMPDEST PUSH8 0xFFFFFFFFFFFFFFFF DUP2 GT ISZERO PUSH2 0x2634 JUMPI PUSH2 0x2633 PUSH2 0x190B JUMP JUMPDEST JUMPDEST PUSH2 0x263E DUP3 SLOAD PUSH2 0x224C JUMP JUMPDEST PUSH2 0x2649 DUP3 DUP3 DUP6 PUSH2 0x2585 JUMP JUMPDEST PUSH1 0x0 PUSH1 0x20 SWAP1 POP PUSH1 0x1F DUP4 GT PUSH1 0x1 DUP2 EQ PUSH2 0x267C JUMPI PUSH1 0x0 DUP5 ISZERO PUSH2 0x266A JUMPI DUP3 DUP8 ADD MLOAD SWAP1 POP JUMPDEST PUSH2 0x2674 DUP6 DUP3 PUSH2 0x25F6 JUMP JUMPDEST DUP7 SSTORE POP PUSH2 0x26DC JUMP JUMPDEST PUSH1 0x1F NOT DUP5 AND PUSH2 0x268A DUP7 PUSH2 0x227D JUMP JUMPDEST PUSH1 0x0 JUMPDEST DUP3 DUP2 LT ISZERO PUSH2 0x26B2 JUMPI DUP5 DUP10 ADD MLOAD DUP3 SSTORE PUSH1 0x1 DUP3 ADD SWAP2 POP PUSH1 0x20 DUP6 ADD SWAP5 POP PUSH1 0x20 DUP2 ADD SWAP1 POP PUSH2 0x268D JUMP JUMPDEST DUP7 DUP4 LT ISZERO PUSH2 0x26CF JUMPI DUP5 DUP10 ADD MLOAD PUSH2 0x26CB PUSH1 0x1F DUP10 AND DUP3 PUSH2 0x25D8 JUMP JUMPDEST DUP4 SSTORE POP JUMPDEST PUSH1 0x1 PUSH1 0x2 DUP9 MUL ADD DUP9 SSTORE POP POP POP JUMPDEST POP POP POP POP POP POP JUMP JUMPDEST PUSH1 0x0 DUP3 DUP3 MSTORE PUSH1 0x20 DUP3 ADD SWAP1 POP SWAP3 SWAP2 POP POP JUMP JUMPDEST PUSH1 0x0 PUSH2 0x2700 DUP3 PUSH2 0x1B87 JUMP JUMPDEST PUSH2 0x270A DUP2 DUP6 PUSH2 0x26E4 JUMP JUMPDEST SWAP4 POP DUP4 PUSH1 0x20 DUP3 MUL DUP6 ADD PUSH2 0x271C DUP6 PUSH2 0x1BA3 JUMP JUMPDEST DUP1 PUSH1 0x0 JUMPDEST DUP6 DUP2 LT ISZERO PUSH2 0x2758 JUMPI DUP5 DUP5 SUB DUP10 MSTORE DUP2 MLOAD PUSH2 0x2739 DUP6 DUP3 PUSH2 0x1BB3 JUMP JUMPDEST SWAP5 POP PUSH2 0x2744 DUP4 PUSH2 0x1BC7 JUMP JUMPDEST SWAP3 POP PUSH1 0x20 DUP11 ADD SWAP10 POP POP PUSH1 0x1 DUP2 ADD SWAP1 POP PUSH2 0x2720 JUMP JUMPDEST POP DUP3 SWAP8 POP DUP8 SWAP6 POP POP POP POP POP POP SWAP3 SWAP2 POP POP JUMP JUMPDEST PUSH1 0x0 PUSH1 0x80 DUP3 ADD SWAP1 POP DUP2 DUP2 SUB PUSH1 0x0 DUP4 ADD MSTORE PUSH2 0x2784 DUP2 DUP8 PUSH2 0x1EA1 JUMP JUMPDEST SWAP1 POP PUSH2 0x2793 PUSH1 0x20 DUP4 ADD DUP7 PUSH2 0x1EDA JUMP JUMPDEST DUP2 DUP2 SUB PUSH1 0x40 DUP4 ADD MSTORE PUSH2 0x27A5 DUP2 DUP6 PUSH2 0x26F5 JUMP JUMPDEST SWAP1 POP DUP2 DUP2 SUB PUSH1 0x60 DUP4 ADD MSTORE PUSH2 0x27B9 DUP2 DUP5 PUSH2 0x1EA1 JUMP JUMPDEST SWAP1 POP SWAP6 SWAP5 POP POP POP POP POP JUMP INVALID LOG2 PUSH5 0x6970667358 0x22 SLT KECCAK256 0xEE PUSH13 0xA8FA5A414B5B0D507376688578 0xB4 0xB6 DUP5 0xD9 SHR 0xDD 0x1F DUP15 0xBE PUSH2 0x2ACC 0xED LOG1 PUSH12 0x226864736F6C634300081B00 CALLER "
        },
        "methodIdentifiers": {
          "allReviews(uint256)": "ffa590ae",
          "getAllReviews()": "45a7b01c",
          "getUserReviews(address)": "18d0e8b2",
          "searchReviewsByTech(string)": "110d91b2",
          "submitReview(address,string,string,uint8,string[],string)": "9eba9207",
          "userReviews(address,uint256)": "1f4ac129"
        }
      }
    }
  }
}